:020000040800F2
:20000000FC4F00204D010008E9310008EB310008ED310008EF310008F13100080000000061
:20002000000000000000000000000000F3310008F531000800000000F7310008F931000804
:200040009501000895010008950100089501000895010008950100089501000895010008B0
:20006000950100089501000895010008950100089501000895010008950100089501000890
:2000800095010008950100089501000895010008FD310008950100089501000895010008D8
:2000A000950100089501000895010008950100089501000895010008950100089501000850
:2000C000950100089501000895010008950100089501000895010008950100089501000830
:2000E000950100089501000895010008000000000000000000000000000000000000000026
:2001000000000000000000005FF808F110B5054C237833B9044B13B10448AFF3008001234D
:20012000237010BD20010020000000009036000808B5034B1BB103490348AFF3008008BDFB
:200140000000000024010020903600080C480D490D4A002302E0D458C4500433C4188C4265
:20016000F9D30A4A0A4C002301E013600432A242FBD303F049F803F051FA02F0ABFF7047E5
:2001800000000020200100208838000820010020700E0020FEE7704710B54FF0FF32002462
:2001A000044BDA601C61DA60DC60FFF7F4FF204610BD00BF0010024038B50E4B0546187875
:2001C0004FF47A73B3FBF0F30B4A1068B0FBF3F000F08AF8044658B90F2D09D80246294662
:2001E0004FF0FF3000F042F82046044B1D6038BD0120FCE700000020AC000020040000202C
:20020000074A08B51368032043F01003136000F01BF80020FFF7D0FF02F0C4FF002008BDF7
:2002200000200240034A044B11681B780B441360704700BF3C01002000000020014B186833
:20024000704700BF3C01002007490302CA6803F4E06322F4E0621204120C134343F0BF63D3
:2002600043F40033CB60704700ED00E0164B30B5DC68C4F30224C4F10703251D042B28BFE7
:200280000423062D4FF0FF3598BF002405FA03F388BF033C21EA0303A34005FA04F422EAA4
:2002A0000402002843EA0203ACBF00F16040074A4FEA0313DBB2B5BF00F00F0000F56140AC
:2002C000135480F8003330BD00ED00E014ED00E00123420900F01F0003FA00F0014B43F87F
:2002E0002200704700E100E00138B0F1807F0BD24FF0E023F021054A586182F82310002086
:20030000072298611A6170470120704700ED00E0114AD36813F0100305D01049CB6943F0A3
:200320000203CB611023D268500706D50B4943F00403CA6942F00102CA61074AD169C90771
:2003400008D50648C16941F00401C161D16921F00101D161D36070470020024040010020C4
:20036000064B186910F0800007D0054A5A6002F188325A601869C0F3C010704700200240C7
:2003800023016745034A0020136943F080031361704700BF0020024070B50546FFF74EFFEF
:2003A0000646114CE368D80712D4E368990644BF2023E360E368DA0606D4E369DB0703D407
:2003C000E06810F0040007D0FFF7A2FF012003E06B1CE7D00DB9032070BDFFF72FFF801B4C
:2003E000A842DFD9F7E700BF002002402DE9F84FDFF890901E4699F818300446012B0F4600
:2004000090463DD001234CF2503089F81830FFF7C3FF80BB012C03D0022C0CBF0224042414
:200420000025AB46DFF860A02801C0F12002A0F1200306FA02F228FA00F0C9F81CB0104339
:2004400026FA03F31843DAF8103080B243F00103CAF8103027F815004CF25030FFF79CFF2B
:20046000DAF8103023F00103CAF8103018B90135EBB29C42D8D8002389F81830BDE8F88F07
:200480000220FBE740010020002002400022064BDA61064B1A6942F002021A6158611A6926
:2004A00042F040021A61704740010020002002402DE9F041264F05463B7E8846012B44D005
:2004C00001243C7603684CF25030022B1AD1FFF763FF20B1012000233B76BDE8F0811D4C67
:2004E000F86123694CF2503043F004032361236943F040032361FFF74FFF236923F004032B
:200500002361E8E7FFF748FF0028E3D14FF0FF33C8F800302046AE680E4CD5E9023203EB58
:200520008223B342D7D93046FFF7B0FF4CF25030FFF732FF236923F00203236110B1C8F8C8
:200540000060C8E706F58066E7E70220C5E700BF40010020002002402DE9F041044686B0C6
:2005600000285ED090F8293403F0FF021BB980F8282402F09FFE032325466E4684F8293407
:2005800055F8100B00F086FC0FCD0FC62B6804F10408336098E80E00206800F06BFC00211B
:2005A000206800F081FC0021234622460126084604F1100582F82810918601310F29C2E9F7
:2005C0000E0082F8296082F82B00106402F12002F0D10022174683F828229A8601320F2A4B
:2005E000C3E98E7783F8297283F82B72C3F8407203F12003EFD16E460FCD0FC62B6833604D
:2006000098E80E00206800F051FC012384F82470206884F8293400F005FF002006B0BDE883
:20062000F0810120FAE710B590F828340446012B0ED0012180F8281402F043FF206800F0C8
:20064000EFFE206800F01DFC002084F8280410BD0220FCE710B590F828340446012B0FD084
:20066000012380F82834006800F014FC206800F0C6FE206800F0D6FE002084F8280410BDFD
:200680000220FCE710B590F828240446012A0BD0012280F8241080F82824006800F0BAFEC9
:2006A000002084F8280410BD0220FCE738B5044648B2002801F07F05B5BF04EB451104EB2A
:2006C0004111283101F50A71C00F0D7048700A61CB7094F82834012B09D00123206884F83F
:2006E000283400F003FC002084F8280438BD0220FCE74BB210B5002B01F07F02B5BF00EB2F
:20070000421100EB4111283101F50A71DB0F0A704B7090F828340446012B09D0012380F891
:200720002834006800F038FD002084F8280410BD0220FCE738B5002501F07F0100EB411473
:2007400084F82812C4E98F23C4F8445284F8295204F50A71006800F07BFE284638BD01F0A2
:200760000F0100EB4110B0F84402704701F07F0138B500EB41140025C4E90F2384F8281032
:2007800001232146656484F829302831006800F05FFE284638BD00002DE9F34704460068BD
:2007A00000F042FE000400F19880206800F03CFE41050FD522682046B2F8443023F4806318
:2007C0001B041B0CA2F8443002F0ADFD00212046FFF758FF206800F027FE470408D5226806
:2007E000B2F8443023F480431B041B0CA2F84430206800F019FE860408D52268B2F844300F
:2008000023F400531B041B0CA2F84430206800F00BFEC5041CD522682046B2F8403023F0C2
:2008200004031B041B0CA2F84030B2F8403023F008031B041B0CA2F8403002F097FD2268C9
:20084000B2F8443023F480531B041B0CA2F84430206800F0E9FD00051DD52068B0F8403047
:200860009BB243F00803A0F84030B0F8443023F400631B041B0CA0F84430B0F840309BB298
:2008800043F00403A0F8403000F0CEFDC10402D4204602F05BFD206800F0C6FD82050BD56E
:2008A00022682046B2F8443023F400731B041B0CA2F8443002F033FD206800F0B5FDC30538
:2008C00008D52268B2F8443023F480731B041B0CA2F8443002B0BDE8F0870023C64FDFF858
:2008E0001C83DFF81C93ADF80430ADF806302068B0F844309BB2ADF804301B047FF555AFBE
:20090000BDF8045015F00F0540F0AB80BDF80410038811F010019BB226D13B400380B0F80A
:20092000503094F828209BB203EBC20300EB4300D0F80434E26BC3F3090363641344E363C2
:20094000204602F0E5FC94F82430002BCFD0226C002ACCD194F82430216843F08003A1F8A7
:200960004C3084F82420C2E7ADF80630BDF806301A051FD5B0F8503094F828229BB203EB80
:20098000C20300EB4303D3F80C34B4F82C22C3F30903C4F8443204F22C4100F037FE226856
:2009A0002046138823F070031B051B0D138002F0A1FC9CE7BDF806301B0498D5038823F0AE
:2009C00070031B051B0D0380B0F8503094F828229BB203EBC20300EB4303D3F80C34C3F3E9
:2009E0000903C4F8443263B1B4F82C22D4F83C1200F00CFED4F83C32D4F844221344C4F818
:200A00003C320021204602F07BFC2268D4F83852B2F850103E2D89B201F1060102F5806018
:200A200017D9C5F34F13EE0604BF03F1FF339BB249EA83239BB240F8113013889BB203EA0E
:200A4000080383F4405343F4004343F0800313804DE7C5F34F03ED0744BF01339BB29B026B
:200A6000E8E730F825309BB2ADF80630BDF8063019043FD530F8253004EB451123F070039E
:200A80001B051B0D20F8253091F8323200F580624FEA451A002B72D1B0F8503091F828629C
:200AA0009BB2063303EBC60352F81360C6F3090636B1B1F82C223346D1F83C1200F0A6FD73
:200AC00004EB0A01D1F84432D1F83C223344C1F84432D1F840323244C1F83C2223B1D1F8AB
:200AE0003802864280F08180A24420469AF8281202F006FCBDF806301A067FF5F8AE2068CA
:200B000004EB451130F825306E019BB23B4020F8253091F8323000F580620235002B71D109
:200B2000B0F8503091F828C09BB2023303EBCC0352F8133004EB4515C3F309036B601BB1AE
:200B40008A8DC96B00F076FC22682644B2F8503096F828109BB2023303EBC10302EB43039D
:200B6000D3F80024F36BC2F3090272641A44336C2046F263002B7CD102F0CAFBB7E691F885
:200B8000283230F823C0DE00B0F850301CF4804F9BB233441ED0023352F81360C6F309069F
:200BA00036B13346B1F82E22D1F83C1200F02EFD04EB0A0393F82812226832F8213023F0D1
:200BC000F0031B051B0D43F4004343F0C00322F8213075E7063352F81360C6F30906002EB7
:200BE000E6D03346B1F83022DEE7204691F82812FFF7A0FD7EE700BF0F8FFFFF8FBFFFFF3E
:200C00000080FFFF91F8283030F823E04FEAC30CB0F850301EF0400F9BB263441DD00233A7
:200C200052F8133004EB4515C3F309036B601BB1CA8DC96B00F0FEFBA31993F82810226808
:200C400032F8213023F0F0031B051B0D43F4404343F0800322F8213076E7063352F81330CD
:200C600004EB4515C3F309036B60002BE4D00A8EDFE7FFF77BFD3AE6012238B54BB2002B9B
:200C800001F07F05B5BF00EB451100EB4111283101F50A71DB0F8A700D704B7090F8283423
:200CA000044693420ED080F82824006800F035FB25B9206804F22C4100F0BAFB002084F8E1
:200CC000280438BD0220FCE738B500254BB2002B01F07F02B5BF00EB421100EB41112831FA
:200CE00001F50A71DB0F8D700A704B7090F828340446012B09D0012380F82834006800F0E4
:200D00003EFB284684F8285438BD0220FCE710B590F828340446012B10D0012380F8283443
:200D20000B06006807D501F07F0100F0DAF8002084F8280410BD00F0D6F8F8E70220F9E7F7
:200D400011F0800F1BBF01F07F0100EB411000EB4110283008BF00F50A7099B21AB98272A0
:200D600081800020704701221B0C8272C1800381F7E72DE9F04F0D68C5F30F2595FAA5F2DE
:200D80004FF00F09B2FA82F24FF003084FF0040E4FF0011740F2011C35FA02F302D1012083
:200DA000BDE8F08F012393402B4261D0072A85BFA2F1080307FA03F30CFA02F343F080635F
:200DC0001E0E93FAA3FABAFA8AFA93FAA3FBBBFA8BFB84594FEA8A0A09FA0AFA24EA0A0A4C
:200DE0004C684FEA8B0B04FA0BF44AEA04048451C4684FEA132A9AFAAAFBBBFA8BFB24EA3E
:200E00000A0A0C6904FA0BF44AEA0404C4604C6824F00804012C2BD193FAA3FABAFA8AFA8D
:200E200093FAA3FBBBFA8BFB84594FEA8A0A08FA0AFA24EA0A0A8C684FEA8B0B04FA0BF4BA
:200E40004AEA0404845193FAA3FABAFA8AFA93FAA3F3B3FA83F34FEA8A0A0EFA0AFA24EAF2
:200E60000A0A9C00CB6803FA04F44AEA04048451013291E784B001A880E80E0004B00020B7
:200E80007047B0F840309BB243F43F43A0F8403000207047B0F8403023F474535B045B0CE2
:200EA000A0F84030002070470020704784B010B5044603A880E80E0000200123A4F84030C8
:200EC000A4F84000A4F84400A4F85000B4F840309BB243F43F43A4F84030BDE8104004B093
:200EE000704700207047002070470000F0B5CB780A78032B0FD8DFE803F002614D5630F826
:200F0000223023F4EC4323F070031B041B0C43F4007320F8223040F60F720B7800F5806644
:200F200030F8234014401C4344F4004444F0800420F823408D7ADC00002D40F089808D8866
:200F40004F786D086D00002F43D0B0F8501089B20C4430F8231046F81450490608D530F8C2
:200F600023100A4042F4004242F0C00220F8232030F8232022F4E04222F040021204120C02
:200F800082F0200242F4004242F0800220F823200020F0BD30F8223023F4EC4323F0700323
:200FA0001B041B0CB5E730F8223023F4EC4323F070031B041B0C43F4C063AAE730F822305E
:200FC00023F4EC4323F070031B041B0C43F480639FE7B0F8502092B22244043246F81250C7
:200FE000B0F85020096992B206323E29144427D9C1F34F15CA0604BF05F1FF3295B2654A64
:2010000042EA852292B246F8142030F8232056040BD530F8232022F0F0021205120D42F4C7
:20102000404242F0800220F8232030F8232022F4804222F070021204120C82F44052A1E794
:20104000C1F34F02CF0744BF013292B29202D9E730F8235025F4F8752D052D0D45F40145DB
:2010600045F0800520F82350B0F85050CF88ADB27F0825447F0046F81570B0F85050ADB254
:201080002C440D8904346D086D0046F814504978002941D130F823104D0408D530F82310AE
:2010A0000A4042F4404242F0800220F8232030F8232054060BD530F8232022F0F0021205F4
:2010C000120D42F4004242F0C00220F8232048F2800130F8232022F0F0021205120D42F494
:2010E000004242F0C00220F8232030F8232022F4804222F070021204120C82F440520A430F
:2011000020F8232030F8232022F4E04222F040021204120C0A4339E730F82310490408D557
:2011200030F823100A4042F4404242F0800220F8232030F8232052060BD530F8232022F023
:20114000F0021205120D42F4004242F0C00220F8232048F2800130F8232022F0F00212055F
:20116000120D42F4404242F0800220F8232030F8232022F4E04222F040021204120C0A4311
:2011800020F8232030F8232022F4804222F07002BEE700BF0080FFFF4A780B78897AB9BB8F
:2011A000FAB130F8232051060BD530F8232022F0F0021205120D42F4004242F0C00220F8B9
:2011C000232030F8232022F4E04222F040021204120C42F4004242F0800220F823200020FA
:2011E000704730F8232052040BD530F8232022F0F0021205120D42F4404242F0800220F86E
:20120000232030F8232022F4804222F07002DEE7002A42D130F8232051040BD530F82320B7
:2012200022F0F0021205120D42F4404242F0800220F8232030F8232052060BD530F823209F
:2012400022F0F0021205120D42F4004242F0C00220F8232048F2800130F8232022F0F00263
:201260001205120D42F4004242F0C00220F8232030F8232022F4804222F070021204120C76
:201280000A4320F8232030F8232022F4E04222F040021204120C0A439FE730F823205104E8
:2012A0000BD530F8232022F0F0021205120D42F4404242F0800220F8232030F8232052061F
:2012C0000BD530F8232022F0F0021205120D42F4004242F0C00220F8232048F2800130F8DF
:2012E000232022F0F0021205120D42F4404242F0800220F8232030F8232022F4E04222F0F5
:2013000040021204120C0A4320F8232030F8232022F4804222F07002BBE70A788AB90388F6
:2013200023F4804323F040031B041B0C83F4805383F0100343F4004343F080030380002094
:2013400070474B7883B130F8223023F4E04323F040031B041B0C83F0100343F4004343F05C
:20136000800320F82230EAE730F8223023F4804323F070031B041B0C83F48053EDE74B78AE
:201380000A780BB330F8223059060BD530F8223023F0F0031B051B0D43F4004343F0C0031C
:2013A00020F8223030F8223023F4E04323F040031B041B0C83F0300343F4004343F080039D
:2013C00020F822300020704730F822305B040BD530F8223023F0F0031B051B0D43F4404391
:2013E00043F0800320F8223030F8223023F4804323F070031B041B0C83F44053DCE70122BD
:201400000346A0F8402000200322A3F84400A3F84020704711B98023A0F84C30002070475D
:201420000020704700207047B0F8440080B2704700207047013300F580605B1000EB4202AF
:2014400003B9704731F8020B013B22F8040BF7E7F8B54A780546012A0E468C690B69887AFC
:201460005BD19C428ABFE21A00221C468A61A3B2496905F58067F8B9B2882846FFF7DAFF9E
:20148000B5F8503032789BB2023303EBC20347F81340327835F8223023F4E04323F04003F5
:2014A0001B041B0C83F0300343F4004343F08003002025F82230F8BD327835F822C0D00043
:2014C000B5F850201CF0400F92B2024402F1020247F81240284614BF3289F288FFF7AAFF6D
:2014E0007378327863B935F8223023F0F0031B051B0D43F4004343F0C00325F82230C8E7E0
:20150000012BC6D135F8223023F0F0031B051B0D43F4404343F08003EFE79C4294BF0021A3
:20152000E11AB16188BF1C46337858BBB5F850003E2C80B200F1060000EBC30005F580611E
:2015400018D9C4F34F12E40604BF02F1FF339AB22D4B43EA82239BB241F81030327835F87D
:20156000223023F4804323F070031B041B0C83F4405399E7C4F34F03E20744BF01339BB273
:201580009B02E8E7002AE9D1B5F850003E2C80B200F102004FEAC30705F5806100EBC300E3
:2015A0001BD9C4F34F12E30604BF02F1FF339AB2154B43EA8223B5F850209BB292B20632EA
:2015C0003E2C41F810303A440FD8C4F34F03E00744BF01339BB29B0211E0C4F34F03E207CF
:2015E00044BF01339BB29B02E5E7C4F34F10E40604BF00F1FF3398B2034B43EA80239BB263
:2016000041F81230AAE700BF0080FFFF013300F580605B1000EB420203B9704752F8040B12
:20162000013B21F8020BF7E74FF47A73B0FBF3F000224FF0E023013858619A6105221A61B9
:2016400070474FF0E0231B6982B00193019B4FF0E023411C18BF013008B902B070471A6957
:20166000D20348BF00F1FF30F6E70000014B1860704700BFAC0000202023038000487047C6
:201680006000002020230380004870474000002020230380004870478C0000200A23038084
:2016A000004870478000002010B5037C0446C3B94FF400730222012101F09DFE4FF4007343
:2016C00002228121204601F096FE4FF41B7001F0F3FEC4F8180258B1204600F0BCF80020A0
:2016E00010BD40230222012101F085FE4023E7E70120F5E710B50446012101F088FE812188
:20170000204601F084FE204600F0CDF8D4F8180220B101F0D5FE0023C4F81832002010BD44
:201720002DE9F0410B78074613F060050C46D0F818822DD0202D5DD14A78FE2A05D0FF2A16
:2017400019D000F054FE02251FE04D8885B9CE88012E0DD11A060BD5D0F81C329B699847C9
:201760003246C8F800004146384600F067FE0CE021463846E5E74A88002AF9D1CD88002DF2
:20178000F6D11B06F4D400F083F82846BDE8F0814E780A2E1CD00B2E1ED0012EF5D1097922
:2017A00001F03EFE3846217901F031FE94F90430002B3B7C16DA9BB94FF400730222812161
:2017C000384601F018FE3846217900F013F9DCE7012208F10401C8E78B78C8F80430D4E72B
:2017E0004023EBE723B94FF4007302223146E7E74023FAE70025C8E708B500F075F8002067
:2018000008BD08B500F08CF8002008BD09B1C0F81C120020704770B5D0F81852044695F848
:2018200018323BB9D5F8143223B16B7A13B9012101F0FFFD8121204601F0FBFD6B7A022BC0
:2018400008D1204605F503721F23BDE87040012101F023BE70BD70B50446D0F81852002061
:201860002881A5F85C02D4F81C321B6898470121204601F0D5FD8121204601F0D1FD2046D0
:2018800005F503721F23BDE87040012101F005BE4FF48073D0F81822012113811F2302F545
:2018A000037201F0FABD0022D0F818321A72704770B50C4BD0F818420546C4F82C3200236E
:2018C00084F83812237204F50B720D23812101F0DBFD284604F503721F23BDE87040012107
:2018E00001F0DBBD5553425310B5D0F8181204460B7A022B07D0033B012B0FD80021BDE881
:201900001040FFF7D5BF01F21B2291F8191200F099F8002802DA01212046F0E710BD000058
:2019200070B5D0F818420546267A16B1012E56D070BDD4F810320121C4F83032D4F81432CC
:20194000C4F8343201F0B2FD1F2894F819120BD1D4F80C22264B9A4206D1012904D894F83B
:201960001A32013B0F2B0BD920230522284600F077FA022363722846BDE87040FFF74BBFCB
:20198000284604F21B2200F05DF80028237A07DA052BF0D101212846BDE87040FFF788BFA8
:2019A000013B022BC4D961890029F4D0D5F818322846D3F8142283F83862914228BF11469E
:2019C000D3F83422521AC3F8342204221A728BB204F10C028121BDE8704001F055BD94F8F1
:2019E000191204F21B2200F02DF80028A0DAD1E75553424310B5D0F81842637A022B05D126
:201A0000812101F016FD0023637210BD0A06FCD5012BFAD0BDE810400121FFF749BF90F8E7
:201A20005D3210B500EBC3040133DBB2042B08BF0023120284F83C12C4F8402280F85D32C3
:201A400010BD00002DE9F743137806462F2B0D461746D0F818423DD8192B08D8032B5AD0D5
:201A6000122B00F08280002B3AD02022E8E11A3B152BFAD801A252F823F000BFA71B000807
:201A8000A11B00086B1A00086B1A0008A11B00086B1A00086B1A00086B1A00086B1A000870
:201AA000B71B00086B1A0008051C00086B1A00086B1A00083F1C00086B1A0008171D000850
:201AC0006B1A00086B1A00086B1A00086B1A0008371E00085A2BC8D10823C34A638165E0F6
:201AE000D4F81432002BC0D1D0F81C3208469B689847054650B13A220221D6F81802FFF729
:201B00008EFF052323724FF0FF3500E06081284603B0BDE8F0831222002104F10C0001F0C7
:201B2000AFFD702323730C2394F85D22E37494F85C329A4211D004EBC3020133DBB2042BC4
:201B400008BF002392F83C12A17392F84112217692F8402284F85C326276122363813B79A0
:201B6000122B98BF63810025D1E75378DB0714D4D0F81C321279D969242303FB05152B7995
:201B80000533934228BF13466381002BEBD0013B9BB2E95CE2181173F7E70723934DF3E720
:201BA00000206081DFE70823914A63811368E36053682361D7E70023E36023616361D0F843
:201BC0001C320DF1020228465B6801A99847054620B13A220221D6F81802C9E00823E3734E
:201BE000019B013B1A0E22741A0C6274E3741A0ABDF80230A2745BBA0222E3820C23A282EA
:201C0000638184E7D0F81C3204F25E2228465B6804F51871984705460028DAD1D4F86032DB
:201C20002082013B1A0E22731A0C6273E3731A0AB4F85E32A2735BBA63820823E0E7237ABA
:201C40006BBB94F91832002BBFF60FAFD0F81C3208469B6898470028BBD1D7F80220D6F830
:201C6000180212BAC4F86422B7F80730D0F860125BBA9BB29F188F42C4F8683276D802216B
:201C80002172B4F85E124A434B43C4F86422D4F81422C4F86832934201D0202267E04FF46E
:201CA00000736381D6F81842D6F81C02D4F86872B4F85E229F4228BF1F46B7FBF2F3D4F857
:201CC000641204F10C08B1FBF2F2D0F81090414628469BB2C847002802DA112204217AE77F
:201CE000BBB242468121304601F0CEFBD4F86432D4F868023B44C4F86432D4F83432C51BA2
:201D0000DB1BC4F86852C4F83432002D7FF42BAF03232372FBE6237A002B47D194F9183268
:201D2000002BFFF6A2AED0F81C3208469B68984700287FF44EAFD6F81C322846DB689847A9
:201D4000054608B1272245E7D7F80220D6F8180212BAC4F86422B7F80730D0F860125BBAEE
:201D60009BB2D7188F42C4F8683204D921220521FFF755FEC7E6B4F85E124A434B43C4F8D1
:201D80006422D4F81422C4F86832934285D1B3F5007F4FF0010128BF4FF40073304621722C
:201DA0009BB204F10C0201F078FBB0E6D4F86872B4F85E22B7F5007F28BF4FF40077B7FB89
:201DC000F2F3D4F86412D0F81C0204F10C08B1FBF2F2D0F81490414628469BB2C847002878
:201DE00008DA03227AE700BFA8360008B8360008B0360008D4F86432D4F868523B44C4F8CF
:201E00006432D4F83432ED1BDB1BC4F86852C4F8343225B929463046FFF74AFD77E6B5F55D
:201E2000007F28BF4FF40075424601213046ABB201F033FB97E6787810F0020003D0242260
:201E40000521204694E7D4F86422B4F868321344D4F8602293427FF6A4AE2122F0E700BFC9
:201E600010B5D0F818021B0290F85D1200EBC1040131C9B20429C4F8403208BF002384F889
:201E80003C2214BF80F85D1280F85D3210BD08B580B1D0F8143213B10023C0F8143209B1BB
:201EA000C0F810120123027080F8FC3101F062FA002008BD0220FCE719B1C0F8141200200E
:201EC00070470220704708B501F08CFA002008BD08B5D0F814320BB9022008BD1B68984781
:201EE0000028FAD0F8E708B5D0F814325B689847002008BD38B500F502750446284600F0BE
:201F000062FA012394F80812C4F8F431B4F80E32C4F8F83101F01F03012B08D0022B0BD0CA
:201F20007BB92946204600F0D9F8002038BD2946204600F0CDF9F8E72946204600F0E0F9BA
:201F4000F3E7204601F0800101F073FAEDE758B50446164601BBD0F8F431032B0DD1D0E97C
:201F600043239A420BD9D21A9A42C0F80C2128BF1A46314692B200F076FA002058BDD0F82F
:201F800014321B6923B190F8FC21032A00D19847204600F070FAF0E7D0F814329B69002B4D
:201FA000EBD090F8FC21032AE7D19847E5E7F8B5044613460F4600293DD1D0F8F421022A4C
:201FC0000FD1D0E90756B54214D9AD1B1946C561AAB200F040FA3B461A461946204601F0BD
:201FE0005CFA94F80032012B02D1002384F800320020F8BD8369B3FBF6F506FB153565B93A
:202000009E420AD8D0F8F821934206D22A4600F022FA2B46C4F8F851DEE7D4F81432DB6864
:202020002BB194F8FC21032A01D120469847204600F02CFAD5E7D0F814325B69002BD7D0FB
:2020400090F8FC21032AD3D19847D1E7002238B5044640251146402301F0CDF92B460022B1
:2020600080212046C4F8105101F0C5F9012384F8FC31D4F8183225622BB1D4F814322046CF
:202080005B6821799847002038BD01740020704790F8FC3180F8FD31042380F8FC3100205C
:2020A000704790F8FD3180F8FC310020704708B590F8FC21032A04D1D0F81432DB6903B1CD
:2020C0009847002008BD10B50446802101F0B1F92046BDE81040002101F0ABB937B54B7871
:2020E00004460D46092B76D8DFE813F0C900E5007500D90075006D000A007500B9008D0054
:202100004B881A0A013A062A65D8DFE802F0041C296464495200D0F810321B68207C0DF194
:2021200006019847BDF80620002A67D0EB88002B64D09A4228BF1A460146ADF80620204610
:2021400000F07CF95AE0027CD0F8143232B99B6A0DF10600984702234370E3E7DB6AF7E7BC
:20216000DBB2052B37D8DFE803F003070B0F1317D0F810325B68D1E7D0F810329B68CDE745
:20218000D0F81032DB68C9E7D0F810321B69C5E7D0F810325B69C1E7D0F810329B69BDE7E0
:2021A000037CC3B9D0F814320DF106005B6B9847B8E7037C7BB9D0F814320DF106001B6B83
:2021C00098470723C8E78B882BB9CB881BB990F8FC31032B03D12046FFF775FF0EE04D88DF
:2021E00005F07F05294680F8FE5101F044F9204600F041F92DB1022384F8FC31002003B0F3
:2022000030BD0123F8E78978304D01292970E2D890F8FC31022B0CD0032BDCD1B1B90223AB
:20222000416080F8FC31FFF75EFE204600F023F9E4E70029F9D001210323416080F8FC3149
:202240002046FFF745FE0228EFD1C4E741680129EBD0C9B2FFF747FE29786160F0E7CA887B
:20226000012AB8D190F8FC31022B03D0032BB2D1011D64E70146002341F8083F5FE790F823
:20228000FC31023B012BA6D80123C360D0F804320BB10323C360022204F10C014FE74B88B1
:2022A000012BABD1C4F80432D4F81432294620469B689847B9E790F8FC31023B012B8AD89B
:2022C0004B88012B9AD10023ECE700BF6001002038B590F8FC310446032B0D460DD10B798F
:2022E000012B0AD8D0F814329B689847EB8813B9204600F0C0F8002038BDFFF7E4FEFAE7C5
:2023000070B50A78044602F06002202A0D468E880B7905D1D0F814329B689847002070BD2E
:202320004A78012A3AD0032A1DD0002AF6D190F8FC21022A41D0032A1BD103F07F0500EB3E
:202340000515320619464CBF143505F5827501F082F8003818BF012002222860294620466B
:2023600000F06CF8DAE790F8FC21022A25D0032A03D02046FFF7A7FED0E74A8822B95A06BD
:2023800002D0194601F055F8D4F81432294620469B689847204600F06EF8BFE790F8FC21FE
:2023A000022A0AD0032AE4D14A88002AB6D15E06F0D0194601F046F8E6E75906AED01946F7
:2023C00001F037F8AAE70B7803704B784370CA788B7803EB022343804A790B7903EB02236B
:2023E0008380CA798B7903EB0223C380704710B50446802101F01DF82046BDE81040002154
:2024000001F017B830B588B10024013823460134055D002DFAD1DBB201335B0013800B705F
:2024200003234B70022310F8014F04B930BD5A1CCC54D2B20233DBB28D54F4E7134602227F
:2024400010B5C0E90633C0F8F4210A46002101F01BF8002010BD08B513460A46002101F02E
:2024600013F8002008BD08B513460A46002101F014F8002008BD08B50423C0F8F43100231F
:202480001A46194601F000F8002008BD08B50523C0F8F43100231A46194600F0FEFF0020FE
:2024A00008BD00000346F0B501F120020C7804311C7011F8034C043303F8034C11F8024CE0
:2024C00003F8024C11F8014C914203F8014CEDD108261A4A1A4F16F0070C037F457F847F27
:2024E000C17F23D112F805C0155D545CD15CF308FB5C8CEA030390F800C0013683EA0C03C1
:2025000080F8203043783C2E85EA0305837880F8215084EA0304C37880F8224081EA03017A
:2025200080F8231000F10400D5D1F0BDBCF1040F01BFD35C555D145D515CDCE7CA3600085E
:20254000BF360008F0B500010C1D1431231F16181D7816F8017B7D4003F8015BA342F7D11A
:202560001C1D8C4200F10400F0D1F0BDFFF79ABFF03001F1100351F8042B994240F8042BC3
:20258000F9D170477FB5024603466D4600F110062C4618685968083303C4B3422546F7D15E
:2025A000DDE90201DDE90064C308E50745EA560583EA940300957340C50745EA540583EADA
:2025C000D01383EA51130195CD07490841EAC37303936C46134645EA5005029504AD224656
:2025E00003CAAA4218605960144603F10803F6D104B070BD2DE9F04F05460F464FF00008B4
:2026000087B00192019B984502D307B0BDE8F08F02AA164605F1F00305F5807C1446186806
:202620005968083303C463452246F7D131462A460020FFF787FF01260023002202ACE11869
:202640000878DFF850C101321CF80000042A01F8040BF5D10133042BEFD19DF80D209DF855
:2026600009308DF809209DF811200E2E8DF80D209DF815208DF815308DF811209DF81220AE
:202680009DF80A308DF80A209DF816208DF812309DF80E308DF80E209DF817208DF816300D
:2026A0009DF80B308DF80B209DF813208DF817209DF80F208DF80F308DF8132051D04FF076
:2026C0000009227894F801C0A178E07882EA0C0B4FEADB1381EA000A03EB43038BEA0A0EB9
:2026E00003EBC30383EA4B0B82EA0E038BEA030B84F800B08CEA010B4FEADB1303EB43035A
:2027000003EBC30383EA4B038CEA0E0C83EA0C0363704FEADA1303EB4303424003EBC303DB
:2027200083EA4A0AD30903EB430303EBC30381EA0E0183EA420380EA0E0009F101098AEAF8
:2027400001015840B9F1040FA170E07004F10404B7D130462A4602A90136FFF7F3FEF6B2E5
:202760006AE721462A463046FFF7ECFE7B1E07F10F0113F8010F14F8012B994282EA00029E
:202780001A70F6D105F1F000FFF7FCFE08F1100838E700BFCA3600081A4A73B553691A4C6D
:2027A00043F040035361536903F040030193019B0123A36021F003030344984210D1206805
:2027C00090FAA0F0114D01F0030119448B420DD1C043536900BA23F04003536102B070BD22
:2027E00050F8045B95FAA5F52560E6E713F8014B6040082400F00106400806B16840013CB9
:20280000F8D1E3E700100240003002402083B8ED01490248FFF7AABEDA370008610100208C
:202820002DE9FF416B460D460026194604462848C2F30728C2F3074E4FEA126C07780136A4
:2028400057401F704778042E88EA07075F70877803F104038EEA070703F8027CC77800F1E9
:2028600004008CEA070703F8017CE7D1DDE90076DDE902204FF0650C0CF1FF3313F0FF0C8F
:202880000ED1CDE902201348CDE90076FFF770FE2A4621460F48FFF7ADFE04B0BDE8F081FD
:2028A000D30883EA96037B404FEAC67E83EAD21383EA50134EEA57074FEAC27E4EEA56063A
:2028C000DB074FEAC07E4EEA520243EA5000D3E7CA370008610100202DE9F04387B00E467D
:2028E00014460546FDF73CFD00F014FA30B1102C7AD12A4621463046FFF792FF3B4B9D4267
:2029000010D10027302301A902A8CDE9017704950593FDF7CDFD50B1FDF734FD384607B090
:20292000BDE8F08344D3324B62199A4240D815F0030019D0C0F10407A7424FF0FF33A8BF0E
:202940002746029302AB31463A4625F00308184400F088FEE41B002341460220029A3E44F6
:202960003D44E4B2FDF742FD3746A046A5EB0609B8F1030F09EB070107F104071AD8A208B5
:20298000C2EB821204F0FC0004EB820414F0FF0206EB000105440BD04FF0FF3302A80293C6
:2029A00000F060FE002329460220029AFDF71EFD0127B1E717F8043C02208DF8083017F86D
:2029C000033CA8F104088DF8093017F8023C5FFA88F88DF80A3017F8013C8DF80B30029AC8
:2029E0000023FDF703FDC3E7002797E70040000800000108C1F3080238B50346002A40F0D2
:202A0000318111B1B1F5406F7FD14FF400720021184600F035FEEB220270FE224270902243
:202A2000914982700A680346C0F803204A687C24C0F80720022100220173C2729C731124D2
:202A4000DC73F8245C753F241C761C77272483F820401C2483F821404224012083F824400A
:202A60004FF0FF35072419745A76DA765A779A77DA7783F8232083F8262083F8272083F81C
:202A80002C1083F82D2058739D7683F8220083F8254083F82E2083F82F2083F8312083F8FD
:202AA0003320802283F84020292283F84220232283F843201E2283F844206FF04E0283F8B2
:202AC00045206FF06B02062183F84620674A83F83210116883F83000C3F847105168C3F8A5
:202AE0004B101189927AA3F84F10614983F851200A68C3F852204A68C3F85620552283F8D1
:202B0000FE21AA2283F8FF2138BDB1F5007F02D0B1F5606F2ED14FF400720021184600F0AB
:202B2000AFFD52210346017041706121817083F8E7115F2183F8E8116FF03301412083F8C2
:202B4000E911052100227224D87083F8E60183F8EC110120082183F8E44183F8E54183F875
:202B6000EA0183F8EB2183F8ED1183F8EE2183F8EF21C3E7B1F5806F02D0B1F5805F0DD1E1
:202B80004FF400720021184600F07AFD552280F8FE21AA2280F8FF210120B5E7A1F50B12B8
:202BA000A2F56052B2F5085F06D3A1F54510A0F57050B0F5085F36D290082E4A914212D1CB
:202BC0004FF0FF322C49C3E900126FF07042C3E9022243F8102F062281180132812A43F81D
:202BE000041FF9D1D8E7254A9142A3F1040211D1012144180131052942F8044FF9D16FF0D7
:202C0000704200211A614FF4F67203F1140000F037FDC1E71346012281180132812A43F8B9
:202C2000041FF9D1B8E7B1F5800F4FF400724FF000011846EBD100F023FD0C4A1168016084
:202C4000516841601189927A0181827208226FF06301C2725022017442748174C27401769E
:202C6000427699E700204FE7FA370008033800080F38000800F82200F8FFFF0F00182300A1
:202C800038B5C1F308030446FBB9B1F5800F01D2012038BD10D100F50075237A482B07D139
:202CA000637A452B04D1A37A582B01D100F012F82034AC42F1D1EBE7054800F025F84FF413
:202CC0000071204600F02CF8E2E70020E1E700BFD92800080023064A1370064A1380064A67
:202CE0001380064A1370064A1370064A1370704775030020640200206202002072030020DA
:202D00007002002073030020014B1860704700BF6C020020014B1878704700BF70020020DF
:202D20002DE9F843002507466A4EDFF8AC9100EB0108B84502D10120BDE8F88317F8013BB4
:202D4000002BF8D03478CCB9644A0D2B1470644A1470EED00A2BECD03A2B35D1614BFF22CC
:202D60001C70614B21461C70604B61481C8000F087FC0123A9F800403370DAE7621ED1B259
:202D80000A2913D8A3F13005EDB2092D05D9A3F14101052914D8373BDDB25149554B0878EE
:202DA00080F0010CA0B91D7081F800C00A2A0BD8DFE802F017171F1F1F1F2529364A4C00E3
:202DC000A3F16101192901D90020B5E7573BE3E742481B7890F800E045EA031373440370D5
:202DE000E2E7404A137845EA03131370013434709FE73E4A138845EA03131380F6E7002DC9
:202E0000E2D10823B8E7052D01D90E2DDCD1364B1D70344B1B780BB90A23ADE70923ABE7DE
:202E2000B9F800303248C3F34701425C013345EA021242542B4A9BB21278A9F80030B2EBD4
:202E4000530F3FF676AFE7E70B2395E7254BB9F800201B78B2EB430FB6D1204B19780029CF
:202E6000B2D1214B1B78022B08D1214B224A1B885BBA1380214B01221A7008E0042B08D19E
:202E80001B4B1D4A1B885BBA13801C4B1970002372E7B3B91A4B1B68002BF8D0174C1649A5
:202EA000124824780988008844B100EB01101049C2F3470298470028E9D185E740EA014023
:202EC000F5E70E2B01D10F4BD5E7012B04BF0E4A1370DCE7750300207003002067020020B4
:202EE00068020020660200207403002064020020710200207603002062020020720300205E
:202F00006C0200207002002073030020014B1878704700BF730300200A4B1A68013A0332CC
:202F20000ED95A68013A03320AD99A68013A033206D9D8680138C31C8CBF002001207047A9
:202F4000012070470040000808B54BF6FC710548FFF722FC044BD3F8FC3F1B1A58425841C8
:202F600008BD00BF0040000800F00008024B9868C04300F0010070470008014080B54FF4D4
:202F8000FA70FEF75EFB2448FDF764FB2348244A92FAA2F1B1FA81F192FAA2F7B7FA87F751
:202FA00092FAA2F6B6FA86F692FAA2F5B5FA85F592FAA2F4B4FA84F492FAA2F20F238A0051
:202FC00003FA02F24368B90023EA020301228A4013430322B1008A4023EA02030222A900C8
:202FE0008A4013430422A1008A4023EA020343604FF4805343614FF47A70FEF722FBBFF3C0
:203000004F8F0849084BCA6802F4E0621343CB60BFF34F8F00BFFDE7A00500200008014002
:203020001000100400ED00E00400FA05264A10B51368264C23F0070343F001031360136838
:20304000236823F0F80343F080032360236843F00103236023689A07FCD5636823F47C13EB
:2030600043F420136360236843F08073236023689B01FCD5636823F0F0036360636823F481
:20308000E06343F480636360636823F460536360636823F0030343F002036360636803F01B
:2030A0000C03082BFAD10A48FEF7BEFA4FF0E0221369074843F004031361FEF7D7FA6368B9
:2030C00043F48003636010BD0020024000100240006CDC027FB5FDF793F8FFF7A7FF002336
:2030E000CDE9033303F1804303F504339A69264842F004029A619B6940F2011203F0040317
:203100000093009B0823CDE90123012301A90593FDF72FFEFFF700FF60B9FFF779FB00F08D
:2031200099F8FFF7F3FE0028FBD00022174B1A60FFF724FFFFF71AFF0028EED1FFF704FF1E
:203140000028EAD0114B1A68114B9A42E5D0114C114D63682B60FDF71FF84FF0FF320F4BDC
:20316000C3F88020C3F88420C3F88820C3F88021C3F88421C3F88821C3F8084C236883F302
:2031800008882B689847FEE700080140FC4F002078563412004000087803002000E100E0DC
:2031A000704700000E4B82B09A6942F001029A619A6902F001020092009ADA6942F080522F
:2031C000DA61DB69074A03F080530193019B536823F0E06343F00073536002B0704700BF97
:2031E00000100240000001407047FEE7FEE7FEE7FEE7704770477047FDF714B80148FDF7CF
:20320000CBBA00BFA00500200F4B1A6842F001021A6059680D4A0A405A601A6822F0847274
:2032200022F480321A601A6822F480221A605A6822F4FE025A604FF41F029A604FF0006207
:20324000034B9A60704700BF001002400000FFF800ED00E008B500220E490F48FEF717FE03
:2032600008B1FFF79DFF0D490B48FEF725FE08B1FFF796FF0A490848FEF7C8FA08B1FFF7F5
:203280008FFF0548FEF71FFE18B1BDE80840FFF787BF08BDB00000207C03002008000020F3
:2032A0000001002003289ABF014B185C022070471838000807B50E4B02689A4215D103F53F
:2032C000DA33DA69142042F40002DA610022DB69114603F400030193019BFCF7C7FF142023
:2032E00003B05DF804EBFCF7F3BF03B05DF804FB005C004000F22C41D0F85C04FEF7FABD5C
:2033000000EB4113D3F83C22D0F85C04FEF71FBE00EB4113DA6BD0F85C04FEF748BED0F8DC
:203320005C04FEF7C4BE836810B5022B044601D0FFF736FFD4F85C040121FEF7A6FED4F8E0
:203340005C04BDE81040FEF781BE000010B50446D0F85C04FEF79CFEA36923B1024A136976
:2033600043F00603136110BD00ED00E0D0F85C04FEF797BE082310B5184A04461848C0E9EC
:203380000023022383600023C0F85C44C4F82002C0E906330362FDF7DFF808B1FFF700FFE9
:2033A000002218231146D4F82002FDF7C9FC582300228021D4F82002FDF7C2FC98230022F7
:2033C0008121D4F82002FDF7BBFCD82300220121D4F82002FDF7B4FC002010BD005C004058
:2033E000A005002008B5D0F82002FDF71CF9BDE80840FFF757BF10B51446D0F820021A46F6
:203400002346FDF753F9BDE81040FFF74BBF08B5D0F82002FDF76DF9BDE80840FFF742BF29
:2034200008B5D0F82002FDF772FCBDE80840FFF739BF08B5D0F82002FDF71EFCBDE8084006
:20344000FFF730BF08B5D0F82002FDF73DFCBDE80840FFF727BF0A06D0F8203245BF01F0CB
:203460007F0103EB411103EB411191F82A0058BF91F82A02704708B5D0F82002FDF702F980
:20348000BDE80840FFF70EBF08B5D0F82002FDF76DF9BDE80840FFF705BF08B5D0F820022D
:2034A000FDF748F9BDE80840FFF7FCBE08B5D0F82002FDF754F908BD00487047000A002064
:2034C00070477047122301480B807047CC000020042301480B807047E0000020002370B5D8
:2034E0001E464D1C040FB0F1204F34BF3034373401F8134005F813600133DCB2A2424FEA7F
:203500000010EFD870BD00001A2310B50B800A4BD3F8E807D3F8F02780180AD0D3F8EC47B9
:2035200006490822FFF7DAFF042220461031FFF7D5FF034810BD00BF00F0FF1FE6000020C1
:20354000E400002010B5044C0A4604482146FEF759FF204610BD00BF700C00201C38000818
:2035600010B5044C0A4604482146FEF74BFF204610BD00BF700C00202F38000810B5044CE2
:203580000A4604482146FEF73DFF204610BD00BF700C00204238000810B5044C0A46044836
:2035A0002146FEF72FFF204610BD00BF700C00204D380008002070474FF470330B604FF4FB
:2035C000007300201380704700207047F8B50E461D4600245702A5424FEA442106EB44207C
:2035E00001D80020F8BD3944FFF74AFB0134F2E7F8B50E461D4600245702A5424FEA4421F1
:2036000006EB442001D80020F8BD3944FFF7F2F90134F2E7002070470020704770B5002642
:203620000C4D0D4C641BA410A64209D100F030F800260A4D0A4C641BA410A64205D170BDDA
:2036400055F8043B98470136EEE755F8043B98470136F2E780380008803800088038000838
:20366000843800080A44914200F1FF3300D1704710B511F8014B914203F8014FF9D110BDEB
:2036800003460244934200D1704703F8011BF9E7F8B500BFF8BC08BC9E467047F8B500BF5C
:2036A000F8BC08BC9E46704700060000000000000000000000000000000000030080838D5E
:2036C00001020408102040801B36637C777BF26B6FC53001672BFED7AB76CA82C97DFA599A
:2036E00047F0ADD4A2AF9CA472C0B7FD9326363FF7CC34A5E5F171D8311504C723C318960D
:20370000059A071280E2EB27B27509832C1A1B6E5AA0523BD6B329E32F8453D100ED20FCFF
:20372000B15B6ACBBE394A4C58CFD0EFAAFB434D338545F9027F503C9FA851A3408F929D64
:2037400038F5BCB6DA2110FFF3D2CD0C13EC5F974417C4A77E3D645D197360814FDC222A07
:20376000908846EEB814DE5E0BDBE0323A0A4906245CC2D3AC629195E479E7C8376D8DD50F
:203780004EA96C56F4EA657AAE08BA78252E1CA6B4C6E8DD741F4BBD8B8A703EB5664803B3
:2037A000F60E613557B986C11D9EE1F8981169D98E949B1E87E9CE5528DF8CA1890DBFE6BC
:2037C000426841992D0FB054BB16845EF4233683408E832274CFF1F007CC2976DEF02AF4AD
:2037E0004ED7BE871EA9DAB25B243ACA6638A7F64445B12C5E86CB73BA2F4D53444F533522
:203800002E3000424F4F544C4F4144455220004641543332202020000002010253544D693D
:2038200063726F656C656374726F6E6963730053544D3332204D6173732053746F7261670C
:2038400065004D534320436F6E666967004D534320496E7465726661636500008002021F73
:2038600000000053544D202020202050726F64756374202020202020202020302E303100F4
:20388000310100080D0100080100000010000000A9160008F51600082117000800000000AD
:2038A00000000000F917000803180008000000000000000000000000791600088516000893
:2038C000911600089D16000809022000010104C0320904000002080650050705810240001A
:2038E000000705010240000009022000010104C03209040000020806500507058102000253
:2039000000070501020002000A060002000000400100000009072000010104C0320904000E
:20392000000208065005070581024000000705010240000000A24A04C5340008D134000806
:203940004535000861350008093500087D35000899350008120100020000004083042A5714
:203960000002010203010000040309041A030000000000000000000000000000000000000D
:203980000000000000000000B5350008B93500081936000815360008F1350008CD3500085D
:0839A000C93500085B3800087E
:20400000FC4F0020196A00082159000823590008255900082759000829590008000000000C
:204020000000000000000000000000002B5900082D590008000000002F5900083159000844
:20404000616A0008616A0008616A0008616A0008616A0008616A0008616A0008616A0008C8
:20406000616A0008616A0008616A0008616A0008616A0008616A0008616A0008616A0008A8
:20408000616A0008616A0008616A0008616A000821610008616A0008616A0008616A0008D1
:2040A000616A0008616A0008616A0008616A0008616A0008616A0008616A0008616A000868
:2040C000616A0008616A0008616A0008616A0008616A0008616A0008616A0008616A000848
:2040E00039590008616A0008616A0008000000000000000000000000000000000000000080
:2041000000000000000000005FF808F110B5054C237833B9044B13B10448AFF3008001230D
:20412000237010BD4020002000000000246E000808B5034B1BB103490348AFF3008008BDB0
:204140000000000044200020246E0008012919D0194B9A6822F480429A60DA6842F48042BC
:20416000DA60C8B1144B4FF480425A615A691A6842F480421A60114B4FF48072C3F88421C5
:204180005A6070470C4BDA6822F48042DA609A6842F480429A60E4E7074A136823F480439E
:2041A0001360064B4FF48072C3F88420BFF34F8FBFF36F8F704700BF0004014000E100E0EB
:2041C00008B50121FFF7C2FF08BD08B50021FFF7BDFF08BD10B4174C174B93FAA3F1B1FADA
:2041E00081F193FAA3F2B2FA82F293FAA3FCBCFA8CFC93FAA3F389000F2303FA01F1636809
:2042000023EA01039200012101FA02F213434FEA8C0104228A4023EA0203636020B14FF4F5
:204220000052226110BC7047024B4FF400525A61F8E700BF000C01402000200410B4174C33
:20424000174B93FAA3F1B1FA81F193FAA3F2B2FA82F293FAA3FCBCFA8CFC93FAA3F3890066
:204260000F2303FA01F1636823EA01039200012101FA02F213434FEA8C0104228A4023EA85
:204280000203636020B14FF48052226110BC7047024B4FF480525A61F8E700BF000C014062
:2042A00010001004024B9868C0F38030704700BF000C0140024B9868C0F34030704700BF81
:2042C000000C01401249134B93FAA3F2B2FA82F293FAA3F3B3FA83F392000F2090404A680D
:2042E00022EA00029B00082000FA03F313434B60CB684FF4842292FAA2F2B2FA82F223F489
:204300008423012000FA02F21343CB60704700BF000C0140200020040B480C4B93FAA3F293
:20432000B2FA82F293FAA3F3B3FA83F392000F219140426822EA01029B00042101FA03F31A
:2043400013434360704700BF000C0140400040040F49104B93FAA3F2B2FA82F293FAA3F305
:20436000B3FA83F392000F2090404A6822EA00029B00082000FA03F313434B60CB6823F4CB
:2043800088234FF4882292FAA2F2CB60704700BF000C01404000400482B00023019380B1D9
:2043A00091B1431E0139014413F8012F92FAA2F20192019A120E1A708B42F5D1002002B043
:2043C00070474FF0FF30FAE70020F8E798B500AFCB1D03F4FC73ADEB030D89B16A46013AC1
:2043E0000C189446034613F801EB0CF801EFA342F9D1014412F8013F01F8013D8142F9D189
:20440000BD4698BD2DE9F84380460D46214B5C68B2F1FF3F0ED104460544AC4208D001F0A0
:2044200077FF0028F9D001F087FF04F8010BF4E7002029E0164602F0B5FB174BA3FB002371
:204440009B0903FB06F60EB315B30027DFF844900BE001F071FF08F807000137BFB208E07F
:204460006BB1AF420BD21E46144601F051FF0028EFD1D9F80420A31A3344B342F0D9AF4293
:204480000CBF00206FF00200BDE8F8830027F6E70020F9E7001000E0D34D6210F8B5064631
:2044A0000D46164B5B68B2F1FF3F0CD121B3002401E0AC4220D2305D01F08AFF0028F8D017
:2044C0000134A4B2F5E7144602F06CFB0C4BA3FB00239B0C04FB03F375B16BB10024074F52
:2044E00002E07B68AC4207D2305D01F071FF0028F7D00134A4B2F4E7F8BD00BF001000E089
:2045000083DE1B4300B583B0244B5A6942F040025A615B6903F040030093009B204B0122DD
:204520009A605FEA910C16D000EB8C0C1A4650F8043B93FAA3F3019313608445F7D1184B2D
:204540001B6893FAA3F3019311F0030115D00CEB0100144903E08446F1E760450CD01CF8C8
:20456000012B5340082213F0010F14BF81EA53035B08013AF7D1F0E70193019BDB4301938C
:20458000064A536923F04003536104210DEB0100FFF71CFF019803B05DF804FB00100240E4
:2045A000003002402083B8ED104BD3F8FC2022F08072C3F8FC20D3F8FC2042F08072C3F85E
:2045C000FC20A3F55D431A6822F001021A601A6842F001021A6000225A6000BF00BF00BF2C
:2045E0005868B0FA80F04009704700BF00ED00E038B50446074B5D6802F0D4FA064BA3FB58
:2046000000239B0C03FB04F4024A53685B1BA342FBD338BD001000E083DE1B4338B54FF4D6
:204620007A7400FB04F4084B5D6802F0BBFA074BA3FB00239B0C03FB04F4034A53685B1BAC
:20464000A342FBD338BD00BF001000E083DE1B4308B5264A136823F0070343F002031360D4
:20466000136803F00703022BFAD1214A136843F480331360136813F4003FFBD01C4A5368DA
:2046800023F47C1343F4E8135360136843F080731360136813F0007FFBD0154B5A6822F07F
:2046A000F0025A605A6822F4E06242F480625A605A6822F460525A605A6822F0030242F013
:2046C00002025A601A46536803F00C03082BFAD1084802F067FB0F2002F0C4F9044A536876
:2046E00023F4404343F40043536008BD002002400010024000A24A0480B58AB002F0D8F958
:20470000FFF7A6FF5B4BDA6942F40002DA61DA6902F400020092009A0025089509959A69D8
:2047200042F010029A619A6902F010020192019A9A6942F020029A619A6902F02002029208
:20474000029A9A6942F004029A619A6902F004020392039A9A6942F008029A619B6903F029
:2047600008030493049B44484FF400534361DFF80C910C23C9F81430414F4FF440537B6148
:20478000DFF80081CDF81480012406940223079305A902F077FA40F60C43059306940326F9
:2047A0000796089505A9484602F06CFA364B059306940796089505A9384602F063FACDF8FE
:2047C0001480069407960895099405A9384602F059FA2E4B05930423069305A9384602F074
:2047E00051FAFFF7E1FE0695DFF8A480D8F814304FF4706696FAA6F2B2FA82F223F47063A4
:2048000004FA02F21343C8F814304FF4804305938DF81A4005A802F0CBF91E4BDB681E4B57
:2048200083F82853FB6823F488234FF4882292FAA2F2FB60D8F8142096FAA6F3B3FA83F3A5
:2048400022F470629C401443C8F8144001F012FD4FF0FF360125662404E0324629462046D4
:20486000FFF71CFE01F000FE0028F6DB01F07CFEF8E700BF0010024000100140000801404B
:20488000000C01402000200410001004400040040000014000ED00E000E100E070B50546A0
:2048A00000240126FFF7FEFC40B93046FFF7A0FE0134AC42F6D34FF0FF3000E0002070BD33
:2048C00070B500210846FFF741FC0020FFF7B6FC0020FFF77FFC6420FFF7A0FE444B1B787E
:2048E000012B1CD0FFF734FD0120FFF7A7FC404B1B78012B16D04FF42A70FFF7CFFF0028C6
:2049000074DB4FF488640125FFF7CCFC012827D12846FFF76DFE013CF6D1902065E0FFF756
:20492000FBFCE1E74FF4FA70FFF762FE0120FFF751FCC820FFF75CFEFFF7B4FC012801D079
:20494000902052E04FF488640125FFF7ABFC012806D12846FFF74CFE013CF6D1912044E0FC
:20496000234B1B78012B30D00220FFF741FE0120FFF730FC3220FFF73BFE0020FFF72AFCB3
:204980001C4C0923A370102363700120FFF718FC1949CB681A0402F40022DB4303F0080358
:2049A00013430B610A20FFF723FEA3780D2B16D0124C01260F4D3046FFF71AFEAB780D2BFB
:2049C0000DD0013CF7D192200FE00020FFF702FC0820FFF70DFE0120FFF7FCFBCAE7054B08
:2049E000DB78552B0CBF0020932070BD9020FCE7F446002004000020000801403F0D030070
:204A00002DE9F0478946254B03F50052D0625B78102B09D0B9F1000F10D000271F4DDFF8A4
:204A2000808005F5005A19E04FF4FA70FFF7E0FDF0E700201B4B9862BDE8F0870020FBE734
:204A4000D8F80030BB4201D8C8F800700020FFF7B7FB0137CAF828704F45EAD00120FFF791
:204A6000AFFB20236B700A23AB700020FFF7B2FBAB780D2BE4D00C4C01263046FFF7B8FDB4
:204A8000AB780D2BDCD0013CF7D10020FFF798FB0120FFF79FFB4FF0FF30CDE7040000206A
:204AA00000000020042000203F420F0070B51B4BD87003F50052D91CD1625B78102B21D0BE
:204AC0000120FFF77DFB154C202363700A23A3700020FFF77FFBA3780D2B18D0104C012642
:204AE0000E4D3046FFF784FDAB780D2B0FD0013CF7D10020FFF764FB0120FFF76BFB4FF0FE
:204B0000FF300AE04FF4FA70FFF772FDD8E70020FFF756FB0020034B986270BD040000208B
:204B20003F420F00042000202DE9F04780461E4B5B78202B09D0B8F1000F10D000271A4D08
:204B40004FF0100A4FF0090911E04FF4FA70FFF74FFDF0E70020154B9862BDE8F08700203E
:204B6000FBE7013705F500539F624745F2D085F801A085F802900020FFF72CFB0120FFF7FE
:204B80001FFBAB780D2BECD0094C01263046FFF72FFDAB780D2BE4D0013CF7D1002F14BFBA
:204BA00001200420D9E700BF04000020042000203F420F00F8B5614B1B784BB16049CB6875
:204BC0001A0402F40022DB4303F0080313430B615C4B5B78102B55D15A4B9B78092B33D0F7
:204BE0005749CB681A0402F40022DB4303F0080313430B61534B03F50052946A9B78092BA1
:204C000028D0514B1B682BB94E4B0B229A704F4B00221A70FFF74EFB4B4A13684B499840C8
:204C20000D782843087001331360072B06D9454B9B780C2B18D0434B0C229A70434B1A78AC
:204C4000404B2344DA70F8BD0120FFF7BEFAFFF739FBC5E7A2F500530A229A703A4B0022F7
:204C60001A603A4B1A78EBE74FF488650126FFF719FB012836D13046FFF7BAFC013DF6D119
:204C8000FF22DDE7324BDE6A9F6A324B1B68072B15D9304B00221A602A4B9B780A2B05D197
:204CA000284B0B229A702B4B00221A60F35D13F0010F14BF01200020FFF78CFA05E0214AF5
:204CC00092780A2AECD0002BF0D04FF488640125FFF7E8FA012812D12846FFF789FC013C90
:204CE000F6D1B0E70120FFF775FA0020FFF76DFA0520FFF77DFC134B0D229A709EE7154B43
:204D00001B68062B0AD8F25D013342FA03F313F0010F14BF01200020FFF75CFA0D4A136803
:204D200001331360072B8ED90120FFF753FA1920FFF75EFC034B0D229A7084E765200020AF
:204D400000080140040000205C20002064200020042000206020002038B5214DEB681A04F6
:204D600002F40022DB4303F0080313432B610820FFF79CFE0446EB681A0402F40022DB4374
:204D800003F0080313432B610120FFF7CDFE0443144BDB78882B20D1124D134B18685968B6
:204DA0009A68DB68C5F80300C5F80710C5F80B20C5F80F301021E81CFFF722FE0443642020
:204DC000FFF72CFC0120FFF7AFFE2043EB7813F0C00F18BF4FF0FF3038BD4FF0FF30FBE7CF
:204DE00000080140040000203C6E000870B5FFF767FD064608B1304670BDFFF7E1F929492B
:204E0000CB681A0402F40022DB4303F0080313430B610520FFF7ECFB234B5B88012B1CD0E0
:204E20000220FFF743FE064640F291140125FFF739FAA8B92846FFF7DBFB013CA4B2002C4D
:204E4000F5D11849CB681A0402F40022DB4303F0080313430B619126CDE7FFF77DFFCAE756
:204E600033240125FFF71EFA012812D12846FFF7BFFB013CA4B2002CF4D10A49CB681A0455
:204E800002F40022DB4303F0080313430B619126B1E70220FFF748FE06430020FFF790F987
:204EA000A9E700BF00080140F8460020F8B51F4B5F6897B35B889BBB1C4B1E89B6F5005F83
:204EC00031D81B4D4FF400520021284601F0A2FFA5F1080425F8046C002325F8083C04F5FF
:204EE0000054124BDB68C4F8483432463946284601F082FFD4F848340BB90020F8BD314657
:204F00002846FFF7FFFA05F5FF531833D3F84834181A18BF4FF0FF30F0E74FF0FF30EDE7C6
:204F20004FF0FF30EAE74FF0FF30E7E7F8460020AC2200202DE9F84F274A1388C3F3870AFA
:204F4000B2F804904B44B3F5005F3CDCB9F11F0F8CBF4FEA59194FF00109204B03EB4A1893
:204F6000002637461E4CA4F1050B45460FCD20606160A260E3600FCD20616161A261E3612C
:204F80000920FFF793FD05460AEB0600C0B2FFF78DFD054320212046FFF732FD05430520A9
:204FA000FFF73CFB0120FFF7BFFD05432F430FD49BF8033013F0C00F08D1013608F120088B
:204FC0004E45D2D304E04FF0FF3701E04FF0FF373846BDE8F88F00BFA4220020AC220020AD
:204FE000090000202DE9F84F2A4A1388C3F3870897883B44B3F5005F44DC3F2F8CBFBF0991
:205000000127254C04EB881400252E46DFF88C90A246DFF88CE004F1400BD446BCE80F00A8
:20502000CEF80000CEF80410CEF80820CEF80C30E2460EF1100EDC45EFD11820FFF736FD59
:20504000824608EB0500C0B2FFF730FD4AEA000A40211348FFF7D4FC4AEA000A0520FFF7E2
:20506000DDFA0120FFF760FD4AEA000006430ED499F8033013F0C00F07D101354034BD426F
:20508000C6D304E04FF0FF3601E04FF0FF363046BDE8F88FA4220020AC2200200400002030
:2050A000090000201A4B5B885BBB70B5184B1D89B5F5806F28D8174E4FF480620021304681
:2050C00001F0A8FE144CE5800022628004F500540F4BDA68C4F84C242A465968304601F0C3
:2050E0008BFED4F84C340BB9002070BD29463046FFF708FAD4F84C34181A18BF4FF0FF302A
:20510000F3E74FF0FF3070474FF0FF30EDE700BFF8460020CC420020A42200207F282FD176
:2051200010B582B0184B1B786B2B1ED0174B93F826228DF8042093F827328DF8053014204E
:20514000FFF7B4FC0446022101A8FFF759FC04430120FFF7E9FC20430FD10D4BDB7813F014
:20516000C00F18BF022002B010BD074B9A788DF80420DB788DF80530E1E740F00800F2E7F5
:205180004FF0FF30704700BFF8460020A4420020040000202DE9B04783B04B4B5B8853BBDC
:2051A0004A4B5B88C3F387038DF80730464B1B8933BB464BDB889B08ADF80430434A538880
:2051C000D2881344B3F5806F74DCBDF804309BB2D3B1BDF804309BB2ADF80430BDF8043085
:2051E0009BB2002B69D00024A2464FF00A08384FA7F105093BE0C3F387038DF80730D5E7A1
:205200009B08ADF80430D9E70123E5E72CB19DF80730234457F823303B604046FFF746FC57
:2052200005469DF807002044C0B2FFF73FFC054345EA0A0504213846FFF7E2FB0543052017
:20524000FFF7ECF90120FFF76FFC45EA000A3AF0080334D199F8033013F0C00F18BF4AF0D7
:20526000020A0134BDF804309BB2A34227D99DF80730E34209D09DF8073023447C2BC5D990
:205280009DF8073023447F2BC0D89DF8073023447F2BE6D19DF807002044C0B2FFF73EFF60
:2052A0004AEA000A1AF0080FDBD0FFF79FFD4FF0080AD6E74FF0FF3A01E04FF0000A50460C
:2052C00003B0BDE8B08700BFF8460020A4220020090000202DE9B04783B0414B5B8853BB56
:2052E000404B5B88C3F387038DF807303C4B1B8933BB3C4BDB889B08ADF80430394A538867
:20530000D2881344B3F5806F60DCBDF804309BB2D3B1BDF804309BB2ADF80430BDF8043057
:205320009BB2002B55D00024A2464FF00A082E4FA7F105093BE0C3F387038DF80730D5E77D
:205340009B08ADF80430D9E70123E5E72CB19DF80730234457F823303B604046FFF7A6FBB7
:2053600005469DF807002044C0B2FFF79FFB054345EA0A0504213846FFF742FB0543052017
:20538000FFF74CF90120FFF7CFFB45EA000A3AF0080320D199F8033013F0C00F18BF4AF0EB
:2053A000020A0134BDF804309BB2A34213D99DF80730E342F5D09DF8073023447C2BC5D977
:2053C0009DF8073023447F2BC0D8EAE74FF0FF3A01E04FF0000A504603B0BDE8B08700BF01
:2053E000F8460020A4220020090000202DE9F84F274A5388C3F38701D2881344B3F5806F11
:2054000039DC4FEA9209B9F1000F37D00E46214B03EB810800252F464FF00A0BA3F1050A1B
:2054200020E05846FFF742FB0446F0B2FFF73EFB0443274304211748FFF7E2FA074305200A
:20544000FFF7ECF80120FFF76FFB074318D49AF8033013F0C00F18D10135013608F10408C9
:205460004D450FD0002EF7D0002DDAD0D8F80030CAF80530D5E74FF0FF3703E0002701E0DC
:205480004FF0FF373846BDE8F88F4FF0FF37F9E7A42200200900002010B50E4BD3F84C3420
:2054A0005BB10D4CA18804F10800FFF72BF804F50054D4F84834834208D14FF0FF324FF462
:2054C00000510648FEF7EAFF002010BD4FF0FF30FBE700BFA4420020A4220020AC22002079
:2054E00010B50F20FFF7E2FA4FF40050FFF71CFB044608B1204610BD4FF0FF324FF400510C
:205500000148FEF7CBFFF5E70700002010B50D4BD3F84C3453B10C4CE1880C48FEF7F2FF19
:2055200004F50054D4F84C34834208D14FF0FF324FF480610548FEF7B1FF002010BD4FF082
:20554000FF30FBE7A4420020A4220020CC42002070B50E20FFF7AAFA264B188938BB4FF4EB
:205560008060FFF7E1FA044618B101280FD0204670BD214D4FF480612846FEF70DFF4FF08C
:20558000FF324FF480612846FEF788FFEFE71A4D4FF480612846FEF7FFFE05F5FF534FF080
:2055A000FF32B3F845102846FEF778FFDFE7FFF7BBFA044688B10128D9D10F4D0D4B1989C3
:2055C0002846FEF7E9FE05F5FF534FF0FF32B3F845102846FEF762FFC9E7064E064D3189F0
:2055E0002846FEF7D9FE4FF0FF3231892846FEF755FFBCE7F8460020070000200D4B5B684D
:20560000A3B110B55C789878000440EA04201C782043DC7840EA0464074881880830FEF7D9
:2056200071FF201A18BF4FF0FF3010BD4FF0FF30704700BFF8460020A422002038B5184B36
:205640001B89B3F5005F21D80F20FFF72FFA04464FF40050FFF768FA20431AD4104BB3F8CC
:2056600008C00CF1FF3CBCF1000F17DD00231A460C4D0D4CA9182244097AD27891420BD1A2
:2056800001339BB21A466345F4DB07E04FF0FF3004E04FF0FF3001E04FF0FF3038BD00BF08
:2056A000F8460020A4220020040000200A4BD3F848340BB90020704710B5084CA18804F114
:2056C0000800FEF71FFF04F50054D4F84834181A18BF4FF0FF3010BDA4420020A4220020EA
:2056E0000A4BD3F84C340BB90020704710B5084CE1880848FEF706FF04F50054D4F84C340A
:20570000181A18BF4FF0FF3010BD00BFA4420020A4220020CC4200200D4B5B68A3B110B538
:205720005C789878000440EA04201C782043DC7840EA0464074BD9880748FEF7E3FE201A44
:2057400018BF4FF0FF3010BD4FF0FF30704700BFF8460020A4220020CC42002038B5194B90
:205760001B89B3F5806F26D80E20FFF79FF904464FF48060FFF7D8F920431FD4114B1D89A8
:20578000C5B1114C1149002202E0013401311A46531C9BB2AB420DD0032BF6D9A2F2F312F5
:2057A00092B20B2AF1D994F800C00A789445ECD04FF0FF3038BD4FF0FF30FBE74FF0FF3022
:2057C000F8E700BFF8460020AD2200200800002010B582B00A4C21896068FEF793FE0190E0
:2057E0004FF0FF3204210DEB0100FEF757FEE3680198C01A18BF4FF0FF3002B010BD00BF90
:20580000F846002010B5032824D8DFE800F01A2B02341D20FFF74AF904460120FFF784F9B8
:205820001B4BDB78882B2FD154EA00032ED110211848FFF7E5F804460320FFF775F9204324
:2058400007E00D20FFF732F904460320FFF76CF9204330B94FF0FF3203210F48FEF71EFE03
:20586000002010BD1120FFF721F904460320FFF75BF92043EDE71120FFF718F90446032067
:20588000FFF752F92043E4E71020EAE71020E8E7040000203C6E00080700002008B54FF0A0
:2058A000FF3203210248FEF7F9FD002008BD00BFF4FF000810B51220FFF7F8F80446012077
:2058C000FFF732F904434FF0FF3201210248FEF7E5FD204610BD00BF0700002082B00E4B09
:2058E0009A6942F001029A619A6902F001020092009ADA6942F08052DA61DB6903F08053C5
:205900000193019B054A536823F0E06343F00073536002B0704700BF0010024000000140E3
:205920007047FEE7FEE7FEE7FEE770477047704708B501F0CFF808BD08B50E49CB681A0458
:2059400002F48022DB4303F0040313430B610A4B5B6913F4804F09D1074B4FF480425A61FA
:20596000064B4FF48072C3F8842108BDFFF722F9F2E700BF000801400004014000E100E084
:20598000014B024A9A60704700ED00E0004000080C4A4FF4165313600023137153710821A0
:2059A0009171094A1380094A1360094A1360094A1360094A1360094A01211170084A13701C
:2059C000704700BF84200020822000209422002090220020A02200209C2200208D22002094
:2059E0009922002000F00F0330F00F024BF68F7248F6BF711ABF11464FF48052102203F17E
:205A0000805303F5B8539B00186842400A401A60704700F00F0330F00F024BF68F7248F6E5
:205A2000BF711ABF11464FF44052202203F1805303F5B8539B00186842400A401A6070470D
:205A400010B50446FFF7CEFF44F08000FFF7CAFF10BD10B50446FFF7DCFF44F08000FFF7AA
:205A6000D8FF10BD00F1805000F5B8508000036883F4405323F4804323F070031B041B0C29
:205A80000360704700F1805000F5B8508000036883F0300323F4E04323F040031B041B0CC7
:205AA0000360704730B427490123C1F8403C264B00229A759A60DA601A61C1F8402C234B3B
:205AC0001A70234B1A70234B1A70234B1A625A62402098624FF40440D86280241C635A63AB
:205AE000C0259D63D8634FF480751D6458644FF4A0759D64D8644FF4C07018654FF4805079
:205B000058654FF492759D65D8654FF4C873C1F8503C43F22023C1F8003C2123C1F8043CD2
:205B200043F20203C1F8083C43F22363C1F80C3CC1F8442C4FF41F43C1F8403CC1F84C4C1E
:205B400030BC70470050004068200020982200208C2200209922002000630040034610B13A
:205B600000BF013BFCD1704738B5144BDD6AC5F309058D42A8BF0D46DDB1A3F54073D3F820
:205B80008040002D15DD0470240A8446013800EB050E0B4A012300E0240AE64509D00CF8F4
:205BA000014F013BF8D1134653F8044B1A460223F3E70020FFF756FF284638BD00630040CD
:205BC0008460004038B5402907DD4025154B5D6200239C46144C194608E0124B596299B9CD
:205BE0000D4619E00CF1010CAC4513DA10F8012B9A4011430833082BF4DD234643F8041B0D
:205C00001C4600210B46EDE7002901DD0D46DFE70D4601E003B121600020FFF733FF28469D
:205C200038BD00BF006300400060004008B500210148FFF7C7FF08BDF46E0008034B1B787A
:205C400013F0600F0CBF01200020704768200020044B187800F06000202814BF00200120DC
:205C6000704700BF6820002038B50D4B93F90030002B00DB38BD0A4CA1682569E3689942F7
:205C8000A8BF19462846FFF79DFF05442561A368181A01D4A060EDE7014B00229A60E9E751
:205CA0006820002008B50F4B5A881B78012B05D0022B09D01BB10120FFF794FE08BD012A44
:205CC000FCD1084B1875F9E7002AF7D1054B9B8818B91846FFF7B4FEF0E71846FFF7B9FE19
:205CE000ECE700BF6820002000B583B01A4A1378918800228DF80420812B1ED0822B15D083
:205D0000802B03D08020FFF76DFE22E0124B1B7D13B102238DF804300F4B5B7D6BB19DF888
:205D2000043043F001038DF8043006E0012901D9032902D101238DF8043000238DF805309C
:205D4000054B4022DA6002229A6001AA1A61FFF78BFF03B05DF804FB6820002008B51A4BC2
:205D60005A88130A022B1BD0032B05D0012B1AD00020FFF765FE23E0D2B2032A0CD8DFE81B
:205D800002F002200508114904200EE0104920200BE010491A2008E00120FFF723FE0FE050
:205DA0000D49432001E00D491220074BDA888242A8BF02464020D8609A601961FFF754FF45
:205DC00008BD07491020F0E768200020C46E0008A46E0008C86E00084C6E0008906E0008A5
:205DE000E46E000808B5FFF721FF024B9A78024B1A7008BD682000208020002008B5094B02
:205E00005B8823B9074A9375074A137008BDFFF7BFFD044B5A889A75034B01221A70FFF7EE
:205E200005FFF3E7682000208C22002008B507210248FFF799FEFFF7F9FE08BD84200020DC
:205E400008B5044B5B881B0A034A1380FFF7EEFE08BD00BF682000208220002008B5054B71
:205E60004022DA6007229A60034A1A61FFF7FCFE08BD00BF682000208420002008B50821D5
:205E80002B48FFF771FEFFF7D9FE002837D0284B5B780B2B33D8DFE803F01C09320D320651
:205EA0002C32112F1F27FFF79DFF36E00020FFF7F9FE32E00120FFF7F5FE2EE01C4B402256
:205EC000DA6001229A6003F116021A61FFF7CCFE23E0FFF709FF20E0154B01229A60154A47
:205EE0001A61FFF7C1FE18E0FFF752FDFFF79EFE13E0FFF733FF10E0FFF780FF0DE0FFF740
:205F0000A7FE38B10A4B5B78212B0AD0222B0BD0202B03D00020FFF765FD08BDFFF786FEA8
:205F2000FBE7FFF79BFFF8E7FFF78AFFF5E700BF68200020F46E000800B591B0FFF77EFE7C
:205F400058B9FFF785FE90B10A4B5B78202B09D0FFF76CFE11B05DF804FB40216846FFF7B0
:205F600003FEF7E7FFF762FFFFF760FEF2E7FFF75DFEEFE76820002008B5FFF75FFE00B926
:205F800008BD094B5B78062B04D0212B09D0FFF74DFEF5E7044B9B68002BF1DDFFF764FE2B
:205FA000EEE7FFF743FEEBE76820002070B5204B1B68204A12689B1A48BF03F580739C46DB
:205FC000402BA8BF4FF0400CCCF3090242F4044219494A63194A0121117023B3154A136859
:205FE0001749C85CC0B213680133DBB21360154C08211546124EBCF1010C12D02B68F35C39
:20600000DBB22A680132D2B22A608B40184308310829F0DD234643F8040B1C460020014647
:20602000E9E701B120600120FFF72CFD70BD00BFA02200209C2200200063004099220020F4
:206040008C2100200061004008B5064B1A68064B1B689A4203D1054B00221A7008BDFFF707
:20606000A5FFFBE79C220020A022002099220020F8B5244BDE6CC6F30906234B1B68234A73
:206080001268B3EB020C48BF0CF5807CCCF5807C664514DA1E4BD3F8805236B3E8B21A4A93
:2060A00013681C49C85413680133DBB213602D0A3046DFF864E00122134C0F4604E0174B50
:2060C00000221A7018E02D0A01380ED0EBB221687B5423680133DBB22360013AF3D1734652
:2060E00053F8045B9E460222EEE7ACEB06063F2E03DC0A4B00221A70F8BD0220FFF7B2FCAE
:20610000FAE700BF006300409422002090220020006000408C200020846200408D22002033
:2061200070B54F4BD3F8443C13F4804F04D04C4A6FF48041C2F8441C13F4005F04D0484A0B
:206140006FF40051C2F8441C13F4805F0DD0444AD2F8401C21F00C01C2F8401C6FF4805192
:20616000C2F8441C3F4A0021117013F4006F0DD03B4A6FF40061C2F8441C3A490120087008
:20618000D2F8401C41F00C01C2F8401C13F4806F34D113F4007F07D0314A6FF40071C2F824
:2061A000441C304A0021117013F4807F07D02C4A6FF48071C2F8441C2A4A0121117013F484
:2061C000004F27D0264A6FF40041C2F8441C03F00F0404F1805202F5B8529200116888B238
:2061E00013F0100F1FD040F68F730B401360ACB911F4006F0FD0FFF741FE0BE000231A4A39
:2062000093751A4A1370FFF74DFC154B6FF48062C3F8442C70BDFFF78FFEFBE7022CF9D1F6
:20622000FFF726FFF6E7124B1B7863B921F4E14121F070010904090C116074B1012CE9D102
:20624000FFF702FFE6E70A4D2B7843F08003044EC6F84C3C00232B70E8E7FFF78DFED9E764
:206260000050004098220020682000208C2200208020002038B5174AD36943F40003D36186
:20628000154B002015491A46043310608B42FAD10024134B9C75134B1C70134B1C70FFF724
:2062A00077FB124D0323C5F8403C6420FFF756FC0123C5F8403CC5F8444C4FF47A70FFF715
:2062C0004DFC0B4B4FF480121A60FFF7EBFB204638BD00BF00100240006000400064004044
:2062E000682000208C220020982200200050004000E100E0054B0122C3F8402C0022C3F886
:20630000442C0322C3F8402C704700BF00500040064B4FF48012C3F880200549086805492E
:2063200009681A60401A18BF0120704700E100E0902200209422002010B51E4B4FF48012FD
:20634000C3F880201C4B1B7833B31C4B1B781BBB1B4B1A681B4B1B689A4223D0184A1368B5
:206360001949CC5CE4B213680133DBB21360174B1B78C3B9134B1B6812689B1A48BF03F5CE
:206380008073C3F58073402B0DDD104B01221A700220FFF767FB06E0064B4FF480121A6002
:2063A000FF2404E00024034B4FF480121A60204610BD00BF00E100E08C22002098220020BA
:2063C00090220020942200208C2000208D220020F8B51E4B4FF48012C3F880201C4B1B783A
:2063E000C3B1864603F0FF051A4E1B481B4F1749DFF85CC033786BB903683C680133DBB23F
:20640000A3420ED10A6030BFC1F880209CF80030002BEFD10D4B4FF480121A60002528461D
:20642000F8BD0D4A13680133DBB211680C4800F801E013600B4B1B7823B1044B4FF480121A
:206440001A60ECE7FFF7B2FDF7E700BF00E100E08C22002098220020A02200209C22002084
:206460008C2100209922002010B582B000238DF807303B4C3B4B63604FF0FF3201212046D6
:20648000FDF7C0FF8DF80700642202216018FDF7B9FF8DF807009DF807305BB213F1030F75
:2064A00048D06422022104F10800FDF7ABFF8DF807009DF807305BB213F1030F3DD021894E
:2064C00000293DD042F2200399423CD8237803F0EF024D2A3AD0092B3AD02B2A01D00020BC
:2064E0002FE04FF47A726068FDF78CFF8DF807009DF807305BB213F1030F2BD064220421F6
:2065000004F10C00FDF77EFF8DF807009DF807305BB213F1030F20D0E3680BB9002010E07F
:2065200021896068FDF7EEFFE368181A18BF4FF0FF3006E04FF0FF3003E04FF0FF3000E0C1
:20654000002002B010BD4FF0FF30FAE70020F8E70020F6E74FF0FF30F3E74FF0FF30F0E7C4
:20656000F84600200900002030B583B09E4B1B788DF8073006238DF806309DF80730093B50
:20658000722B00F23282DFE813F073008600980025016601300230023002300230023002A4
:2065A000300230023002300230023002CA01BF00400178013002300230023002300230023F
:2065C000300230023002300230023002D3018F001C015D0130023002300230023002300285
:2065E0003002300230023002300230023002B60037016F01300230023002300230023002B3
:206600003002300230023002300230023002A7003002900130023002300230023002300286
:206620003002300230023002300230023002DF003002990130023002300230023002300225
:20664000300230023002300230023002300226023002C10130023002300230023002300294
:206660003002300230023002300230023002FC005D4B1B89012B14BF002301235B4A137006
:20668000FEF7B4FB18B906238DF8063026E1C3B28DF8063022E1FEF75FFB0028D8BF062033
:2066A000C0B28DF8060019E1FEF700FC0028D8BF0620C0B28DF8060010E1FEF7F7FF0346EB
:2066C00030B1002BD8BF0623DBB28DF8063005E1FEF730FC0346F4E7FEF7E8FF034630B175
:2066E000002BD8BF0623DBB28DF80630F6E0FEF779FC0346F4E7FEF7D5FC0028D8BF062058
:20670000C0B28DF80600E9E0FEF7EAFF044630B1B120FFF75DFEE4B28DF80640DEE0344CE9
:206720004FF480652A463349204600F065FB29462046FDF731FE0446FEF72CFD0443E7D130
:2067400006238DF80630C9E0FEF7CAFF034630B1002BD8BF0623DBB28DF80630BEE0244C83
:206760004FF480652A462349204600F045FB29462046FDF711FE0446FEF738FE44EA000301
:20678000E6E7FEF7ADFF044630B1B120FFF720FEE4B28DF80640A1E0154C4FF480652A46A0
:2067A0001449204600F028FB29462046FDF7F4FD0446FEF78FFD0443E7D106238DF806309B
:2067C0008CE0FEF71BFF0028D8BF0620C0B28DF8060083E0FEF732FF0028D8BF0620C0B27C
:2067E0008DF806007AE000BFF8460020F446002009000020CC420020FEF78EFF0028D8BFA5
:206800000620C0B28DF8060068E0FEF785FF034630B1002BD8BF0623DBB28DF806305DE0FA
:20682000744C4FF480652A467349204600F0E4FA29462046FDF7B0FD0446FEF78FFF44EA9F
:206840000003E6E7FEF728FE0028D8BF0620C0B28DF8060042E0FEF743FE0028D8BF06202E
:20686000C0B28DF8060039E0FEF750FE0028CCBFD32306238DF8063030E0604B1989586815
:20688000FDF78AFDFEF764FE18B906238DF8063024E0D1228DF8062001281FD11046FFF76A
:2068A00097FD01238DF8063018E0FEF791FF0028D8BF0620C0B28DF806000FE04F4B1B89D9
:2068C000032B1FD8DFE803F00212161A0220FEF799FF002818DDC0B28DF806009DF8060031
:2068E000FFF776FD9DF8060003B030BD0020FEF789FFEEE70120FEF785FFEAE70320FEF7FF
:2069000081FFE6E70620E7E70620E5E7FEF7C6FF0028D8BF0620C0B28DF80600DEE7FEF7EE
:20692000C9FF0028D8BF0620C0B28DF80600D5E7334A344B136012689A4203D0A2238DF80F
:206940000630CBE7FFF7D6FC2F49304B93FAA3F2B2FA82F293FAA3FCBCFA8CFC93FAA3F5C3
:20696000B5FA85F593FAA3F4B4FA84F493FAA3F0B0FA80F093FAA3F393000F229A404B68F6
:2069800023EA02034FEA8C0C012202FA0CF21343AD000322AA4023EA0203A4000222A24029
:2069A000134380000422824023EA02034B604FF480534B614FF47A70FDF730FEBFF34F8FBB
:2069C0001349CA6802F4E062124B1343CB60BFF34F8F00BFFDE77F20FEF7A0FB0028D8BFF2
:2069E0000620C0B28DF8060078E766238DF8063074E700BF09000020CC420020F846002002
:206A0000FC4F002078563412000801401000100400ED00E00400FA050C480D490D4A002396
:206A200002E0D458C4500433C4188C42F9D30A4A0A4C002301E013600432A242FBD3FEF789
:206A40009FFF00F0B5F9FDF757FE70470000002040200020006F00084020002010470020EC
:206A6000FEE7000010B504460E4B18784FF47A73B3FBF0F30C4A1068B0FBF3F000F07EF8B6
:206A800068B90F2C01D901200AE0002221464FF0FF3000F03DF8054B1C60002000E00120AC
:206AA00010BD00BF38200020342000203C20002008B5074A136843F010031360032000F08D
:206AC00015F80F20FFF7CEFFFEF708FF002008BD00200240034A1168034B1B780B4413600B
:206AE000704700BF0C470020382000200749CA68030203F4E06322F4E0621204120C134392
:206B000043F0BF6343F40033CB60704700ED00E000B5184BDB68C3F30223C3F1070CBCF15D
:206B2000040F28BF4FF0040C03F1040EBEF1060F8CBF033B00234FF0FF3E0EFA0CFC21EAFF
:206B40000C0199400EFA03F322EA03021143002809DB0901C9B200F1604000F5614080F8BC
:206B600000135DF804FB00F00F000901C9B2024B1954F6E700ED00E014ED00E00138B0F10B
:206B8000807F0BD24FF0E0235861054AF02182F823100020986107221A61704701207047C5
:206BA00000ED00E0014B1868704700BF3420002010B403460079002853D01A68002A5DD0A8
:206BC0005879012818D0022821D058B101209A79002A51D0022A2FD0032A38D0012A20D0B5
:206BE000012049E026494C6824EA02024A600A681C6822430A60EAE72149086820EA0202EE
:206C00000A604A68186802434A600020DFE71C49086802430A604A68186802434A6000203E
:206C2000D5E7174AD1681C6821EA0401D16091681B680B4393601FE0114A91681C6821EA9A
:206C400004019160D1681B680B43D36014E00C4A91681C6821439160D1681B680B43D360A8
:206C60000AE0074A11681C6821EA0401116051681B6821EA0303536010BC70470020FBE7D6
:206C8000000401400B68C3F30F2C9CFAACF2B2FA82F23CFA02F300F083802DE9F04F4FF045
:206CA000010E0F244FF003084FF0011540F20117E14631E093FAA3FABAFA8AFA93FAA3FBE4
:206CC000BBFA8BFB4FEA8A0A08FA0AFA26EA0A0A4FEA8B0B8E6806FA0BF64AEA060640F844
:206CE0000C6093FAA3FABAFA8AFA93FAA3F3B3FA83F34FEA8A0A4FF0040B0BFA0AFA26EA4C
:206D00000A0A9B00CE689E404AEA060640F80C60013239FA02F340D00EFA02F313EA090F4F
:206D2000F6D0072A91BF07FA02F3A2F1080305FA03F343F08063C6684FEA132C9CFAACFA8B
:206D4000BAFA8AFA26EA0C0C0E6906FA0AF64CEA0606C6604FEA136C93FAA3FABAFA8AFADA
:206D600093FAA3FBBBFA8BFB4FEA8A0A04FA0AFA50F80C6026EA0A0A4FEA8B0B4E6806FA81
:206D80000BF64AEA060640F80C60D1F804A02AF0080ABAF1010FBBD18CE70020BDE8F08F77
:206DA00000207047014B1860704700BF3420002070B500260C4D0D4C641BA410A64209D15C
:206DC00000F030F800260A4D0A4C641BA410A64205D170BD55F8043B98470136EEE755F8E6
:206DE000043B98470136F2E7F86E0008F86E0008F86E0008FC6E00080A44914200F1FF3365
:206E000000D1704710B511F8014B914203F8014FF9D110BD03460244934200D1704703F834
:206E2000011BF9E7F8B500BFF8BC08BC9E467047F8B500BFF8BC08BC9E4670475545E89244
:206E4000D6B16259FC8AC8F2D6E14A3509024300020100C0320904000001020201000524FB
:206E600000100105240100010424020005240600010705830308000109040100020A0000C7
:206E80000007058102400000070502024000000012010002020000401604115000010102FD
:206EA00003010000200355005300420020005600690072007400750061006C002000430057
:206EC0004F004D00040309041A034E00540032003000300039003100300031003400300082
:206EE0003000000010034E00750076006F0074006F006E0000000000314100080D41000886
:206F0000FFFFFFFF00100A000000000000000000000000000000000000000000000000005B
:206F2000000000000000000000000000000000000000000000000000000000000000000051
:206F4000000000000000000000000000000000000000000000000000000000000000000031
:206F6000000000000000000000000000000000000000000000000000000000000000000011
