:020000040800F2
:20480000FC4F0020656F0008B5680008B7680008B9680008BB680008BD6800080000000084
:20482000000000000000000000000000BF680008C168000800000000C3680008C5680008B0
:20484000AD6F0008AD6F0008AD6F0008AD6F0008AD6F0008AD6F0008AD6F0008AD6F000838
:20486000AD6F0008AD6F0008AD6F0008AD6F0008AD6F0008AD6F0008AD6F0008AD6F000818
:20488000AD6F0008AD6F0008AD6F0008AD6F00081D6B0008AD6F0008AD6F0008AD6F00088C
:2048A000AD6F0008AD6F0008AD6F0008AD6F0008AD6F0008AD6F0008AD6F0008AD6F0008D8
:2048C000AD6F0008AD6F0008AD6F0008AD6F0008AD6F0008AD6F0008AD6F0008AD6F0008B8
:2048E000D9680008AD6F0008AD6F0008000000000000000000000000000000000000000027
:2049000000000000000000005FF808F110B5054C237833B9044B13B10448AFF30080012305
:20492000237010BD3C200020000000002470000808B5034B1BB103490348AFF3008008BDAA
:20494000000000004020002024700008012919D0194B9A6822F480429A60DA6842F48042B6
:20496000DA60C8B1144B4FF480425A615A691A6842F480421A60114B4FF48072C3F88421BD
:204980005A6070470C4BDA6822F48042DA609A6842F480429A60E4E7074A136823F4804396
:2049A0001360064B4FF48072C3F88420BFF34F8FBFF36F8F704700BF0004014000E100E0E3
:2049C00008B50121FFF7C2FF08BD024B9868C0F380307047000C014082B00023019380B1AE
:2049E00091B1431E0139014413F8012F92FAA2F20192019A120E1A708B42F5D1002002B0FD
:204A000070474FF0FF30FAE70020F8E7074B5968074B1B68074AA2FB03239B0C03FB00F000
:204A2000024A53685B1A8342FBD37047001000E00000002083DE1B434FF47A7303FB00F0C3
:204A4000074B5968074B1B68074AA2FB03239B0C03FB00F0024A53685B1A8342FBD37047FF
:204A6000001000E00000002083DE1B43084B4FF416521A6000221A715A71082199719A604A
:204A8000DA601A615A61012119765A76704700BF5820002000F00F0330F00F024BF68F72A2
:204AA00048F6BF711ABF11464FF48052102203F1805303F5B8539B00186842400A401A60E6
:204AC000704700F00F0330F00F024BF68F7248F6BF711ABF11464FF44052202203F180532E
:204AE00003F5B8539B00186842400A401A60704700F1805000F5B8508000036883F44053E8
:204B000023F4804323F070031B041B0C0360704730B427490123C1F8403C264B002283F81A
:204B200032205A629A62DA62C1F8402C83F8342083F835205A76204B1A625A62402098629E
:204B40004FF40440D86280241C635A63C0259D63D8634FF480751D6458644FF4A0759D64C6
:204B6000D8644FF4C07018654FF4805058654FF492759D65D8654FF4C873C1F8503C43F2B8
:204B80002023C1F8003C2123C1F8043C43F20203C1F8083C43F22363C1F80C3CC1F8442C84
:204BA0004FF41F43C1F8403CC1F84C4C30BC704700500040582000200063004038B5144B10
:204BC000DD6AC5F309058D42A8BF0D46DDB1A3F54073D3F88040002D15DD0470240A844650
:204BE000013800EB050E0B4A012300E0240AE64509D00CF8014F013BF8D1134653F8044BA7
:204C00001A460223F3E70020FFF772FF284638BD006300408460004010B58646402907DDA6
:204C20004020184B586200239C46174C19460AE00846144B5962B1B10029F4DC13E00CF193
:204C4000010C84450DDA1EF8012B9A4011430833082BF4DD234643F8041B1C4600210B4651
:204C6000EDE703B12160094AD2F8003C83F0300323F4E04323F040031B041B0CC2F8003C60
:204C800010BD00BF00630040006000400050004008B500210148FFF7BFFF08BD3C70000861
:204CA00038B50D4B93F91C30002B00DB38BD0A4C616AE56AA36A9942A8BF19462846FFF75A
:204CC000ABFF0544E562636A181A01D46062EDE7014B00225A62E9E758200020144BDA8BDA
:204CE0001B7F012B22D010B5022B0AD01BB10120FFF7D0FE10BD012AFCD10D4B83F83000B7
:204D0000F8E7002AF6D10A4B1C8C38B92046FFF7C1FE44F08000FFF7BDFEEBE72046FFF727
:204D2000D0FE44F08000FFF7CCFEE3E7704700BF5820002030B4264A136952699B1A48BF12
:204D400003F580739C46402BA8BF4FF0400CCCF3090242F404421F494A631D4A012151767E
:204D600033B31B4A5369134493F83840E4B253690133DBB25361184D08211046BCF1010C6D
:204D800014D04369034493F83830DBB242690132D2B242618B401C4308310829EEDD2B46E7
:204DA00043F8044B1D4600242146E7E701B12C600A4AD2F8043C83F0300323F4E04323F01E
:204DC00040031B041B0CC2F8043C30BC704700BF5820002000630040006100400050004082
:204DE00010B51E4B4FF48012C3F880201C4B93F8353033B31A4B93F8343013BB184BDA6851
:204E00009B689A4223D0164BDA681A4492F83841E4B2DA680132D2B2DA601B7EC3B9104A84
:204E20009368D2689B1A48BF03F58073C3F58073402B0DDD0A4B01221A760220FFF758FE20
:204E400006E0064B4FF480121A60FF2404E00024024B4FF480121A60204610BD00E100E011
:204E6000582000202DE9F04782460E462C4B5C682C4B1D682C4BA3FB0535AD0902FB05F5FE
:204E8000B2F1FF3F08D0002D44D0C9B10027DFF89C904FF4801823E007460644234D244C1F
:204EA0004FF48013B7420DD0C5F88030E168A2682B609142F6D0FFF793FF07F8010BEFE7F9
:204EC000002025E0002023E0FFF78AFF0AF807000137BFB20DE09BB1B74211D21D46144687
:204EE000C9F88080124BDA689B68C9F800809A42EAD10B4B5A68A31A2B44AB42EBD900235F
:204F0000B7420AD0002B14BF6FF00E006FF00200BDE8F0872B460027F2E70020F8E700BFA7
:204F2000001000E000000020D34D621000E100E05820002070B51D4B4FF48012C3F88020B9
:204F40001B4B93F83530B3B103F0FF05184A174C4FF4801192F834306BB913695669013386
:204F6000DBB2B3420ED1216030BFC4F8801092F83530002BEED10D4B4FF480121A6000256F
:204F8000284670BD0A4B1A690132D2B21969194481F838001A615B7E23B1044B4FF480120B
:204FA0001A60EDE7FFF7C6FEF7E700BF00E100E058200020F8B505460D4B5B680D4B1B6805
:204FC0000D48A0FB03039B0C02FB03F379B10E466BB10024064F02E07B68B44207D2285D15
:204FE000FFF7A8FF0028F7D00134A4B2F4E7F8BD001000E00000002083DE1B431A4A13685C
:205000001A4AA2FB03239B09013BB3F1807F29D24FF0E0225361164BF02183F823100023B3
:205020009361072313610F2801D901207047104BDA68C2F30222C2F10701042928BF04218B
:20504000131D062B8CBF033A00224FF0FF338B4020EA030393401B01DBB2054A82F8233061
:20506000002070470120704700000020D34D621000ED00E010B4174C174B93FAA3F1B1FAAD
:2050800081F193FAA3F2B2FA82F293FAA3FCBCFA8CFC93FAA3F389000F2303FA01F163685A
:2050A00023EA01039200012101FA02F213434FEA8C0104228A4023EA0203636020B14FF447
:2050C0008052226110BC7047024B4FF480525A61F8E700BF000C01401000100410B4174CA5
:2050E000174B93FAA3F1B1FA81F193FAA3F2B2FA82F293FAA3FCBCFA8CFC93FAA3F38900B8
:205100000F2303FA01F1636823EA01039200012101FA02F213434FEA8C0104228A4023EAD6
:205120000203636020B14FF40052226110BC7047024B4FF400525A61F8E700BF000C0140B3
:20514000200020042DE9F0478946254B03F50052D0625B78102B09D0B9F1000F10D000275C
:205160001F4DDFF8808005F5005A19E04FF4FA70FFF74CFCF0E700201B4B9862BDE8F08741
:205180000020FBE7D8F80430BB4201D8C8F804700020FFF715FC0137CAF828704F45EAD0F8
:2051A0000120FFF70DFC20236B700A23AB700020FFF794FFAB780D2BE4D00C4C01263046BC
:2051C000FFF724FCAB780D2BDCD0013CF7D10020FFF7F6FB0120FFF781FF4FF0FF30CDE7ED
:2051E0000C000020000000200C2000203F420F0070B51B4BD87003F50052D91CD1625B786F
:20520000102B21D00120FFF7DBFB154C202363700A23A3700020FFF761FFA3780D2B18D00D
:20522000104C01260E4D3046FFF7F0FBAB780D2B0FD0013CF7D10020FFF7C2FB0120FFF710
:205240004DFF4FF0FF300AE04FF4FA70FFF7DEFBD8E70020FFF7B4FB0020034B986270BD15
:205260000C0000203F420F000C2000202DE9F04780461E4B5B78202B09D0B8F1000F10D01B
:2052800000271A4D4FF0100A4FF0090911E04FF4FA70FFF7BBFBF0E70020154B9862BDE896
:2052A000F0870020FBE7013705F500539F624745F2D085F801A085F802900020FFF70EFF51
:2052C0000120FFF77DFBAB780D2BECD0094C01263046FFF79BFBAB780D2BE4D0013CF7D196
:2052E000002F14BF01200420D9E700BF0C0000200C2000203F420F0070B5204DEB681A04DD
:2053000002F40022DB4303F0080313432B610820FFF76EFF0446EB681A0402F40022DB43FB
:2053200003F0080313432B610120FFF79FFF0443134BDB78882B1DD1114D124E0FCEC5F8E7
:205340000300C5F80710C5F80B20C5F80F301021E81CFFF7F7FE04436420FFF76DFB012028
:20536000FFF784FF2043EB7813F0C00F18BF4FF0FF3070BD4FF0FF30FBE700BF0008014052
:205380000C000020F87000087F2832D110B582B0194B93F838326B2B1ED0184B93F82622BD
:2053A0008DF8042093F827328DF805301420FFF71FFF0446022101A8FFF7C4FE0443012028
:2053C000FFF754FF204311D10D4BDB7813F0C00F18BF022002B010BD074B93F83A228DF88C
:2053E000042093F83B328DF80530DFE740F00800F0E74FF0FF30704758200020C042002023
:205400000C00002010B5032824D8DFE800F01A2B02341D20FFF7ECFE04460120FFF726FF9F
:205420001B4BDB78882B2FD154EA00032ED110211848FFF787FE04460320FFF717FF2043D8
:2054400007E00D20FFF7D4FE04460320FFF70EFF204330B94FF0FF3203210F48FFF7AAFD2C
:20546000002010BD1120FFF7C3FE04460320FFF7FDFE2043EDE71120FFF7BAFE0446032076
:20548000FFF7F4FE2043E4E71020EAE71020E8E70C000020407000080F00002070B500219D
:2054A0000846FFF753FA0020FFF7E4FD0020FFF715FE6420FFF7C0FA8A4B93F84C32012BFD
:2054C0002FD08949894B93FAA3F2B2FA82F293FAA3F3B3FA83F392000F2090404A6822EA50
:2054E00000029B00082000FA03F313434B60CB6823F488234FF4882292FAA2F2CB600120A8
:20550000FFF7B8FD4FF42A740125FFF75EFA00283ED12846FFF77AFA013CF6D1902630464C
:2055200070BD7148714B93FAA3F2B2FA82F293FAA3F3B3FA83F392000F219140426822EAF8
:2055400001029B00042101FA03F3134343600120FFF790FD4FF4FA70FFF758FA0120FFF7EE
:20556000BDFDC820FFF752FAFFF72FFA012801D09026D4E74FF488640125FFF726FA012829
:2055800072D12846FFF742FA013CF6D19126C6E74FF488640125FFF718FA01286ED128468D
:2055A000FFF734FA013CF6D19026B8E7504BDB78552B56D10020FFF703FA4E49CB681A04DE
:2055C00002F40022DB4303F0080313430B610520FFF71CFA434BB3F83A32012B1CD00220C5
:2055E000FFF706FE064640F291140125FFF7EDF9B0B92846FFF70AFA013CA4B2002CF5D136
:205600003C49CB681A0402F40022DB4303F0080313430B61912682E7FFF76EFE00267EE7B1
:2056200033240125FFF7D1F9012812D12846FFF7EDF9013CA4B2002CF4D12E49CB681A048B
:2056400002F40022DB4303F0080313430B61912665E70220FFF70AFE06430020FFF7B0F929
:205660005DE74FF0FF365AE70020FFF737FD0820FFF7CCF90120FFF731FD05E00220FFF7C2
:20568000C5F90120FFF72AFD3220FFF7BFF90020FFF724FD164C0923A3701023637001200F
:2056A000FFF78EF91349CB681A0402F40022DB4303F0080313430B610A20FFF7A7F9A378EF
:2056C0000D2B3FF473AF0C4C0126094D3046FFF79DF9AB780D2B3FF469AF013CF6D14FF07D
:2056E000FF361CE758200020000C0140400040040C000020000801403F0D03000B68C3F31C
:205700000F2C9CFAACF2B2FA82F23CFA02F300F083802DE9F04F4FF0010E0F244FF00308BC
:205720004FF0011540F20117E14631E093FAA3FABAFA8AFA93FAA3FBBBFA8BFB4FEA8A0AFD
:2057400008FA0AFA26EA0A0A4FEA8B0B8E6806FA0BF64AEA060640F80C6093FAA3FABAFA97
:205760008AFA93FAA3F3B3FA83F34FEA8A0A4FF0040B0BFA0AFA26EA0A0A9B00CE689E4068
:205780004AEA060640F80C60013239FA02F340D00EFA02F313EA090FF6D0072A91BF07FA60
:2057A00002F3A2F1080305FA03F343F08063C6684FEA132C9CFAACFABAFA8AFA26EA0C0C09
:2057C0000E6906FA0AF64CEA0606C6604FEA136C93FAA3FABAFA8AFA93FAA3FBBBFA8BFB6A
:2057E0004FEA8A0A04FA0AFA50F80C6026EA0A0A4FEA8B0B4E6806FA0BF64AEA060640F804
:205800000C60D1F804A02AF0080ABAF1010FBBD18CE70020BDE8F08F0020704784B02E4B01
:205820005A6942F040025A615B6903F040030193019B2A4B01229A605FEA910C16D000EB03
:205840008C0C1A4650F8043B93FAA3F3029313606045F7D1214B1B6893FAA3F3029311F089
:20586000030115D00CEB01001D4903E08446F1E784450CD01CF8012B5340082213F0010FA7
:2058800014BF81EA53035B08013AF7D1F0E70293029BDB430293104A536923F04003536132
:2058A00002AB03AA104613F8011B02F8011B8342F9D19DF80C308DF80B309DF80D308DF884
:2058C0000A309DF80E308DF809309DF80F308DF80830029804B070470010024000300240A3
:2058E0002083B8ED0A4BD3F848340BB90020704710B5084CA18804F10800FFF78FFF04F56D
:205900000054D4F84834181A18BF4FF0FF3010BDC0420020C02200200A4BD3F84C340BB91F
:205920000020704710B5084CE1880848FFF776FF04F50054D4F84C34181A18BF4FF0FF3043
:2059400010BD00BFC0420020C0220020E84200200D4BD3F83C32A3B110B55C7898780004BB
:2059600040EA04201C782043DC7840EA0464074BD9880748FFF752FF201A18BF4FF0FF3034
:2059800010BD4FF0FF30704758200020C0220020E84200202DE9804895B0B34C236843F051
:2059A00010032360B149CA6822F4E0621204120CAF4B1343CB600F20FFF720FBAD4B9A69E3
:2059C00042F001029A619A6902F001020E920E9ADA6942F08052DA61DB6903F080530D932B
:2059E0000D9BA54A536823F0E06343F000735360236823F0070343F0020323602246136860
:205A000003F00703022BFAD19A4A136843F480331360136813F4003FFBD0964A536823F497
:205A20007C1343F4E8135360136843F080731360136813F0007FFBD08E4B5A6822F0F00277
:205A40005A605A6822F4E06242F480625A605A6822F460525A605A6822F0030242F002024D
:205A60005A601A46536803F00C03082BFAD1834B834A1A600F20FFF7C1FA7E4C636823F4B0
:205A8000404343F400436360E36943F40003E361E36903F400030893089B00261296139681
:205AA000A36943F01003A361A36903F010030C930C9BA36943F02003A361A36903F02003B0
:205AC0000B930B9BA36943F00403A361A36903F004030A930A9BA36943F00803A361A36996
:205AE00003F008030993099B66484FF400534361DFF894A10C23CAF81430644F4FF44053B6
:205B00007B61DFF88C91CDF83C9001251095022311930FA9FFF7F2FD40F60C430F93109527
:205B20004FF00308CDF8448012960FA95046FFF7E5FD584B0F931095CDF8448012960FA9F1
:205B40003846FFF7DBFDCDF83C901095CDF84480129613950FA93846FFF7D0FD4E4B0F93B6
:205B6000042310930FA93846FFF7C8FD3F4AD2F8FC3023F08073C2F8FC30D2F8FC3043F0D6
:205B80008073C2F8FC30454B196821F0010119601968294319605E6000BF00BF00BF5B686B
:205BA000354841694FF4706393FAA3FCBCFA8CFC21F4706105FA0CFC41EA0C0141613849F6
:205BC000D1F800C02CF4804CC1F800C0D1F804C02CF4804CC1F804C0D268324A82F8286326
:205BE000FA6822F488224FF4882191FAA1F1FA60426993FAA3F3B3FA83F322F470629D406A
:205C000015434561E36943F40003E361264B304626491A46043310608B42FAD1244B002236
:205C200083F8322083F8352083F83420FEF71EFF204B0322C3F8402C642300BF013BFCD1E0
:205C40001C4B0122C3F8402C0022C3F8442C4FF47A7300BF013BFCD10293124B4FF4801287
:205C60001A60FEF755FF27E00020024000ED00E00003FA0500100240000001400000002076
:205C800000A24A040010014000080140000C0140200020041000100440004004001000E051
:205CA0000004014000E100E000600040006400405820002000500040A54CDFF898B2ABF1C4
:205CC000020303F5FF531D3303932FE04FF47A72D4F83C02FFF7C6F88DF817009DF817301B
:205CE0005BB213F1030F1BD06422042104F51170FFF7B8F88DF817009DF817305BB213F142
:205D0000030F0DD0D4F84432002B4AD0B4F84012D4F83C02FFF782FDD4F84432984240D064
:205D20004FF0FF3201216620FFF744F900238DF81730C4F83CB24FF0FF32012104F50E7076
:205D4000FFF790F88DF817006422022104F23A20FFF788F88DF817009DF817305BB213F131
:205D6000030FDDD06422022104F51070FFF77AF88DF817009DF817305BB213F1030FCFD0A0
:205D8000B4F8401269B142F220039942C8D894F8383203F0EF024D2A03D0092B01D02B2A9B
:205DA00094D094F838328DF8183006238DF819309DF81830093B722B00F24C85DFE813F07A
:205DC00073008600CE0062030B044A054A054A054A054A054A054A054A054A054A054A0523
:205DE0004A05D904A80198033F044A054A054A054A054A054A054A054A054A054A054A058B
:205E00004A05EF0495005603F0034A054A054A054A054A054A054A054A054A054A054A05FA
:205E20004A054A057D018F0325044A054A054A054A054A054A054A054A054A054A054A0526
:205E40004A054A0528014A059A044A054A054A054A054A054A054A054A054A054A054A0529
:205E60004A054A055A024A05AC044A054A054A054A054A054A054A054A054A054A054A05C4
:205E80004A054A053F054A05CE044A054A054A054A054A054A054A054A054A054A054A059A
:205EA0004A054A05BE02B4F84032012B14BF0023012384F84C32FFF7F1FA18B906238DF8C6
:205EC00019300BE0C3B28DF8193007E0FFF714FA0028D8BF0620C0B28DF819009DF81900BD
:205EE000FFF728F89DF8193020E7D4F83C82B8F1000F23D0B4F83A3203BBB4F84072B7F592
:205F0000005F1BD8144E4FF400520021304601F073F8A6F1080526F8047C002326F8083C7E
:205F200005F50055D4F84432C5F848343A464146304601F069F8D5F848341BB906238DF8FD
:205F40001930CBE739463046FFF768FCF6E700BF5820002011000020C8220020FFF7C2FCD4
:205F6000064630B1002ED8BF0626F6B28DF81960B4E7BC4A1388C3F3870992881344B3F5C2
:205F8000005F00F36C841F2A8CBF530901230193B54B03EB4918029FDFF8D0A245460FCD77
:205FA000CBF80000CBF80410CBF80820CBF80C300FCDCBF81000CBF81410CBF81820CBF809
:205FC0001C300920FFF714F9054609EB0700C0B2FFF70EF9054320215846FFF7B3F8054384
:205FE0000520FEF729FD0120FFF740F905432E430CD49AF8033013F0C00F40F030840137C5
:2060000008F12008019BBB42C8D8ABE70626ACE7FFF768FC074630B1002FD8BF0627FFB2A9
:206020008DF819705AE78F4A1388C3F3870A92881344B3F5005F00F317843F2A8CBF930900
:2060400001230193884B03EB8A18DDF80890C4465E4608F1400E65460FCD30607160B260C9
:20606000F360AC4610367545F5D11820FFF7C0F805460AEB0900C0B2FFF7BAF80543402123
:206080005846FFF75FF805430520FEF7D5FC0120FFF7ECF805432F430DD4744BDB7813F037
:2060A000C00F40F0E18309F1010908F14008019B4B45CCD8B0E70627B1E7B4F83A32F3B948
:2060C000B4F84062B6F5806F19D8694F4FF480620021384600F090FF624DEE8000226A80C3
:2060E00005F50055D4F84432C5F84C343246D4F83C12384600F088FFD5F84C341BB9062301
:206100008DF81930EAE631463846FFF787FBF6E7FFF702FC054630B1B120FEF70BFFEDB208
:206120008DF81950DAE64FF4806632465049584600F06AFF31465846FEF74EFC8146B4F8B9
:206140003A3243BB474B5B88C3F387038DF81A30B4F8403223BB434BDB889B08ADF81C30D0
:20616000404A5388D2881344B3F5806F00F37F83BDF81C309BB2BBB1BDF81C309BB2ADF8D0
:206180001C30BDF81C309BB2002B63D0029E0A27DFF8D8803DE0C3F387038DF81A30D7E71D
:2061A0009B08ADF81C30DBE70123E8E736B19DF81A3033445BF82330CBF800303846FFF74C
:2061C00017F882469DF81A003044C0B2FFF710F84AEA000A4AEA050504215846FEF7B2FF70
:2061E00005430520FEF728FC0120FFF73FF8054335F0080340F03D8398F8033013F0C00FCE
:2062000018BF45F002050136BDF81C309BB29E4220D29DF81A30F34209D09DF81A303344D1
:206220007C2BC3D99DF81A3033447F2BBED89DF81A3033447F2BE6D19DF81A003044C0B239
:20624000FFF7A2F8054315F0080FDCD0FFF726F90825D8E755EA09057FF45EAF06238DF822
:2062600019303BE6C0220020C82200200C000020E8420020FFF750FB054630B1002DD8BF01
:206280000625EDB28DF8195028E64FF480663246BA49584600F0B8FE31465846FEF79CFBAF
:2062A0000190B7494B88C3F38702C9884FEA910A0B44B34237DCBAF1000F39D01746B14BA3
:2062C00003EB8209DDF80880464622E00A20FEF78FFF8046F8B2FEF78BFF48EA000848EA52
:2062E000050504215846FEF72DFF05430520FEF7A3FB0120FEF7BAFF054317D4A24BDB786E
:2063000013F0C00F17D10136013709F1040956450ED0002FF7D0002ED8D0D9F800309A4A23
:20632000C2F80530D2E74FF0FF3501E04FF0FF35019B1D43A2E74FF0FF35F9E7FFF7ECFA3A
:20634000054630B1B120FEF7F5FDEDB28DF81950C4E54FF4806632468849584600F054FED1
:2063600031465846FEF738FB8146B4F83A3243BB834B5B88C3F387038DF81B30B4F8403224
:2063800023BB7F4BDB889B08ADF81E307C4A5388D2881344B3F5806F00F36E82BDF81E308D
:2063A0009BB2BBB1BDF81E309BB2ADF81E30BDF81E309BB2002B51D0029E0A27DFF8C88154
:2063C0003DE0C3F387038DF81B30D7E79B08ADF81E30DBE70123E8E736B19DF81B30334449
:2063E0005BF82330CBF800303846FEF701FF82469DF81B003044C0B2FEF7FAFE4AEA000A08
:206400004AEA050504215846FEF79CFE05430520FEF712FB0120FEF729FF054335F00803C7
:2064200040F02C8298F8033013F0C00F18BF45F002050136BDF81E309BB29E420ED29DF8FA
:206440001B30F342F5D09DF81B3033447C2BC3D99DF81B3033447F2BBED8EAE755EA0905A8
:206460007FF470AF06238DF8193037E5D4F83C3223B1434881880830FFF7D0F906238DF830
:2064800019302BE5B4F84032B3F5005F00F2EA810F20FEF7ADFE05464FF40050FEF7E6FE9B
:2064A000054300F1DF81B4F84002013800280FDD00231A46324F344EB9183244097AD2786E
:2064C000914240F0CF8101339BB21A468342F3DB002DD8BF0625EDB28DF81950FEE4FFF7A1
:2064E00037FA0028D8BF0620C0B28DF81900F5E4FFF72EFA054630B1002DD8BF0625EDB2C5
:206500008DF81950EAE44FF480652A461B49584600F07AFD29465846FEF75EFA0546B4F86D
:206520004032B3F5806F35D80E20FEF761FE06464FF48060FEF79AFE56EA000C2DD4B4F8CE
:206540004062BEB111481249002202E0013001311A46531C9BB29E420CD0032BF6D9A2F2A6
:20656000F31292B20B2AF1D907780A789742EDD04FF0FF3C45EA0C05BEE700BFE8420020D4
:20658000C0220020110000200C000020C9220020100000204FF0FF3CECE74FF0FF3CE9E7CA
:2065A000B84BD3F84C345BB1B74DA98805F10800FFF734F905F50055D5F84834984206D1E2
:2065C0004FF0FF324FF40051B048FEF7F3FC06238DF8193082E40F20FEF70AFE4FF40050BF
:2065E000FEF744FE034638B10028CCBF03460623DBB28DF8193071E44FF0FF324FF4005159
:20660000A348FEF7D7FC0623F2E79E4BD3F84C3453B19D4DE9889F48FFF700F905F500550D
:20662000D5F84C34984206D14FF0FF324FF480619848FEF7BFFC06238DF819304EE4B4F863
:206640004012D4F83C02FEF7C7F90E20FEF7D0FDB4F8400278BB4FF48060FEF707FE28B122
:20666000012813D0D1238DF8193037E44FF480618748FEF7B1F94FF0FF324FF4806184483F
:20668000FEF798FC06238DF8193027E44FF480617F48FEF7A1F94FF0FF32039B198D7C487D
:2066A000FEF788FCD1208DF81900FEF743FC01238DF8193012E4FEF7D9FD70B10128D1D1FF
:2066C000B4F840127248FEF787F94FF0FF32039B198D6F48FEF76EFCE4E7B4F840126C4846
:2066E000FEF77AF94FF0FF32B4F840126848FEF761FCC7E7B4F84012D4F83C02FFF78EF890
:206700000F904FF0FF3204210FA8FEF753FC06238DF81930FFF7E2BBB4F84032032B19D883
:20672000DFE803F0020C10140220FEF76BFE002812DDC0B28DF81900FFF7D0BB0020FEF730
:2067400061FEF4E70120FEF75DFEF0E70320FEF759FEECE70620EDE70620EBE74FF0FF3213
:2067600003214D48FEF726FC06238DF81930FFF7B5BB1220FEF73CFD05460120FEF776FDB8
:2067800005434FF0FF3201214148FEF713FC002DD8BF0625EDB28DF81950FFF79FBB3F4B3C
:2067A0003F4A1A601B68934204D0A2238DF81930FFF794BB3B493C4B93FAA3F2B2FA82F285
:2067C00093FAA3F6B6FA86F693FAA3F5B5FA85F593FAA3F4B4FA84F493FAA3F0B0FA80F095
:2067E00093FAA3F393000F229A404B6823EA0203B6000122B2401343AD000322AA4023EA29
:206800000203A4000222A240134380000422824023EA02034B604FF480534B614FF47A705F
:20682000FEF70AF9BFF34F8F2049CA6802F4E0621F4B1343CB60BFF34F8F00BFFDE77F2040
:20684000FEF7A2FD0028D8BF0620C0B28DF81900FFF744BB66238DF81930FFF73FBB062647
:20686000FFF783BB062536E60627FFF7D8BB4FF0FF3545EA09054FE44FF0FF3545EA090554
:2068800060E500BFC0420020C0220020C82200200F000020E8420020F4FF0008FC4F0020E7
:2068A00078563412000801401000100400ED00E00400FA057047FEE7FEE7FEE7FEE7704785
:2068C00070477047034AD2F850320133C2F85032704700BF582000202DE9F0418349CB68ED
:2068E0001A0402F48022DB4303F0040313430B617F4B5B6913F4804F0AD17D4B4FF48042FC
:206900005A617C4B4FF48072C3F88421BDE8F081794B5B78102B40F08280774B9B78092B3D
:2069200026D07249CB681A0402F40022DB4303F0080313430B61704B03F50052956A9A7849
:20694000092A3ED06D4BD3F85432002B42D16A4B0B229A706A4B9C68C4F34034674B83F8B2
:2069600058420122C3F85422634B2B44DC70C4E700210120FDF7EAFF6149624B93FAA3F27D
:20698000B2FA82F293FAA3F3B3FA83F392000F2090404A6822EA00029B00082000FA03F38D
:2069A00013434B60CB684FF4842292FAA2F2B2FA82F223F48423012000FA02F21343CB602C
:2069C000AFE70A229A704D4B0022C3F8542293F85842C9E74A498C68C4F340349C4047490D
:2069E00091F858020443E4B281F858420133C1F85432072BB8D90C2A03D03F4B0C229A70C3
:206A0000B2E74FF488660127FDF7DFFF01284BD13846FDF7FBFF013EF6D1FF24A4E73A4BC8
:206A2000DF6AD3F82880354BD3F85C62072E19D90022C3F85C22304B9B780A2B10D12E4BF2
:206A40000B229A7000262D4BC3F85C6217F8083013F0010F14BF01200020FEF73FFB07E064
:206A60001646F3E7244B9B780A2BE8D0002EEDD04FF488640125FDF7A8FF012822D128460C
:206A8000FDF7C4FF013CF6D137E7013617F80830334113F0010F14BF01200020FEF71EFBF6
:206AA000164BC3F85C6228E70120FEF717FB00210846FDF74BFF0520FDF7A8FF0E4B0D22D0
:206AC0009A7051E7062EE0D901360C4BC3F85C62072E7FF612AF0120FEF700FB1920FDF7D7
:206AE00095FF054B0D229A7007E700BF000801400004014000E100E00C00002058200020B9
:206B0000000C0140200020040C200020014B024A9A60704700ED00E000480008F0B591B04C
:206B2000A84BD3F8443C13F4804F04D0A54A6FF48041C2F8441C13F4005F04D0A14A6FF4B8
:206B40000051C2F8441C13F4805F0ED09D4AD2F8401C21F00C01C2F8401C6FF48051C2F8D7
:206B6000441C994A002182F8341013F4006F0ED0944A6FF40061C2F8441C9349012081F86D
:206B80003400D2F8401C41F00C01C2F8401C13F4806F4DD113F4007F08D08A4A6FF400712D
:206BA000C2F8441C884A002182F8341013F4807F08D0844A6FF48071C2F8441C824A012102
:206BC00082F8341013F4004F3FD07E4A6FF40041C2F8441C03F00F0101F1805202F5B85244
:206BE0009200106813F0100F00F0718140F68F7303401360002940F0228110F4006F00F03A
:206C0000FF80714C082104F11C00FDF7D7FF237F13F0600240F0C580617F0B2900F2C18071
:206C2000DFE801F02F1CBF20BF1571BF24A9646C654B002283F8322083F83520FDF768FF07
:206C4000604B6FF48062C3F8442C11B0F0BDFEF71FF85D4B9A7F83F86022F6E70020FEF7EF
:206C60003DF8F2E70120FEF739F8EEE7564B40229A6201225A6203F13202DA62FEF710F8AB
:206C8000E3E7514A128C00218DF80010812B20D0822B17D0802B03D08020FDF7FBFED4E745
:206CA000494B93F8303013B102238DF80030464B93F831306BB19DF8003043F001038DF89D
:206CC000003006E0012A01D9032A02D101238DF8003000238DF801303B4B40229A620222DF
:206CE0005A62C3F82CD0FDF7DBFFAEE7364B01225A62364ADA62FDF7D3FFA6E7FDF7B6FEA7
:206D0000FDF7C6FFA1E7304BDB8B1A0A022A1ED0032A08D0012A1DD00020FDF7BBFE802089
:206D2000FDF7B8FE91E7DBB2032B0CD8DFE803F002200508264B04220EE0264B20220BE086
:206D4000254B1A2208E00120FDF7A4FE7DE7234B432201E0224B12221B49488C8242A8BFCC
:206D60000246402088624A62CB62FDF799FF6CE71C4B1022F0E7144BDB8B33B9124B002229
:206D800083F8322083F835205FE7FDF76FFE0E4BDA8B83F83220012283F83520FDF778FFC6
:206DA00053E7202A07D1084B5B7F212B1CD0222B23D0202B03D00020FDF76CFE45E7FDF716
:206DC00067FF42E700500040582000203C700008F4700008D4700008507000086C700008E4
:206DE000C0700008B0700008594B40229A6207225A62DB62FDF754FF27E7FDF749FF24E773
:206E0000534B1B7F13F0600308D0202B14D1504B5B7F202B07D0FDF73BFF16E740216846FB
:206E2000FDF7CCFE11E707214948FDF7C7FEFDF72FFFFDF72DFF08E7FDF72AFF05E70229C5
:206E40007FF403AF434BDF6CC7F30907404B9E68DB68F61A48BF06F58076C6F58076B742E4
:206E600013DA3D4BD3F8805237B3E8B2384A9368134483F8380193680133DBB293602D0A0E
:206E8000BE46364C4FF0010C13E0314B00221A76DBE6E8B29368134483F83801936801336F
:206EA000DBB29360BCF1010C12BF2D0A54F8045B8C46BEF1010EECD1F61B3F2E03DC244BCC
:206EC00000221A76C1E60220FDF712FEBDE6204B93F860329BB920F4E14020F070000004FB
:206EE000000C1060B9B101297FF4AFAE184B5A691B699A4229D1164B00225A76A5E6144CF4
:206F000094F8603243F08003154DC5F84C3C002384F86032DFE70E4B1B7F13F0600F7FF427
:206F200094AE0B4B5B7F062B04D0212B0AD0FDF7AFFE8AE6064B5B6A002B7FF786AEFDF7C4
:206F4000AFFE82E6FDF7A4FE7FE6FDF7F3FE7CE658200020006300400060004084620040D9
:206F6000005000400C480D490D4A002302E0D458C4500433C4188C42F9D30A4A0A4C0023C1
:206F800001E013600432A242FBD3FFF7BFFD00F00FF8FEF7FFFC7047000000203C200020C9
:206FA000147100083C20002010470020FEE7000070B500260C4D0D4C641BA410A64209D17A
:206FC00000F030F800260A4D0A4C641BA410A64205D170BD55F8043B98470136EEE755F8E4
:206FE000043B98470136F2E70C7100080C7100080C7100081071000803460244934200D116
:20700000704703F8011BF9E70A44914200F1FF3300D1704710B511F8014B914203F8014FBE
:20702000F9D110BDF8B500BFF8BC08BC9E467047F8B500BFF8BC08BC9E46704700000000BB
:207040005545E892D6B16259FC8AC8F2D6E14A351A034E00540032003000300039003100A9
:2070600030003100340030003000000009024300020100C03209040000010202010005249C
:2070800000100105240100010424020005240600010705830308000109040100020A0000A5
:2070A0000007058102400000070502024000000010034E00750076006F0074006F006E00A5
:2070C000120100020200004016041150000101020301000020035500530042002000560053
:2070E000690072007400750061006C00200043004F004D00040309045545E892D6B1625996
:20710000FC8AC8F2D6E14A3500000000314900080D4900080024F400FFFFFFFFFF00000006
:2071200000100A000000000000000000000000000000000000000000000000000000000035
:2071400000000000000000000000000000000000000000000000000000000000000000002F
:2071600000000000000000000000000000000000000000000000000000000000000000000F
:207180000000000000000000000000000000000000000000000000000000000000000000EF
:2071A0000000000000000000000000000000000000000000000000000000000000000000CF
:2091400000000000000000000000000000000000FFFFFFFFFFFFFFFFFFFFFFFFFFFFFFFF1F
:20916000FFFFFFFFFFFFFFFFFFFFFFFFFFFFFFFFFFFFFFFFFFFFFFFFFFFFFFFFFFFFFFFF0F
:20918000FFFFFFFFFFFFFFFFFFFFFFFFFFFFFFFFFFFFFFFFFFFFFFFFFFFFFFFFFFFFFFFFEF
:2091A000FFFFFFFFFFFFFFFFFFFFFFFFFFFFFFFFFFFFFFFFFFFFFFFFFFFFFFFFFFFFFFFFCF
:2091C000FFFFFFFFFFFFFFFFFFFFFFFFFFFFFFFFFFFFFFFFFFFFFFFFFFFFFFFFFFFFFFFFAF
:20FFE000FFFFFFFFFFFFFFFFFFFFFFFFFFFFFFFFFFFFFFFF01000200000000009E75B38EBE
:0400000508006F651B
:00000001FF
