:020000040800F2
:200000000050002055130008090F00080B0F00080D0F00080F0F0008110F0008000000004C
:20002000000000000000000000000000130F0008150F000800000000170F0008190F00080C
:200040009D1300089D1300089D1300089D1300089D1300089D1300089D1300089D130008E0
:200060009D1300089D1300089D1300089D1300089D1300089D1300089D1300089D130008C0
:200080009D1300089D1300089D1300089D130008210F00089D1300089D1300089D13000820
:2000A0009D1300089D1300089D1300089D1300089D1300089D1300089D1300089D13000880
:2000C0009D1300089D1300089D1300089D1300089D1300089D1300089D1300089D13000860
:2000E0009D1300089D1300089D1300080000000000000000000000000000000000000000D8
:2001000000000000000000005FF808F110B5054C237833B9044B13B10448AFF3008001234D
:20012000237010BD2001002000000000943D000808B5034B1BB103490348AFF3008008BDF0
:200140000000000024010020943D0008F0B5024601F120040B7803704B7843708B7883701C
:20016000CB78C37004310430A142F3D108241B4D1B4E1DE0042F05D1695C15F80EE015F829
:200180000CC0285C1F78794083F8201059788EEA010E83F821E099788CEA010C83F822C04F
:2001A000D978484083F82300013404323C2C14D01346117F92F81DE092F81EC0D07F14F0E6
:2001C0000707D7D115F80E7015F80CE015F800C0685CE108715C7940D4E7F0BD143E000823
:2001E000083E000830B5040101F1040E01F11405AEF1040302EB040C19781CF8010B4140E3
:2002000003F8011B7345F7D104340EF1040EAE45EED130BD08B5FFF799FF08BD00B5D1F8D1
:2002200000E0D1F804C08A68CB68C0F8F0E0C0F8F4C0C0F8F820C0F8FC305DF804FB30B54B
:2002400085B08446EE460068DCF80410DCF80820DCF80C30AEE80F000546084611461A461A
:20026000C40744EA55040094CC0744EA50040194DC0744EA51040294CB0883EA90036B4034
:2002800083EAD11383EA5213520842EAC3730393EE46BEE80F00CCF80000CCF80410CCF8A0
:2002A0000820CCF80C3005B030BD00002DE9F04F89B002910392002A00F0C2808046002379
:2002C000009300F1F00301935F4DAAE0424604A93046FFF787FF0136F6B204AC224600239C
:2002E00012F82310695C02F823100133042BF7D10132BA42F3D19DF811309DF815208DF88C
:2003000011209DF819208DF815209DF81D208DF819208DF81D309DF812309DF81A208DF897
:2003200012208DF81A309DF816309DF81E208DF816208DF81E309DF813309DF81F208DF84F
:2003400013209DF81B208DF81F209DF817208DF81B208DF817300E2E49D004F11000237889
:2003600094F801A083EA0A0B94F802E0E1788EEA01098BEA090C4FEADB1202EB420202EBB7
:20038000C20282EA4B0B83EA0C028BEA020B84F800B08AEA0E0B4FEADB1202EB420202EBDD
:2003A000C20282EA4B0B8AEA0C0A8BEA0A0A84F801A04FEAD91202EB420202EBC20282EA15
:2003C00049028EEA0C0E82EA0E02A27083EA0102D30903EB430303EBC30383EA420381EA61
:2003E0000C014B40E37004348442B8D16EE7424604A90E20FFF7F6FE029B5A1E04F11000CF
:2004000014F8013B12F8011F4B4013708442F7D10198FFF714FF009B10330093039A9A4242
:200420000ED904AC019B186859689A68DB680FC4424604A90020FFF7D5FE012605AF4CE704
:2004400009B0BDE8F08F00BF143E000898B500AFCB1D03F4FC73ADEB030D89B16A46013A8F
:200460000C189446034613F801EB0CF801EFA342F9D1014412F8013F01F8013D8142F9D148
:20048000BD4698BD00B583B0244B5A6942F040025A615B6903F040030093009B204B012205
:2004A0009A605FEA910C16D000EB8C0C1A4650F8043B93FAA3F3019313608445F7D1184BEE
:2004C0001B6893FAA3F3019311F0030115D00CEB0100144903E08446F1E760450CD01CF889
:2004E000012B5340082213F0010F14BF81EA53035B08013AF7D1F0E70193019BDB4301934D
:20050000064A536923F04003536104210DEB0100FFF79CFF019803B05DF804FB0010024024
:20052000003002402083B8ED08B502490248FFF771FE08BD243F00083C010020F0B585B0E3
:2005400004460D46C2F3072EC2F3074C170E22496B4604AE08785040187048788EEA000049
:20056000587088788CEA00009870C8787840D87004310433B342EDD1009F019E029A039861
:200580006421D30883EA96037B4083EAD21383EA50134FEAC67C4CEA57074FEAC27C4CEA5C
:2005A00056064FEAC07C4CEA5202DB0743EA50004B1E13F0FF01E4D100970196029203900B
:2005C000064E69463046FFF729FE2A4621463046FFF76CFE05B0F0BD143F00083C010020BE
:2005E0002DE9F04F89B005460E46174600F0C8FF00F016FA40B1102F01D000240EE02A4637
:2006000010213046FFF79AFF514B9D420AD0504B9D4280F09580012400F0C8FF204609B055
:20062000BDE8F08F002303930493494B06933023079303A904A801F05FF800287ED115F010
:20064000030229D025F00301C2F10403BB42A8BF3B46FF208DF810008DF811008DF8120003
:200660008DF8130013EA000411D004A8024404F1FF3C5FFA8CFC334416F8010B02F8010B66
:200680009E42F9D1013565443F1BFFB21E46049A0023022000F0CAFF032F35D9341D3B1FDB
:2006A000C3F38502009203F0FC03019306F1080999444FF0000BA5F10408A8EB06084FF034
:2006C000020A14F8043C8DF8103014F8033C8DF8113014F8023C8DF8123014F8013C8DF80D
:2006E0001330049A5B4608EB0401504600F09EFF04344C45E5D10435019B1D44009B0133D9
:2007000006EB830607F00307B7B1FF238DF810308DF811308DF812308DF8133004AB374490
:2007200016F8012B03F8012BBE42F9D1049A00232946022000F07AFF01246DE700246BE7E4
:200740007A1903F540439A427FF679AF012463E70048000838B5C1F30803002B40F00381C8
:20076000044671B3B1F5406F2BD0B1F5007F3CD0B1F5606F39D0B1F5806F6CD0B1F5805FB6
:2007800069D0A1F50B12A2F56052B2F5085F07D3A1F54513A3F57053B3F5085F80F0938061
:2007A0009208724B994264D0714B994275D0531C043C813244F8043F01339342FAD1012021
:2007C00012E05A226B49204603F0CEFA4FF4D272002104F15A0003F0D5FA552384F8FE31FA
:2007E000AA2384F8FF31012038BD4FF400720021204603F0C7FA00235222227062706122FC
:20080000A2704121E170722084F8E40184F8E50184F8E61184F8E7216FF0410284F8E821A0
:200820006FF0670284F8E921032284F8EA2184F8EB31052284F8EC21082284F8ED2184F846
:20084000EE3184F8EF31552384F8FE31AA2384F8FF310120C8E74FF400720021204603F042
:2008600091FA552384F8FE31AA2384F8FF310120BAE7414B23604FF0FF3363606FF070433A
:20088000A360E36044F8103F931D813244F8043F01339342FAD10120A6E7531C211F05323D
:2008A00041F8043F01339342FAD123466FF0704243F8102F04F5FE74002243F8042FA34214
:2008C000FBD1012090E7B1F5800F06D04FF40072002103F057FA012086E74FF4007200212B
:2008E00003F050FA254B03CB206061601A889B782281A3720823E3724FF0000E6FF063023E
:20090000227450236374A274E374227663761C4D03CD206261622888A978208584F82A106F
:20092000202184F82B10182184F82C1084F8302084F8313084F8322084F8333084F83820A4
:2009400084F83930052384F83A3084F83BE084F83CE06FF03F0384F83D3084F83EE084F8D5
:200960003FE0012040E700203EE700BF00F8220000182300AC3D0008F8FFFF0F443F000836
:20098000503F000838B5C1F308031BBB0546B1F5800F21D314D1044600F5007502E02034FB
:2009A000AC420BD0237A482BF9D1637A452BF6D1A37A582BF3D100F013F8F0E701200AE03F
:2009C000064800F027F84FF40071284600F02EF8012000E0002038BD0120FCE7E10500087A
:2009E0000023064A1370064A1380064A1380064A1370064A1370064A137070475103002097
:200A00003E0200203C0200204E030020480200204F030020014B1860704700BF440200202B
:200A2000014B1878704700BF48020020002900F004812DE9F0470025441E0844461E884F01
:200A4000DFF82082DFF8209245E0591EC9B20A291BD8A2F13005EDB2092D0DD9A2F14101FF
:200A6000C9B205291CD9A2F16101C9B2192900F2E880A2F15705EDB27C49097881F0010086
:200A800091B97B490D70794908700B2B00F2DC80DFE803F02D1616484848485056667D80D1
:200AA000A2F13705EDB2E7E7DFF8C8C17049097845EA01119CF800E071448CF80010E2E799
:200AC00098F8002045EA021288F8002001333B70A64200F0B08014F8012F002A00F0AF8017
:200AE0003B78002BB1D163490B7060490B700D2AEED00A2AECD03A2A40F0A8804FF0000A61
:200B000088F800A089F800A05B4BA3F800A0FF2251465A4803F036F9594BA3F800A0012334
:200B20003B70D5E754490A8845EA02120A8001333B70CDE7002D40F08B8008233B70C7E7D3
:200B4000052D02D90E2D40F0858089F8005098F8003013B90A233B70BAE709233B70B7E7CD
:200B600047490B88C3F34700DFF810C11CF8002045EA02120CF8002001339BB20B8098F876
:200B80000020B2EB530FA3D80A233B70A0E70B233B709DE73A4B1A8898F80030B2EB430F29
:200BA0005AD1344B1B78002B58D199F80030022B18D0042B21D0002B31D1324B1B6873B15D
:200BC0003149097821B3314909882B48008800EB0110C2F3470229499847002832D00023A8
:200BE0003B7075E7254A1178537843EA0123274A1380254B01221A70F1E7204A1178537823
:200C000043EA0123214A13801F4B00221A70E6E71E4909881848008840EA0140D9E70E2B5E
:200C200003D11B4B01221A70D9E7012BD7D1194B01221A70D3E7012004E001207047012070
:200C400000E00020BDE8F0870020FBE70020F9E70020F7E70020F5E70020F3E70020F1E78A
:200C60005103002040020020500300204202002052030020410200203E0200204C02002021
:200C80004C030020440200204E0300203C020020480200204F030020014B1878704700BF82
:200CA0004F030020124BD3F80038013B13F1030F17D90F4BD3F80438013B13F1030F12D982
:200CC0000B4BD3F80838013B13F1030F0DD9084BD3F80C08013810F1030F8CBF0020012071
:200CE000704701207047012070470120704700BF0040000808B54BF2FC710548FFF7C2FB47
:200D0000044BD3F8FC3F834214BF0020012008BD0048000800F00008B0B500AF064CD4F866
:200D2000045800F03DFBD4F8003883F30888034B034A9A60A847B0BD0040000800ED00E01F
:200D400000480008024B9868C04300F0010070470008014008B54FF4FA7001F0E1FE0A4876
:200D600000F0B4FD4FF47A7001F0DAFEBFF34F8F0649CA6802F4E062054B1343CB60BFF310
:200D80004F8F00BFFDE700BF7805002000ED00E00400FA0510B52A4A136823F0070343F0A2
:200DA000010313601368A2F58052136823F0F80343F080031360136843F001031360136886
:200DC00013F0020FFBD01F4A536823F47C1343F420135360136843F080731360136813F0BB
:200DE000007FFBD0174B5A6822F0F0025A605A6822F4E06242F480625A605A6822F4605251
:200E00005A605A6822F0030242F002025A601A46536803F00C03082BFAD10B4C204601F086
:200E20006FFE4FF0E022136943F004031361204601F08EFE034A536843F48003536010BDB5
:200E40000020024000100240006CDC0200B587B000F0DCFAFFF79EFF00230393049303F10B
:200E6000804303F504339A6942F004029A619B6903F004030093009B40F201130193082319
:200E800002930123059301A90C4801F02DF9FFF709FF10B1FFF756FF48B1FFF745FB00F0C3
:200EA0006DF8FFF7F9FE0028FBD0FFF753FFFFF721FF0028F1D0FFF72FFFFEE70008014054
:200EC0007047000082B00E4B9A6942F001029A619A6902F001020092009ADA6942F0805232
:200EE000DA61DB6903F080530193019B054A536823F0E06343F00073536002B0704700BF9C
:200F000000100240000001407047FEE7FEE7FEE7FEE770477047704708B500F089FA08BDD9
:200F200008B5024800F080FD08BD00BF780500200F4B1A6842F001021A6059680D4A0A402F
:200F40005A601A6822F0847222F480321A601A6822F480221A605A6822F4FE025A604FF482
:200F60001F029A60044B4FF000629A60704700BF001002400000FFF800ED00E008B5002201
:200F80000F49104802F00EFB70B90F490D4802F020FB60B90D490B4801F0C5FE50B90948F3
:200FA00002F01EFB48B908BDFFF78AFFEDE7FFF787FFEFE7FFF784FFF1E7FFF781FFF2E71B
:200FC00004000020540300207C0000205400002020B1022814BF02200120704770470000E7
:200FE00002680E4B9A4200D0704700B583B003F5DA33DA6942F40002DA61DB6903F40003EA
:201000000193019B00221146142000F035FA142000F068FA03B05DF804FB00BF005C0040EC
:2010200008B500F22C41D0F85C0402F0F1FA08BD08B500EB4113D3F83C22D0F85C0402F08B
:2010400014FB08BD08B500EB4113DA6BD0F85C0402F041FB08BD08B5D0F85C0402F0C5FBC9
:2010600008BD10B504468368022B09D10121D4F85C0402F0A8FBD4F85C0402F085FB10BD5C
:20108000FFF71EFFF2E7000010B50446D0F85C0402F09CFBA36923B1024A136943F00603C0
:2010A000136110BD00ED00E008B5D0F85C0402F096FB08BD10B504461948C0F85C44C4F871
:2010C0002002184B0360082343600223836000238361C361036200F073FBE8B91823002266
:2010E0001146D4F8200200F0E7FF582300228021D4F8200200F0E0FF982300228121D4F88F
:20110000200200F0D9FFD82300220121D4F8200200F0D2FF002010BDFFF7D2FEDEE700BFC0
:2011200078050020005C004008B5D0F8200200F0B6FBFFF74DFF08BD08B594461A46634687
:20114000D0F8200200F0EEFBFFF742FF08BD08B5D0F8200200F00CFCFFF73AFF08BD08B580
:20116000D0F8200200F08DFFFFF732FF08BD08B5D0F8200200F031FFFFF72AFF08BD08B5B5
:20118000D0F8200200F056FFFFF722FF08BDD0F8203211F0800F01F07F0103EB411114BF16
:2011A00091F82A0091F82A02704708B5D0F8200200F0A4FBFFF70CFF08BD08B5D0F820026D
:2011C00000F018FCFFF704FF08BD08B5D0F8200200F0F0FBFFF7FCFE08BD08B5D0F820026F
:2011E00000F001FC08BD000000487047D80900207047704712230B800048704720000020D0
:2012000004230B800048704734000020B2B14B1C02F1FF3C5FFA8CFC033101EB4C014FF044
:20122000000C020FB0F1204F34BF3032373203F8012C000103F802CB8B42F2D1704700008B
:2012400038B51A230B800C4BD3F8E807D3F8F037C01801D1094838BD074BD3F8EC57074C33
:201260000822A11CFFF7D2FF042204F112012846FFF7CCFFEEE700BF00F0FF1F3800002069
:2012800008B50A460249034802F0F1FC004808BD480C00205C3F000810B50A46034C2146DD
:2012A000034802F0E4FC204610BD00BF480C0020703F000808B50A460249034802F0D7FC8C
:2012C000004808BD480C0020843F000808B50A460249034802F0CBFC004808BD480C0020E5
:2012E000903F0008002070474FF470330B604FF40073138000207047002070470020704721
:201300000020704783B1F8B552021F460C460025561AA1192046FFF735FB04F5007401358C
:20132000AF42F6D10020F8BD0020704783B1F8B552021F460C460025561AA1192046FFF7B2
:2013400009FA04F500740135AF42F6D10020F8BD002070470C480D490D4A002302E0D45851
:20136000C4500433C4188C42F9D30A4A0A4C002301E013600432A242FBD3FFF7D9FD02F0E5
:20138000CFFCFFF763FD70470000002020010020E43F000820010020740E0020FEE770476A
:2013A00010B5064B4FF0FF32DA6000241C61DA60DC60FFF7F4FF204610BD00BF0010024029
:2013C00010B504460E4B18784FF47A73B3FBF0F30C4A1068B0FBF3F000F090F868B90F2C24
:2013E00001D901200AE0002221464FF0FF3000F043F8054B1C60002000E0012010BD00BF6D
:2014000074000020000000207800002008B5074A136843F010031360032000F01BF80020F8
:20142000FFF7CEFFFFF74EFD002008BD00200240034A1168034B1B780B441360704700BF82
:20144000480E002074000020014B1868704700BF480E00200749CA68030203F4E06322F4F3
:20146000E0621204120C134343F0BF6343F40033CB60704700ED00E000B5184BDB68C3F321
:201480000223C3F1070CBCF1040F28BF4FF0040C03F1040EBEF1060F8CBF033B00234FF0B5
:2014A000FF3E0EFA0CFC21EA0C0199400EFA03F322EA03021143002809DB0901C9B200F109
:2014C000604000F5614080F800135DF804FB00F00F000901C9B2024B1954F6E700ED00E00F
:2014E00014ED00E0420900F01F00012303FA00F0014B43F82200704700E100E00138B0F1A5
:20150000807F0BD24FF0E0235861054AF02182F823100020986107221A617047012070479B
:2015200000ED00E0144BDB6813F0100305D0134AD36943F00203D36110230F4AD26812F084
:20154000040F06D00D49CA6942F00102CA6143F00403094AD26912F0010F09D00749CA6983
:2015600042F00402CA610449CA6922F00102CA61014AD360704700BF00200240500E002074
:20158000084B1B6913F0800F09D0064B064A5A6002F188325A601869C0F3C010704700206C
:2015A000704700BF0020024023016745034A136943F0800313610020704700BF0020024098
:2015C00070B50446FFF740FF0646174DEB6813F0010F0AD0B4F1FF3FF8D01CB3FFF734FFD4
:2015E000801BA042F2D903201BE00F4BDB6813F0200F02D00C4B2022DA600B4BDB6813F075
:20160000100F0BD1084BDB6913F0010F06D1064BDB6813F0040F01D1002002E0FFF782FF59
:20162000012070BD0320FCE7002002402DE9F84F1F46264B1B7E012B45D004460D46904674
:20164000224B01221A764CF25030FFF7B9FF034680BB012C34D0022C0CBF4FF002094FF0C7
:20166000040905EB49090024DFF860B0A246184EC4F12001A4F1200228FA04F307FA01F129
:201680000B4327FA02F213439BB2CBF81CA0326942F0010232612B804CF25030FFF790FF74
:2016A000336923F001033361034618B9103402354D45DDD1054A002111761846BDE8F88F8D
:2016C0004FF00109CDE70223F7E700BF500E002000200240064B0022DA61064B1A6942F0B7
:2016E00002021A6158611A6942F040021A617047500E0020002002402F4B1B7E012B58D042
:201700002DE9F04105460F462B4B01221A760368022B26D04CF25030FFF752FF00283FD1EE
:201720004FF0FF333B60AC68EB6804EB83239C423DD24CF25038214E2046FFF7CBFF4046D3
:20174000FFF73EFF336923F002033361014628BB04F58064EA68AB6803EB8223A342EBD867
:201760001FE04CF25030FFF72BFF08B1012118E0114B0022DA61114C236943F00403236159
:20178000236943F0400323614CF25030FFF718FF0146236923F00403236102E03C6000E029
:2017A0000121054B00221A760846BDE8F0810121F7E7022108467047500E00200020024099
:2017C00000286AD030B587B0044690F82934002B5ED0032384F82934206800F02DFDA44678
:2017E0005CF8105BEE46BCE80F00AEE80F00DCF80030CEF80030231D0ECB284600F00CFD24
:201800000021206800F022FD2346224600214FF0010C084682F829C082F82810918682F8DE
:201820002B009063D0631064013120320F29F1D100210A4683F8292283F82812998683F8DF
:201840002B22C3F83822C3F83C22C3F84022013120330F29EED1A4465CF8105BEE46BCE8F3
:201860000F00AEE80F00DCF80030CEF80030231D0ECB284600F0ECFC002584F82450012322
:2018800084F82934206801F007F8284607B030BD80F82834FFF7A4FB9BE70120704790F89A
:2018A0002834012B10D010B50446012180F82814FFF79FFC206800F0EDFF206800F0B3FCBF
:2018C000002084F8280410BD0220704790F82834012B11D010B50446012380F8283400683A
:2018E00000F0AAFC206800F0C4FF206800F0D4FF002084F8280410BD0220704790F828347A
:20190000012B0DD010B50446012380F8283480F82410006800F0B8FF002084F8280410BD67
:201920000220704710B504468E4648B2002801F07F0C04EB4C1CB4BF0CF128010CF50A71E1
:201940000EF07F0E81F800E0C00F48700A61CB7094F82834012B09D0012384F82834206805
:2019600000F092FC002084F8280410BD0220FCE710B504460B464AB2002A01F07F0100EB6D
:201980004111B4BF283101F50A7103F07F030B70D20F4A7090F82834012B09D0012380F8A8
:2019A0002834006800F006FE002084F8280410BD0220FCE710B501F07F044FEA441C0CF502
:2019C0000A7101448444CCF83C22CCF840320023CCF844328CF829328CF82842006800F0A5
:2019E00077FF002010BD01F00F0100EB4110B0F84402704710B501F07F044FEA441C0CF1D3
:201A0000280101448444CCF83C20CCF840300023CCF8443001238CF829308CF8284000688C
:201A200000F056FF002010BD2DE9F04383B00446006800F033FF10F4004F4BD1206800F03D
:201A40002DFF10F4806F40F06782206800F026FF10F4804F08D02268B2F8443023F4804384
:201A60001B041B0CA2F84430206800F017FF10F4005F08D02268B2F8443023F400531B0418
:201A80001B0CA2F84430206800F008FF10F4805F40F05382206800F001FF10F4006F40F08F
:201AA0006B82206800F0FAFE10F4007F40F08882206800F0F3FE10F4807F08D02268B2F894
:201AC000443023F480731B041B0CA2F8443003B0BDE8F0830023ADF80430ADF8063020680A
:201AE000B0F844309BB2ADF8043013F4004FA5D040F60F774CF2800840F68F768BE1038825
:201B00009BB223F4E14323F070039BB203802268B2F850309BB294F8281003EBC10302EB83
:201B20004303D3F80434C3F309036364E26B1344E36300212046FFF785FA94F82430002BE2
:201B400000F05F81236C002B40F05B8194F82430226843F08003A2F84C30002384F82430C6
:201B60004FE1B0F850309BB294F8282203EBC20300EB4303D3F80C34C3F30903C4F8443207
:201B8000B4F82C2204F22C4100F0ABFF22681388334013802046FFF743FA32E1B4F82C227D
:201BA000D4F83C1200F09DFFD4F83C32D4F844221344C4F83C325FE1C0F34F0210F0010F3E
:201BC0001CBF013292B2920292B241F8132072E130F825309BB2ADF80630BDF8063013F485
:201BE000004F34D1BDF8063013F0800F00F00981226832F825309BB223F4E14323F0700383
:201C00009BB222F8253004EB451393F83230002B40F0B3802068B0F850309BB204EB451203
:201C200092F82820023303EBC20300EB4303D3F80034C3F3090304EB45125364002B00F0E0
:201C4000C5801146928DC96B00F02EFEBEE030F82530334020F8253004EB451393F8323248
:201C6000EBB92068B0F850309BB204EB451292F82822063303EBC20300EB4303D3F800348D
:201C8000C3F30909B9F1000F30D004EB45114B46B1F82C22D1F83C1200F023FF26E020683F
:201CA00004EB451393F8282230F8223013F4804F42D0B0F850309BB2023303EBC20300EB5E
:201CC0004303D3F80034C3F30909B9F1000F29D104EB451393F82812226832F821303B40B8
:201CE00043F4004343F0C00322F8213004EB4513D3F844224A44C3F844221946D3F83C225A
:201D00004A44C3F83C22D3F840321BB1D1F8381289452AD204EB451393F828122046FFF7CE
:201D200087F95FE704EB45114B46B1F82E22D1F83C1200F0D6FECBE7B0F850309BB20633D3
:201D400003EBC20300EB4303D3F80034C3F30909B9F1000FBCD004EB45114B46B1F83022C2
:201D6000D1F83C1200F0BDFEB2E704EB451191F828122046FFF71EFE34E7206804EB45139E
:201D800093F8282030F8223013F0400F00F0A880B0F850309BB2023303EBC20300EB4303FE
:201DA000D3F80034C3F3090304EB45125364002B40F0908004EB451393F82810226832F83C
:201DC00021303B4048EA030322F821302268B2F850309BB204EB451090F8281003EBC103DD
:201DE00002EB4303D3F80424C2F309024264C36B1A44C263036C002B40F08A802046FFF776
:201E000021F92068B0F844309BB2ADF8043013F4004F3FF413AEBDF8045015F00F057FF4FF
:201E2000D7AEBDF8043013F0100F3FF468AE03889BB2ADF80630BDF8063013F4006F7FF442
:201E400090AEBDF8063013F4004FDAD00388334003802068B0F850309BB294F8282203EB17
:201E6000C20300EB4303D3F80C34C3F30903C4F84432002B7FF492AE00212046FFF7D8F842
:201E80002168B1F850309BB2063301F58061D4F838023E287FF690AEC0F34F1210F01F0FD2
:201EA00004BF02F1FF3292B26FEAC2626FEA524292B241F81320226813889BB223F4804391
:201EC00023F0700383F4405343F4004343F08003138096E71146D28DC96B00F0E5FC69E727
:201EE000B0F850309BB2063303EBC20300EB4303D3F80034C3F3090304EB45125364002B67
:201F00003FF458AF1146128EC96B00F0CDFC51E72046FFF76FFD74E72268B2F8443023F489
:201F200080631B041B0CA2F844302046FFF799F800212046FFF7E2FC87E52268B2F8403012
:201F400023F004031B041B0CA2F840302268B2F8403023F008031B041B0CA2F8403020469F
:201F6000FFF7A2F82268B2F8443023F480531B041B0CA2F844308DE52268B2F840309BB288
:201F800043F00803A2F840302268B2F8443023F400631B041B0CA2F844302268B2F84030DF
:201FA0009BB243F00403A2F84030206800F076FC10F4805F7FF475AD2046FFF765F870E520
:201FC0002268B2F8443023F400731B041B0CA2F844302046FFF73FF86AE538B505460B4610
:201FE0004AB2002A18DB00EB411101F50A710120887003F07F040C70D20F4A7095F828348B
:20200000834215D085F82804286800F0B4FB4CB1002085F8280438BD01F07F0100EB4111D5
:202020002831E4E705F22C41286800F03BFCEFE70220F0E710B504460B464AB2002A18DB19
:2020400000EB411101F50A710020887003F07F030B70D20F4A7094F82834012B0FD0012318
:2020600084F82834206800F0BBFB002084F8280410BD01F07F0100EB41112831E4E70220D1
:20208000F6E790F82834012B14D010B50446012380F8283411F0800F06D1006800F0F2F8BF
:2020A000002084F8280410BD01F07F01006800F0E7F8F5E70220704711F0800F09D001F0D4
:2020C0007F0100EB4110283042B9827283800020704700EB411000F50A70F5E70122827285
:2020E000C3801B0C0381F2E70B68C3F30F2C9CFAACF2B2FA82F23CFA02F300F08B802DE925
:20210000F04F01240F254FF003084FF0011640F20117E64636E093FAA3F9B9FA89F993FA10
:20212000A3FABAFA8AFA4FEA890908FA09F950F80CB02BEA09094FEA8A0AD1F808B00BFA7D
:202140000AFA49EA0A0940F80C9093FAA3FABAFA8AFA93FAA3F3B3FA83F34FEA8A0A4FF0AD
:20216000040B0BFA0AFA29EA0A0A9B00D1F80C9009FA03F34AEA030340F80C3001323EFA0E
:2021800002F344D004FA02F313EA0E0FF6D0072A91BF07FA02F3A2F1080306FA03F343F025
:2021A00080634FEA136C93FAA3F9B9FA89F993FAA3FABAFA8AFA4FEA890905FA09F950F8B0
:2021C0000CB02BEA09094FEA8A0AD1F804B00BFA0AFA49EA0A0940F80C90D0F80C904FEA12
:2021E000132B9BFAABFABAFA8AFA29EA0B09D1F810B00BFA0AFA49EA0A09C0F80C90D1F813
:20220000049029F00809B9F1010FB7D183E70120BDE8F08F0120704784B001A880E80E00E4
:20222000002004B07047B0F840309BB243F43F43A0F8403000207047B0F8403023F4745320
:202240005B045B0CA0F84030002070470020704784B0844601A880E80E000123ACF84030AD
:202260000020ACF84000ACF84400ACF85000BCF840309BB243F43F43ACF8403004B07047D5
:20228000002070470020704710B4CB78032B0FD8DFE803F0026E55610A7830F822309BB24B
:2022A00023F4EC4323F0700343F4007320F822300A7830F8223023F0F0031B051B0D13439E
:2022C00043F4004343F0800320F822308B7A002B40F0B1804B78002B57D0B0F850309BB249
:2022E0000A7803EBC20300EB43038A8852085200C3F800240A7830F8223013F0400F0BD0B2
:2023000030F8223023F0F0031B051B0D43F4004343F0C00320F822300A7830F822309BB2D2
:2023200023F4E04323F0400383F0200343F4004343F0800320F82230002010BC70470A78B8
:2023400030F822309BB223F4EC4323F070039BB220F82230ACE70A7830F822309BB223F440
:20236000EC4323F0700343F4C06320F822309FE70A7830F822309BB223F4EC4323F0700349
:2023800043F4806320F8223092E7B0F850309BB200F5806C0A78043303EBC2038A88520812
:2023A00052004CF81320B0F850309BB20A78063303EBC2030C693E2C31D9C4F34F1214F06C
:2023C0001F0F04BF02F1FF3292B26FEAC2626FEA524292B24CF813200A7830F8223013F47C
:2023E000804F0BD030F8223023F0F0031B051B0D43F4404343F0800320F822300A7830F8E7
:2024000022309BB223F4804323F0700383F4405343F4004343F0800320F822308CE7C4F3EF
:202420004F0214F0010F1CBF013292B2920292B24CF81320D0E70A7830F8223023F4F87361
:202440001B051B0D43F4014343F0800320F82230B0F850309BB200F5806C0A7803EBC2030E
:20246000CA88520852004CF81320B0F850309BB20A78043303EBC2030A89520852004CF883
:2024800013204B78002B4BD10A7830F8223013F4804F0BD030F8223023F0F0031B051B0D8A
:2024A00043F4404343F0800320F822300A7830F8223013F0400F0BD030F8223023F0F00399
:2024C0001B051B0D43F4004343F0C00320F822300A7830F8223023F0F0031B051B0D43F459
:2024E000004343F0C00320F822300C7830F824309BB223F4804323F0700383F4405348F248
:202500008002134320F82430097830F821309BB223F4E04323F04003134320F821300BE7EF
:202520000A7830F8223013F4804F0BD030F8223023F0F0031B051B0D43F4404343F08003B6
:2025400020F822300A7830F8223013F0400F0BD030F8223023F0F0031B051B0D43F40043A6
:2025600043F0C00320F822300A7830F8223023F0F0031B051B0D43F4404343F0800320F829
:2025800022300C7830F824309BB223F4E04323F0400348F28002134320F82430097830F8E5
:2025A00021309BB223F4804323F07003134320F82130C1E68B7A002B44D14B780BB30A786F
:2025C00030F8223013F0400F0BD030F8223023F0F0031B051B0D43F4004343F0C00320F804
:2025E00022300A7830F822309BB223F4E04323F0400343F4004343F0800320F822300020F6
:2026000070470A7830F8223013F4804F0BD030F8223023F0F0031B051B0D43F4404343F0A1
:20262000800320F822300A7830F822309BB223F4804323F0700343F4004343F0800320F8BC
:202640002230DCE74B78002B4AD10A7830F8223013F4804F0BD030F8223023F0F0031B050F
:202660001B0D43F4404343F0800320F822300A7830F8223013F0400F0BD030F8223023F0A2
:20268000F0031B051B0D43F4004343F0C00320F822300A7830F8223023F0F0031B051B0DDB
:2026A00043F4004343F0C00320F8223091F800C030F82C309BB223F4804323F0700348F28C
:2026C0008002134320F82C30097830F821309BB223F4E04323F04003134320F821308EE7A3
:2026E0000A7830F8223013F4804F0BD030F8223023F0F0031B051B0D43F4404343F08003F5
:2027000020F822300A7830F8223013F0400F0BD030F8223023F0F0031B051B0D43F40043E4
:2027200043F0C00320F822300A7830F8223023F0F0031B051B0D43F4404343F0800320F867
:20274000223091F800C030F82C309BB223F4E04323F0400348F28002134320F82C30097876
:2027600030F821309BB223F4804323F07003134320F8213043E70A7882B903889BB223F49E
:20278000804323F0400383F4805383F0100343F4004343F080030380002070474B787BB1D7
:2027A00030F822309BB223F4E04323F0400383F0100343F4004343F0800320F82230EBE7D0
:2027C00030F822309BB223F4804323F0700383F4805343F4004343F0800320F82230DBE72C
:2027E0004B781BB30A7830F8223013F0400F0BD030F8223023F0F0031B051B0D43F40043DD
:2028000043F0C00320F822300A7830F822309BB223F4E04323F0400383F0300343F400435F
:2028200043F0800320F82230002070470A7830F8223013F4804F0BD030F8223023F0F00374
:202840001B051B0D43F4404343F0800320F822300A7830F822309BB223F4804323F07003AD
:2028600083F4405343F4004343F0800320F82230DAE703460122A0F840200020A3F8440090
:202880000322A3F84020704711B98023A0F84C30002070470020704700207047B0F844006F
:2028A00080B2704700207047013300F5806000EB420258100BD0023111F801CC11F8023C8D
:2028C00043EA0C2322F8043B02310138F4D17047F8B505460C468E694B78012B37D00A69B1
:2028E000B2423ABFB11A16460021A161A27A002A40F09B80B0F850309BB22278063303EBDA
:20290000C20300F580613E2E40F28380C6F34F1216F01F0F04BF02F1FF3292B26FEAC26285
:202920006FEA524292B241F81320227835F822309BB223F4804323F0700383F4405343F4F3
:20294000004343F0800325F822300020F8BD0B69B3423ABFF21A1E4600228A618B7A002B2B
:2029600036D00A7830F8223013F0400FB0F850309BB203F1020303EBC20300EB4303C3F8F6
:20298000006414BF0A89CA88B3B24969FFF78CFF637873BB227835F8223023F0F0031B053B
:2029A0001B0D43F4004343F0C00325F82230227835F822309BB223F4E04323F0400383F0A7
:2029C000300343F4004343F0800325F82230BCE7B3B28A884969FFF767FFB5F850309BB283
:2029E0002278023303EBC20305EB4303C3F80064DDE7012BDBD1227835F8223023F0F00345
:202A00001B051B0D43F4404343F0800325F82230CDE7C6F34F0216F0010F1CBF013292B269
:202A2000920292B241F813207FE7002B7FF47DAFB0F850309BB200F580602278023303EB1B
:202A4000C2033E2E23D9C6F34F1216F01F0706BF02F1FF3189B211466FEAC1616FEA514123
:202A600089B240F81310637873BBB5F850309BB22178063303EBC1030FB9013A92B26FEA19
:202A8000C2626FEA524292B240F813204DE7C6F34F0216F001071ABF511C89B211468902C7
:202AA00089B240F81310637873B9B5F850309BB22178063303EBC1030FB1013292B29202B0
:202AC00092B240F8132030E7012B7FF42EAFB5F850309BB22278023303EBC20340F813600D
:202AE00023E7013300F5806000EB4202581005D01368043221F8023B0138F9D17047000096
:202B0000064BA3FB00239B09013B4FF0E02253610023936105231361704700BFD34D621013
:202B200082B04FF0E0231B690193019BB0F1FF3F18BF01304FF0E02205E0136913F4803F1E
:202B400018BF00F1FF300028F7D102B070470000014B1860704700BF000000202023038005
:202B600000487047D40000202023038000487047B4000020202303800048704700010020E3
:202B80000A23038000487047F400002010B50446037CC3B94FF4007302220121FEF7CCFAB1
:202BA0004FF40073022281212046FEF7C5FA4FF41B70FEF719FBC4F8180280B1204600F04B
:202BC000D7F8002010BD402302220121FEF7B4FA4023022281212046FEF7AEFAE7E70120D2
:202BE000F0E710B504460121FEF7B1FA81212046FEF7ADFA204600F0E7F8D4F8180220B19D
:202C0000FEF7F6FA0023C4F81832002010BDF8B506460C46D0F818720B7813F0600535D02C
:202C2000202D73D14A78FE2A05D0FF2A1DD000F0FEFD02256BE04A888AB9CA88012A0ED160
:202C400013F0800F0BD0D0F81C329B699847386001223946304601F02FF8002557E0214683
:202C6000304600F0E4FD022551E04A8842B9CA8832B913F0800F03D100F099F8002546E079
:202C80002146304600F0D3FD022540E04B780A2B1CD00B2B1FD0012B39D10979FEF75FFA41
:202CA00021793046FEF753FA94F90430002B15DB337C23BB4FF40073022201213046FEF7F2
:202CC0003BFA2179304600F037F920E00122391D00F0F2FF1BE08B787B6018E0337C3BB9C1
:202CE0004FF40073022281213046FEF725FAE8E74023022281213046FEF71EFAE1E7402328
:202D0000022201213046FEF717FADAE700252846F8BD08B500F07AF8002008BD08B500F037
:202D200091F8002008BD09B1C0F81C120020704738B50446D0F8185295F8183223B9D5F8C5
:202D400014320BB16B7A3BB181212046FEF70FFA6B7A022B04D038BD0121FEF708FAF3E7CC
:202D60001F2305F5037201212046FEF72EFAF2E738B50446D0F8185200202872687285F8AA
:202D80005D0285F85C02D4F81C321B68984701212046FEF7E4F981212046FEF7E0F91F230B
:202DA00005F5037201212046FEF70FFA38BD08B5D0F8182200231372012151721F2302F5A4
:202DC0000372FEF702FA08BDD0F8183200221A727047000038B50546D0F818420A4BC4F8E6
:202DE0002C3284F83812002323720D2304F50B728121FEF7E2F91F2304F50372012128469F
:202E0000FEF7E3F938BD00BF5553425310B50446D0F818120B7A022B07D0033BDBB2012B6F
:202E200002D80021FFF7D6FF10BD01F21B2291F8191200F0ADF80028F6DA01212046FFF710
:202E4000C9FFF1E738B50446D0F818522B7A13B1012B61D038BDD5F81032C5F83032D5F8B3
:202E60001432C5F834320121FEF7B7F91F2804D1D5F80C222F4B9A420CD02023052295F8E2
:202E80001912204600F06EF802236B722046FFF74FFFDFE795F819120129EED895F81A3258
:202EA000013BDBB20F2BE8D805F21B22204600F06FF800281FDB2B7A013BDBB2022BC9D9FF
:202EC0006B8923B3D4F81822D2F814128B4228BF0B46D2F83412C91AC2F83412002182F89F
:202EE0003812042111729BB205F10C0281212046FEF763F9AEE72B7A052B03D02046FFF79D
:202F000017FFA7E701212046FFF764FFA2E700212046FFF75FFF9DE705F21B2295F8191258
:202F200000F036F8002895DA01212046FFF752FF90E700BF5553424310B5D0F81842637AE6
:202F4000022B03D011F0800F06D110BD8121FEF70EF900236372F8E7012BF6D00121FFF7BE
:202F600039FFF2E7D0F8180290F85D1200EBC10C8CF83C221B02CCF840320131C9B20429A0
:202F800012BF80F85D12002380F85D32704700002DE9F04383B005460F46144613785A2B12
:202FA00000F2E282DFE813F05B00E002E0027E00E002E002E002E002E002E002E002E00244
:202FC000E002E002E002E002E002E002AE00E002E002E002E002E002E002E002D500C8002C
:202FE000E002E002D000E002E002E002E002F500E0022B01E002E0025701E002F701E002DA
:20300000E002E002E002BF02E002E002E002E002E002E002E002E002E002E002E002E002B1
:20302000E002E002E002E002E002E002E002E002E002E002E002E002E002E002E002E00270
:20304000E002E002E002E002E002E002E002E002E002E002E002E002E002E002E500D0F867
:203060001842D4F814324BB9D0F81C329B6808469847064658B90023638161E0202305228B
:2030800094F81912FFF76EFF4FF0FF3658E03A23022239462846FFF765FF052323724FF0A6
:2030A000FF364DE0D0F8180200F10B0300F11D01002203F8012F9942FBD1702303730C2392
:2030C000C37490F85C3290F85D229A4211D000EBC30292F83C12817392F84112017692F885
:2030E000402242760133DBB2042B08BF002380F85C32122343812379122B00F23C82438190
:2031000000261DE0D0F81832627812F0010F40F03682D0F81C2201EBC107D26902EB870736
:203120003A79053221798A4228BF0A465A81002A40F02882002603E0D0F8183200265E8109
:20314000304603B0BDE8F083D0F8183200265E81F6E7D0F8180208234381CD4A00F113034B
:203160000B3012F8011903F801198342F9D10026E6E7D0F8180208234381C64A00F1130371
:203180000B3012F8011903F801199842F9D10026D6E7D0F8184204F10B0304F117010022E0
:2031A00003F8012F8B42FBD1D5F81C325B680DF1020201A9384698470646B8B90823E37326
:2031C000019A531E190E2174190C61741B0AA374013AE27402232375BDF8023000226275C3
:2031E0001A0AA275E3750C236381A9E73A23022239462846FFF7B6FE4FF0FF36A0E7D0F8BE
:203200001842D0F81C325B6804F25E2204F51871384698470646A8B9D4F86022531E190E93
:203220002173190C61731B0AA373013AE273B4F85E320022227462741A0AA274E3740823B0
:2032400063817DE73A23022239462846FFF78AFE4FF0FF3674E7D0F81862337A9BBB96F997
:203260001832002B69DAD0F81C329B680846984700286BD1A278E3781B0443EA02636279EB
:203280001343227943EA0223C6F86432E179227A42EA0122C6F868229818D5F81812D1F89A
:2032A000601288425BD802213172B6F85E1201FB03F3C6F8643201FB02F2C6F86822D6F86F
:2032C00014329A4254D14FF400737381D5F81842D4F868629E4228BF1E4604F10C08B4F860
:2032E0005E22B6FBF2F3D4F86412D5F81C02D0F810909BB2B1FBF2F241463846C84700280A
:2033000040DBB3B2424681212846FDF756FFD4F864323344C4F86432D4F868329B1BC4F849
:203320006832D4F83422921BC4F83422002B40F0248103232372002602E72023052296F850
:203340001912FFF70FFE4FF0FF36F9E63A23022239462846FFF706FE4FF0FF36F0E62123F6
:20336000052239462846FFF7FDFD4FF0FF36E7E62023052296F819122846FFF7F3FD4FF052
:20338000FF36DDE61123042239462846FFF7EAFD4FF0FF36D4E6D0F8188298F80830002B8E
:2033A0007AD198F91832002B44DBD0F81C329B6808469847002846D1D5F81C32DB6838463C
:2033C00098470646002847D1A278E3781B0443EA026362791343227943EA0223C8F86432E8
:2033E000E179227A42EA0122C8F868229818D5F81812D1F86012884237D8B8F85E1201FB67
:2034000003F3C8F8643201FB02F3C8F86832D8F81422934232D1012188F80810B3F5007F56
:2034200028BF4FF400739BB208F10C022846FDF7CCFE85E62023052298F81912FFF792FD5A
:203440004FF0FF367CE63A23022239462846FFF789FD4FF0FF3673E6272302223946284684
:20346000FFF780FD4FF0FF366AE62123052239462846FFF777FD4FF0FF3661E6202305222E
:2034800098F819122846FFF76DFD4FF0FF3657E6D33F0008CB3F0008D8F86842B4F5007F24
:2034A00028BF4FF4007408F10C06B8F85E22B4FBF2F3D8F86412D0F81C02D0F814909BB2BA
:2034C000B1FBF2F231463846C847002815DBD8F864322344C8F86432D8F868321B1BC8F8BD
:2034E0006832D8F83422121BC8F8342273B900212846FFF76FFC002622E6032304223946B4
:203500002846FFF72FFD4FF0FF3619E6B3F5007F28BF4FF400739BB2324601212846FDF79B
:2035200054FE00260CE6D0F81832627812F0020F0BD1B3F86822D3F864120A44D3F8601245
:203540008A4209D800265E81FAE524230522FFF709FD4FF0FF36F3E5212305223946FFF744
:2035600001FD4FF0FF36EBE520230522FFF7FAFC4FF0FF36E4E50026E2E50026E0E5072275
:203580005A81074F013A92B2511C39440C32134411F8012D03F80129B942F9D10026CFE501
:2035A000D43F000898B108B50346D0F8140210B10020C3F8140209B1C3F81012012183F8DD
:2035C000FC111A701846FDF775FD002008BD0220704719B1C0F8141200207047022070477A
:2035E00008B5FDF7A1FD002008BD08B5D0F814322BB11B689847002818BF022008BD022086
:20360000FCE708B5D0F814325B689847002008BD38B5044600F50275284600F0F4F8012364
:20362000C4F8F431B4F80E32C4F8F83194F8081201F01F03012B0ED0022B11D02BB101F03A
:2036400080012046FDF793FD03E02946204600F0F9F8002038BD2946204600F06BFAF8E748
:203660002946204600F081FAF3E710B5044629BB1346D0F8F421032A01D0002010BDD0F854
:203680000C11D0F8102191420BD8D0F814321B691BB190F8FC21032A0ED0204600F029FBD6
:2036A000EBE7891AC0F80C118A4228BF0A4692B2194600F016FBE0E79847EEE70A46D0F886
:2036C00014329B69002BD8D090F8FC110329D4D111469847D1E710B50446002947D11346D0
:2036E000D0F8F421022A05D094F80032012B3AD0002010BDC169026A914217D88169B1FB1D
:20370000F2F302FB13132BB98A4203D8D0F8F831994218D3D4F81432DB681BB194F8FC2195
:20372000032A1DD0204600F0EFFADDE78A1AC26192B2194600F0CDFA00231A461946204603
:20374000FDF743FDD0E70022114600F0C2FA0021C4F8F8110B460A462046FDF736FDC3E79B
:2037600020469847DEE7002384F80032C0E70A46D0F814325B69002BBAD090F8FC1103292F
:20378000B6D111469847B3E738B50446402300221146FDF7D1FC4025C4F810512B460022E9
:2037A00080212046FDF7C8FC2562012384F8FC31D4F818322BB1D4F814325B68217920462F
:2037C0009847002038BD01740020704790F8FC3180F8FD31042380F8FC310020704790F823
:2037E000FD3180F8FC310020704708B590F8FC31032B01D0002008BDD0F81432DB69002B4C
:20380000F8D09847F6E70B7803704B784370CA788B7803EB022343804A790B7903EB022343
:203820008380CA798B7903EB0223C380704710B504468021FDF79BFC00212046FDF797FCE8
:2038400010BD000030B583B005460C464B78092B00F26881DFE813F02D0150016601430120
:203860006601A0000A0066011101C4004A88130A013B062B00F28C80DFE803F0041E328A08
:203880008A6E7B00D0F810321B680DF10601007C9847BDF80620002A00F04681E388002B76
:2038A00000F042819A4228BF1A46ADF806200146284600F001FA37E1037C43B9D0F8143226
:2038C0009B6A0DF10600984702234370E1E7D0F81432DB6A0DF10600984702234370D8E793
:2038E000D2B2052A34D8DFE802F0030B131B232BD0F810325B680DF10601007C9847C8E7EA
:20390000D0F810329B680DF10601007C9847C0E7D0F81032DB680DF10601007C9847B8E747
:20392000D0F810321B690DF10601007C9847B0E7D0F810325B690DF10601007C9847A8E745
:20394000D0F810329B690DF10601007C9847A0E72146FFF76CFFE7E0037C33B9D0F814326A
:203960005B6B0DF10600984793E72146FFF75FFFDAE0037C43B9D0F814321B6B0DF106009C
:2039800098470723437084E72146FFF750FFCBE02146FFF74CFFC7E08B88E3B9CB88D3B9CC
:2039A00090F8FC31032B0FD04C8804F07F0480F8FE412146FDF7F9FB284600F09AF934B11E
:2039C000022385F8FC31AFE0FFF731FFACE0012385F8FC31A8E021462846FFF728FFA3E00C
:2039E0008B78534A1370012B08D890F8FC21022A07D0032A1BD0FFF71AFF95E0FFF717FF48
:203A000092E08BB101214160032380F8FC31FFF7ECFD022803D0284600F06BF984E0214601
:203A20002846FFF704FF7FE000F063F97CE08BB1416801291ED0C9B2FFF7E3FD3C4B1978B2
:203A400069602846FFF7D1FD02280ED0284600F050F969E0022380F8FC3100214160FFF7F1
:203A6000D0FD284600F045F95EE021462846FFF7DEFE59E000F03DF956E0CB88012B08D10B
:203A800090F8FC31022B07D0032B0DD0FFF7CFFE4AE0FFF7CCFE47E00146002341F8083FA4
:203AA000012200F009F93FE00122011D00F004F93AE090F8FC31023B012B0DD80123C36040
:203AC000D0F804320BB10323C360022205F10C01284600F0F1F827E0FFF7A9FE24E04B88FA
:203AE000012B21D1C0F80432D0F814329B689847284600F0FEF817E090F8FC31023B012B61
:203B00000DD84B88012B0FD10023C0F80432D0F814329B689847284600F0EBF804E0FFF7C5
:203B200086FE01E0FFF783FE002003B030BD00BF700E002038B504460D4690F8FC31032B1F
:203B40000FD10B79012B09D8D0F814329B689847EB8843B9204600F0CCF804E0FFF767FE3C
:203B600001E0FFF764FE002038BD38B505460C468A880B7803F06003202B09D0D1B2637800
:203B8000012B2BD0032B08D0002B4AD0002038BDD0F814329B689847F8E790F8FC31022BED
:203BA00005D0032B09D02146FFF741FEEEE711F07F0FEBD0FDF7DBFAE8E7638823B911F00E
:203BC0007F0F01D0FDF7D3FAD5F814329B68214628469847284600F08CF8D7E790F8FC31A6
:203BE000022B05D0032B09D02146FFF720FECDE711F07F0FCAD0FDF7BAFAC7E76388002BF8
:203C0000C4D111F07F0F03D1284600F072F8BDE7FDF7B5FAD5F814329B68214628469847D3
:203C2000F2E790F8FC31022B05D0032B09D02146FFF7FDFDAAE711F07F0FA7D0FDF797FA7A
:203C4000A4E712F0800F01F07F0400EB041414BF143404F58274FDF79AFA003818BF01200F
:203C6000206002222146284600F026F88EE710B310B58446037843B1C0F1010E00EB0E03CB
:203C8000DBB210F8014F002CF8D15B00023313800B7003234B709CF8000058B102230024E5
:203CA0005A1CD2B2C8540233DBB28C541CF8010F0028F5D110BD704708B513460222C0F8C4
:203CC000F4218361C3610A460021FDF776FA002008BD08B513460A460021FDF76EFA00200A
:203CE00008BD08B513460A460021FDF76EFA002008BD08B50423C0F8F43100231A46194694
:203D0000FDF75BFA002008BD08B50523C0F8F43100231A461946FDF758FA002008BD0000A6
:203D200070B500260C4D0D4C641BA410A64209D100F030F800260A4D0A4C641BA410A6428B
:203D400005D170BD55F8043B98470136EEE755F8043B98470136F2E7DC3F0008DC3F000828
:203D6000DC3F0008E03F00080A44914200F1FF3300D1704710B511F8014B914203F8014FF5
:203D8000F9D110BD03460244934200D1704703F8011BF9E7F8B500BFF8BC08BC9E4670472A
:203DA000F8B500BFF8BC08BC9E467047EBFE904D53444F53352E300002017C110200000060
:203DC00000F800003F00FF003F000000C1C003004207000000000000020000000100060098
:203DE000000000000000000000000000800029B04990024E4F204E414D45202020204641AA
:203E000054333220202000008D01020408102040801B3600637C777BF26B6FC53001672B87
:203E2000FED7AB76CA82C97DFA5947F0ADD4A2AF9CA472C0B7FD9326363FF7CC34A5E5F1D8
:203E400071D8311504C723C31896059A071280E2EB27B27509832C1A1B6E5AA0523BD6B3B6
:203E600029E32F8453D100ED20FCB15B6ACBBE394A4C58CFD0EFAAFB434D338545F9027FF6
:203E8000503C9FA851A3408F929D38F5BCB6DA2110FFF3D2CD0C13EC5F974417C4A77E3DA0
:203EA000645D197360814FDC222A908846EEB814DE5E0BDBE0323A0A4906245CC2D3AC625B
:203EC0009195E479E7C8376D8DD54EA96C56F4EA657AAE08BA78252E1CA6B4C6E8DD741F65
:203EE0004BBD8B8A703EB5664803F60E613557B986C11D9EE1F8981169D98E949B1E87E9D6
:203F0000CE5528DF8CA1890DBFE6426841992D0FB054BB16845EF4233683408E832274CF12
:203F2000F1F007CC2976DEF02AF44ED7BE871EA9DAB25B243ACA6638A7F64445B12C5E867D
:203F4000CB73BA2F424F4F544C4F4144455220004649524D5741524542494E0053544D33D2
:203F600032204D6173732053746F72616765000053544D6963726F656C656374726F6E6900
:203F8000637300004D534320436F6E66696700004D534320496E746572666163650000005E
:203FA000008002021F00000053544D202020202050726F64756374202020202020202020C9
:203FC000302E303100060000000000000000000000000000000000030080830031010008DC
:203FE0000D01000800A24A04F511000801120008991200088112000841120008B51200081A
:20400000CD120008120100020000004083042A570002010203010000040309041A03000022
:20402000000000000000000000000000000000000000000000000000E5120008E91200087E
:20404000F9120008FD1200082D1300080513000801130008A03F00080100000010000000BA
:204060008D2B0008E32B00080F2C00080000000000000000132D00081D2D0008000000008D
:2040800000000000000000005D2B0008692B0008752B0008812B000809022000010104C0A7
:2040A00032090400000208065005070581024000000705010240000009022000010104C04D
:2040C0003209040000020806500507058102000200070501020002000A0600020000004048
:2040E0000100000009072000010104C0320904000002080650050705810240000007050149
:044100000240000079
:20480000FC4F0020656F0008B5680008B7680008B9680008BB680008BD6800080000000084
:20482000000000000000000000000000BF680008C168000800000000C3680008C5680008B0
:20484000AD6F0008AD6F0008AD6F0008AD6F0008AD6F0008AD6F0008AD6F0008AD6F000838
:20486000AD6F0008AD6F0008AD6F0008AD6F0008AD6F0008AD6F0008AD6F0008AD6F000818
:20488000AD6F0008AD6F0008AD6F0008AD6F00081D6B0008AD6F0008AD6F0008AD6F00088C
:2048A000AD6F0008AD6F0008AD6F0008AD6F0008AD6F0008AD6F0008AD6F0008AD6F0008D8
:2048C000AD6F0008AD6F0008AD6F0008AD6F0008AD6F0008AD6F0008AD6F0008AD6F0008B8
:2048E000D9680008AD6F0008AD6F0008000000000000000000000000000000000000000027
:2049000000000000000000005FF808F110B5054C237833B9044B13B10448AFF30080012305
:20492000237010BD3C200020000000002470000808B5034B1BB103490348AFF3008008BDAA
:20494000000000004020002024700008012919D0194B9A6822F480429A60DA6842F48042B6
:20496000DA60C8B1144B4FF480425A615A691A6842F480421A60114B4FF48072C3F88421BD
:204980005A6070470C4BDA6822F48042DA609A6842F480429A60E4E7074A136823F4804396
:2049A0001360064B4FF48072C3F88420BFF34F8FBFF36F8F704700BF0004014000E100E0E3
:2049C00008B50121FFF7C2FF08BD024B9868C0F380307047000C014082B00023019380B1AE
:2049E00091B1431E0139014413F8012F92FAA2F20192019A120E1A708B42F5D1002002B0FD
:204A000070474FF0FF30FAE70020F8E7074B5968074B1B68074AA2FB03239B0C03FB00F000
:204A2000024A53685B1A8342FBD37047001000E00000002083DE1B434FF47A7303FB00F0C3
:204A4000074B5968074B1B68074AA2FB03239B0C03FB00F0024A53685B1A8342FBD37047FF
:204A6000001000E00000002083DE1B43084B4FF416521A6000221A715A71082199719A604A
:204A8000DA601A615A61012119765A76704700BF5820002000F00F0330F00F024BF68F72A2
:204AA00048F6BF711ABF11464FF48052102203F1805303F5B8539B00186842400A401A60E6
:204AC000704700F00F0330F00F024BF68F7248F6BF711ABF11464FF44052202203F180532E
:204AE00003F5B8539B00186842400A401A60704700F1805000F5B8508000036883F44053E8
:204B000023F4804323F070031B041B0C0360704730B427490123C1F8403C264B002283F81A
:204B200032205A629A62DA62C1F8402C83F8342083F835205A76204B1A625A62402098629E
:204B40004FF40440D86280241C635A63C0259D63D8634FF480751D6458644FF4A0759D64C6
:204B6000D8644FF4C07018654FF4805058654FF492759D65D8654FF4C873C1F8503C43F2B8
:204B80002023C1F8003C2123C1F8043C43F20203C1F8083C43F22363C1F80C3CC1F8442C84
:204BA0004FF41F43C1F8403CC1F84C4C30BC704700500040582000200063004038B5144B10
:204BC000DD6AC5F309058D42A8BF0D46DDB1A3F54073D3F88040002D15DD0470240A844650
:204BE000013800EB050E0B4A012300E0240AE64509D00CF8014F013BF8D1134653F8044BA7
:204C00001A460223F3E70020FFF772FF284638BD006300408460004010B58646402907DDA6
:204C20004020184B586200239C46174C19460AE00846144B5962B1B10029F4DC13E00CF193
:204C4000010C84450DDA1EF8012B9A4011430833082BF4DD234643F8041B1C4600210B4651
:204C6000EDE703B12160094AD2F8003C83F0300323F4E04323F040031B041B0CC2F8003C60
:204C800010BD00BF00630040006000400050004008B500210148FFF7BFFF08BD3C70000861
:204CA00038B50D4B93F91C30002B00DB38BD0A4C616AE56AA36A9942A8BF19462846FFF75A
:204CC000ABFF0544E562636A181A01D46062EDE7014B00225A62E9E758200020144BDA8BDA
:204CE0001B7F012B22D010B5022B0AD01BB10120FFF7D0FE10BD012AFCD10D4B83F83000B7
:204D0000F8E7002AF6D10A4B1C8C38B92046FFF7C1FE44F08000FFF7BDFEEBE72046FFF727
:204D2000D0FE44F08000FFF7CCFEE3E7704700BF5820002030B4264A136952699B1A48BF12
:204D400003F580739C46402BA8BF4FF0400CCCF3090242F404421F494A631D4A012151767E
:204D600033B31B4A5369134493F83840E4B253690133DBB25361184D08211046BCF1010C6D
:204D800014D04369034493F83830DBB242690132D2B242618B401C4308310829EEDD2B46E7
:204DA00043F8044B1D4600242146E7E701B12C600A4AD2F8043C83F0300323F4E04323F01E
:204DC00040031B041B0CC2F8043C30BC704700BF5820002000630040006100400050004082
:204DE00010B51E4B4FF48012C3F880201C4B93F8353033B31A4B93F8343013BB184BDA6851
:204E00009B689A4223D0164BDA681A4492F83841E4B2DA680132D2B2DA601B7EC3B9104A84
:204E20009368D2689B1A48BF03F58073C3F58073402B0DDD0A4B01221A760220FFF758FE20
:204E400006E0064B4FF480121A60FF2404E00024024B4FF480121A60204610BD00E100E011
:204E6000582000202DE9F04782460E462C4B5C682C4B1D682C4BA3FB0535AD0902FB05F5FE
:204E8000B2F1FF3F08D0002D44D0C9B10027DFF89C904FF4801823E007460644234D244C1F
:204EA0004FF48013B7420DD0C5F88030E168A2682B609142F6D0FFF793FF07F8010BEFE7F9
:204EC000002025E0002023E0FFF78AFF0AF807000137BFB20DE09BB1B74211D21D46144687
:204EE000C9F88080124BDA689B68C9F800809A42EAD10B4B5A68A31A2B44AB42EBD900235F
:204F0000B7420AD0002B14BF6FF00E006FF00200BDE8F0872B460027F2E70020F8E700BFA7
:204F2000001000E000000020D34D621000E100E05820002070B51D4B4FF48012C3F88020B9
:204F40001B4B93F83530B3B103F0FF05184A174C4FF4801192F834306BB913695669013386
:204F6000DBB2B3420ED1216030BFC4F8801092F83530002BEED10D4B4FF480121A6000256F
:204F8000284670BD0A4B1A690132D2B21969194481F838001A615B7E23B1044B4FF480120B
:204FA0001A60EDE7FFF7C6FEF7E700BF00E100E058200020F8B505460D4B5B680D4B1B6805
:204FC0000D48A0FB03039B0C02FB03F379B10E466BB10024064F02E07B68B44207D2285D15
:204FE000FFF7A8FF0028F7D00134A4B2F4E7F8BD001000E00000002083DE1B431A4A13685C
:205000001A4AA2FB03239B09013BB3F1807F29D24FF0E0225361164BF02183F823100023B3
:205020009361072313610F2801D901207047104BDA68C2F30222C2F10701042928BF04218B
:20504000131D062B8CBF033A00224FF0FF338B4020EA030393401B01DBB2054A82F8233061
:20506000002070470120704700000020D34D621000ED00E010B4174C174B93FAA3F1B1FAAD
:2050800081F193FAA3F2B2FA82F293FAA3FCBCFA8CFC93FAA3F389000F2303FA01F163685A
:2050A00023EA01039200012101FA02F213434FEA8C0104228A4023EA0203636020B14FF447
:2050C0008052226110BC7047024B4FF480525A61F8E700BF000C01401000100410B4174CA5
:2050E000174B93FAA3F1B1FA81F193FAA3F2B2FA82F293FAA3FCBCFA8CFC93FAA3F38900B8
:205100000F2303FA01F1636823EA01039200012101FA02F213434FEA8C0104228A4023EAD6
:205120000203636020B14FF40052226110BC7047024B4FF400525A61F8E700BF000C0140B3
:20514000200020042DE9F0478946254B03F50052D0625B78102B09D0B9F1000F10D000275C
:205160001F4DDFF8808005F5005A19E04FF4FA70FFF74CFCF0E700201B4B9862BDE8F08741
:205180000020FBE7D8F80430BB4201D8C8F804700020FFF715FC0137CAF828704F45EAD0F8
:2051A0000120FFF70DFC20236B700A23AB700020FFF794FFAB780D2BE4D00C4C01263046BC
:2051C000FFF724FCAB780D2BDCD0013CF7D10020FFF7F6FB0120FFF781FF4FF0FF30CDE7ED
:2051E0000C000020000000200C2000203F420F0070B51B4BD87003F50052D91CD1625B786F
:20520000102B21D00120FFF7DBFB154C202363700A23A3700020FFF761FFA3780D2B18D00D
:20522000104C01260E4D3046FFF7F0FBAB780D2B0FD0013CF7D10020FFF7C2FB0120FFF710
:205240004DFF4FF0FF300AE04FF4FA70FFF7DEFBD8E70020FFF7B4FB0020034B986270BD15
:205260000C0000203F420F000C2000202DE9F04780461E4B5B78202B09D0B8F1000F10D01B
:2052800000271A4D4FF0100A4FF0090911E04FF4FA70FFF7BBFBF0E70020154B9862BDE896
:2052A000F0870020FBE7013705F500539F624745F2D085F801A085F802900020FFF70EFF51
:2052C0000120FFF77DFBAB780D2BECD0094C01263046FFF79BFBAB780D2BE4D0013CF7D196
:2052E000002F14BF01200420D9E700BF0C0000200C2000203F420F0070B5204DEB681A04DD
:2053000002F40022DB4303F0080313432B610820FFF76EFF0446EB681A0402F40022DB43FB
:2053200003F0080313432B610120FFF79FFF0443134BDB78882B1DD1114D124E0FCEC5F8E7
:205340000300C5F80710C5F80B20C5F80F301021E81CFFF7F7FE04436420FFF76DFB012028
:20536000FFF784FF2043EB7813F0C00F18BF4FF0FF3070BD4FF0FF30FBE700BF0008014052
:205380000C000020F87000087F2832D110B582B0194B93F838326B2B1ED0184B93F82622BD
:2053A0008DF8042093F827328DF805301420FFF71FFF0446022101A8FFF7C4FE0443012028
:2053C000FFF754FF204311D10D4BDB7813F0C00F18BF022002B010BD074B93F83A228DF88C
:2053E000042093F83B328DF80530DFE740F00800F0E74FF0FF30704758200020C042002023
:205400000C00002010B5032824D8DFE800F01A2B02341D20FFF7ECFE04460120FFF726FF9F
:205420001B4BDB78882B2FD154EA00032ED110211848FFF787FE04460320FFF717FF2043D8
:2054400007E00D20FFF7D4FE04460320FFF70EFF204330B94FF0FF3203210F48FFF7AAFD2C
:20546000002010BD1120FFF7C3FE04460320FFF7FDFE2043EDE71120FFF7BAFE0446032076
:20548000FFF7F4FE2043E4E71020EAE71020E8E70C000020407000080F00002070B500219D
:2054A0000846FFF753FA0020FFF7E4FD0020FFF715FE6420FFF7C0FA8A4B93F84C32012BFD
:2054C0002FD08949894B93FAA3F2B2FA82F293FAA3F3B3FA83F392000F2090404A6822EA50
:2054E00000029B00082000FA03F313434B60CB6823F488234FF4882292FAA2F2CB600120A8
:20550000FFF7B8FD4FF42A740125FFF75EFA00283ED12846FFF77AFA013CF6D1902630464C
:2055200070BD7148714B93FAA3F2B2FA82F293FAA3F3B3FA83F392000F219140426822EAF8
:2055400001029B00042101FA03F3134343600120FFF790FD4FF4FA70FFF758FA0120FFF7EE
:20556000BDFDC820FFF752FAFFF72FFA012801D09026D4E74FF488640125FFF726FA012829
:2055800072D12846FFF742FA013CF6D19126C6E74FF488640125FFF718FA01286ED128468D
:2055A000FFF734FA013CF6D19026B8E7504BDB78552B56D10020FFF703FA4E49CB681A04DE
:2055C00002F40022DB4303F0080313430B610520FFF71CFA434BB3F83A32012B1CD00220C5
:2055E000FFF706FE064640F291140125FFF7EDF9B0B92846FFF70AFA013CA4B2002CF5D136
:205600003C49CB681A0402F40022DB4303F0080313430B61912682E7FFF76EFE00267EE7B1
:2056200033240125FFF7D1F9012812D12846FFF7EDF9013CA4B2002CF4D12E49CB681A048B
:2056400002F40022DB4303F0080313430B61912665E70220FFF70AFE06430020FFF7B0F929
:205660005DE74FF0FF365AE70020FFF737FD0820FFF7CCF90120FFF731FD05E00220FFF7C2
:20568000C5F90120FFF72AFD3220FFF7BFF90020FFF724FD164C0923A3701023637001200F
:2056A000FFF78EF91349CB681A0402F40022DB4303F0080313430B610A20FFF7A7F9A378EF
:2056C0000D2B3FF473AF0C4C0126094D3046FFF79DF9AB780D2B3FF469AF013CF6D14FF07D
:2056E000FF361CE758200020000C0140400040040C000020000801403F0D03000B68C3F31C
:205700000F2C9CFAACF2B2FA82F23CFA02F300F083802DE9F04F4FF0010E0F244FF00308BC
:205720004FF0011540F20117E14631E093FAA3FABAFA8AFA93FAA3FBBBFA8BFB4FEA8A0AFD
:2057400008FA0AFA26EA0A0A4FEA8B0B8E6806FA0BF64AEA060640F80C6093FAA3FABAFA97
:205760008AFA93FAA3F3B3FA83F34FEA8A0A4FF0040B0BFA0AFA26EA0A0A9B00CE689E4068
:205780004AEA060640F80C60013239FA02F340D00EFA02F313EA090FF6D0072A91BF07FA60
:2057A00002F3A2F1080305FA03F343F08063C6684FEA132C9CFAACFABAFA8AFA26EA0C0C09
:2057C0000E6906FA0AF64CEA0606C6604FEA136C93FAA3FABAFA8AFA93FAA3FBBBFA8BFB6A
:2057E0004FEA8A0A04FA0AFA50F80C6026EA0A0A4FEA8B0B4E6806FA0BF64AEA060640F804
:205800000C60D1F804A02AF0080ABAF1010FBBD18CE70020BDE8F08F0020704784B02E4B01
:205820005A6942F040025A615B6903F040030193019B2A4B01229A605FEA910C16D000EB03
:205840008C0C1A4650F8043B93FAA3F3029313606045F7D1214B1B6893FAA3F3029311F089
:20586000030115D00CEB01001D4903E08446F1E784450CD01CF8012B5340082213F0010FA7
:2058800014BF81EA53035B08013AF7D1F0E70293029BDB430293104A536923F04003536132
:2058A00002AB03AA104613F8011B02F8011B8342F9D19DF80C308DF80B309DF80D308DF884
:2058C0000A309DF80E308DF809309DF80F308DF80830029804B070470010024000300240A3
:2058E0002083B8ED0A4BD3F848340BB90020704710B5084CA18804F10800FFF78FFF04F56D
:205900000054D4F84834181A18BF4FF0FF3010BDC0420020C02200200A4BD3F84C340BB91F
:205920000020704710B5084CE1880848FFF776FF04F50054D4F84C34181A18BF4FF0FF3043
:2059400010BD00BFC0420020C0220020E84200200D4BD3F83C32A3B110B55C7898780004BB
:2059600040EA04201C782043DC7840EA0464074BD9880748FFF752FF201A18BF4FF0FF3034
:2059800010BD4FF0FF30704758200020C0220020E84200202DE9804895B0B34C236843F051
:2059A00010032360B149CA6822F4E0621204120CAF4B1343CB600F20FFF720FBAD4B9A69E3
:2059C00042F001029A619A6902F001020E920E9ADA6942F08052DA61DB6903F080530D932B
:2059E0000D9BA54A536823F0E06343F000735360236823F0070343F0020323602246136860
:205A000003F00703022BFAD19A4A136843F480331360136813F4003FFBD0964A536823F497
:205A20007C1343F4E8135360136843F080731360136813F0007FFBD08E4B5A6822F0F00277
:205A40005A605A6822F4E06242F480625A605A6822F460525A605A6822F0030242F002024D
:205A60005A601A46536803F00C03082BFAD1834B834A1A600F20FFF7C1FA7E4C636823F4B0
:205A8000404343F400436360E36943F40003E361E36903F400030893089B00261296139681
:205AA000A36943F01003A361A36903F010030C930C9BA36943F02003A361A36903F02003B0
:205AC0000B930B9BA36943F00403A361A36903F004030A930A9BA36943F00803A361A36996
:205AE00003F008030993099B66484FF400534361DFF894A10C23CAF81430644F4FF44053B6
:205B00007B61DFF88C91CDF83C9001251095022311930FA9FFF7F2FD40F60C430F93109527
:205B20004FF00308CDF8448012960FA95046FFF7E5FD584B0F931095CDF8448012960FA9F1
:205B40003846FFF7DBFDCDF83C901095CDF84480129613950FA93846FFF7D0FD4E4B0F93B6
:205B6000042310930FA93846FFF7C8FD3F4AD2F8FC3023F08073C2F8FC30D2F8FC3043F0D6
:205B80008073C2F8FC30454B196821F0010119601968294319605E6000BF00BF00BF5B686B
:205BA000354841694FF4706393FAA3FCBCFA8CFC21F4706105FA0CFC41EA0C0141613849F6
:205BC000D1F800C02CF4804CC1F800C0D1F804C02CF4804CC1F804C0D268324A82F8286326
:205BE000FA6822F488224FF4882191FAA1F1FA60426993FAA3F3B3FA83F322F470629D406A
:205C000015434561E36943F40003E361264B304626491A46043310608B42FAD1244B002236
:205C200083F8322083F8352083F83420FEF71EFF204B0322C3F8402C642300BF013BFCD1E0
:205C40001C4B0122C3F8402C0022C3F8442C4FF47A7300BF013BFCD10293124B4FF4801287
:205C60001A60FEF755FF27E00020024000ED00E00003FA0500100240000001400000002076
:205C800000A24A040010014000080140000C0140200020041000100440004004001000E051
:205CA0000004014000E100E000600040006400405820002000500040A54CDFF898B2ABF1C4
:205CC000020303F5FF531D3303932FE04FF47A72D4F83C02FFF7C6F88DF817009DF817301B
:205CE0005BB213F1030F1BD06422042104F51170FFF7B8F88DF817009DF817305BB213F142
:205D0000030F0DD0D4F84432002B4AD0B4F84012D4F83C02FFF782FDD4F84432984240D064
:205D20004FF0FF3201216620FFF744F900238DF81730C4F83CB24FF0FF32012104F50E7076
:205D4000FFF790F88DF817006422022104F23A20FFF788F88DF817009DF817305BB213F131
:205D6000030FDDD06422022104F51070FFF77AF88DF817009DF817305BB213F1030FCFD0A0
:205D8000B4F8401269B142F220039942C8D894F8383203F0EF024D2A03D0092B01D02B2A9B
:205DA00094D094F838328DF8183006238DF819309DF81830093B722B00F24C85DFE813F07A
:205DC00073008600CE0062030B044A054A054A054A054A054A054A054A054A054A054A0523
:205DE0004A05D904A80198033F044A054A054A054A054A054A054A054A054A054A054A058B
:205E00004A05EF0495005603F0034A054A054A054A054A054A054A054A054A054A054A05FA
:205E20004A054A057D018F0325044A054A054A054A054A054A054A054A054A054A054A0526
:205E40004A054A0528014A059A044A054A054A054A054A054A054A054A054A054A054A0529
:205E60004A054A055A024A05AC044A054A054A054A054A054A054A054A054A054A054A05C4
:205E80004A054A053F054A05CE044A054A054A054A054A054A054A054A054A054A054A059A
:205EA0004A054A05BE02B4F84032012B14BF0023012384F84C32FFF7F1FA18B906238DF8C6
:205EC00019300BE0C3B28DF8193007E0FFF714FA0028D8BF0620C0B28DF819009DF81900BD
:205EE000FFF728F89DF8193020E7D4F83C82B8F1000F23D0B4F83A3203BBB4F84072B7F592
:205F0000005F1BD8144E4FF400520021304601F073F8A6F1080526F8047C002326F8083C7E
:205F200005F50055D4F84432C5F848343A464146304601F069F8D5F848341BB906238DF8FD
:205F40001930CBE739463046FFF768FCF6E700BF5820002011000020C8220020FFF7C2FCD4
:205F6000064630B1002ED8BF0626F6B28DF81960B4E7BC4A1388C3F3870992881344B3F5C2
:205F8000005F00F36C841F2A8CBF530901230193B54B03EB4918029FDFF8D0A245460FCD77
:205FA000CBF80000CBF80410CBF80820CBF80C300FCDCBF81000CBF81410CBF81820CBF809
:205FC0001C300920FFF714F9054609EB0700C0B2FFF70EF9054320215846FFF7B3F8054384
:205FE0000520FEF729FD0120FFF740F905432E430CD49AF8033013F0C00F40F030840137C5
:2060000008F12008019BBB42C8D8ABE70626ACE7FFF768FC074630B1002FD8BF0627FFB2A9
:206020008DF819705AE78F4A1388C3F3870A92881344B3F5005F00F317843F2A8CBF930900
:2060400001230193884B03EB8A18DDF80890C4465E4608F1400E65460FCD30607160B260C9
:20606000F360AC4610367545F5D11820FFF7C0F805460AEB0900C0B2FFF7BAF80543402123
:206080005846FFF75FF805430520FEF7D5FC0120FFF7ECF805432F430DD4744BDB7813F037
:2060A000C00F40F0E18309F1010908F14008019B4B45CCD8B0E70627B1E7B4F83A32F3B948
:2060C000B4F84062B6F5806F19D8694F4FF480620021384600F090FF624DEE8000226A80C3
:2060E00005F50055D4F84432C5F84C343246D4F83C12384600F088FFD5F84C341BB9062301
:206100008DF81930EAE631463846FFF787FBF6E7FFF702FC054630B1B120FEF70BFFEDB208
:206120008DF81950DAE64FF4806632465049584600F06AFF31465846FEF74EFC8146B4F8B9
:206140003A3243BB474B5B88C3F387038DF81A30B4F8403223BB434BDB889B08ADF81C30D0
:20616000404A5388D2881344B3F5806F00F37F83BDF81C309BB2BBB1BDF81C309BB2ADF8D0
:206180001C30BDF81C309BB2002B63D0029E0A27DFF8D8803DE0C3F387038DF81A30D7E71D
:2061A0009B08ADF81C30DBE70123E8E736B19DF81A3033445BF82330CBF800303846FFF74C
:2061C00017F882469DF81A003044C0B2FFF710F84AEA000A4AEA050504215846FEF7B2FF70
:2061E00005430520FEF728FC0120FFF73FF8054335F0080340F03D8398F8033013F0C00FCE
:2062000018BF45F002050136BDF81C309BB29E4220D29DF81A30F34209D09DF81A303344D1
:206220007C2BC3D99DF81A3033447F2BBED89DF81A3033447F2BE6D19DF81A003044C0B239
:20624000FFF7A2F8054315F0080FDCD0FFF726F90825D8E755EA09057FF45EAF06238DF822
:2062600019303BE6C0220020C82200200C000020E8420020FFF750FB054630B1002DD8BF01
:206280000625EDB28DF8195028E64FF480663246BA49584600F0B8FE31465846FEF79CFBAF
:2062A0000190B7494B88C3F38702C9884FEA910A0B44B34237DCBAF1000F39D01746B14BA3
:2062C00003EB8209DDF80880464622E00A20FEF78FFF8046F8B2FEF78BFF48EA000848EA52
:2062E000050504215846FEF72DFF05430520FEF7A3FB0120FEF7BAFF054317D4A24BDB786E
:2063000013F0C00F17D10136013709F1040956450ED0002FF7D0002ED8D0D9F800309A4A23
:20632000C2F80530D2E74FF0FF3501E04FF0FF35019B1D43A2E74FF0FF35F9E7FFF7ECFA3A
:20634000054630B1B120FEF7F5FDEDB28DF81950C4E54FF4806632468849584600F054FED1
:2063600031465846FEF738FB8146B4F83A3243BB834B5B88C3F387038DF81B30B4F8403224
:2063800023BB7F4BDB889B08ADF81E307C4A5388D2881344B3F5806F00F36E82BDF81E308D
:2063A0009BB2BBB1BDF81E309BB2ADF81E30BDF81E309BB2002B51D0029E0A27DFF8C88154
:2063C0003DE0C3F387038DF81B30D7E79B08ADF81E30DBE70123E8E736B19DF81B30334449
:2063E0005BF82330CBF800303846FEF701FF82469DF81B003044C0B2FEF7FAFE4AEA000A08
:206400004AEA050504215846FEF79CFE05430520FEF712FB0120FEF729FF054335F00803C7
:2064200040F02C8298F8033013F0C00F18BF45F002050136BDF81E309BB29E420ED29DF8FA
:206440001B30F342F5D09DF81B3033447C2BC3D99DF81B3033447F2BBED8EAE755EA0905A8
:206460007FF470AF06238DF8193037E5D4F83C3223B1434881880830FFF7D0F906238DF830
:2064800019302BE5B4F84032B3F5005F00F2EA810F20FEF7ADFE05464FF40050FEF7E6FE9B
:2064A000054300F1DF81B4F84002013800280FDD00231A46324F344EB9183244097AD2786E
:2064C000914240F0CF8101339BB21A468342F3DB002DD8BF0625EDB28DF81950FEE4FFF7A1
:2064E00037FA0028D8BF0620C0B28DF81900F5E4FFF72EFA054630B1002DD8BF0625EDB2C5
:206500008DF81950EAE44FF480652A461B49584600F07AFD29465846FEF75EFA0546B4F86D
:206520004032B3F5806F35D80E20FEF761FE06464FF48060FEF79AFE56EA000C2DD4B4F8CE
:206540004062BEB111481249002202E0013001311A46531C9BB29E420CD0032BF6D9A2F2A6
:20656000F31292B20B2AF1D907780A789742EDD04FF0FF3C45EA0C05BEE700BFE8420020D4
:20658000C0220020110000200C000020C9220020100000204FF0FF3CECE74FF0FF3CE9E7CA
:2065A000B84BD3F84C345BB1B74DA98805F10800FFF734F905F50055D5F84834984206D1E2
:2065C0004FF0FF324FF40051B048FEF7F3FC06238DF8193082E40F20FEF70AFE4FF40050BF
:2065E000FEF744FE034638B10028CCBF03460623DBB28DF8193071E44FF0FF324FF4005159
:20660000A348FEF7D7FC0623F2E79E4BD3F84C3453B19D4DE9889F48FFF700F905F500550D
:20662000D5F84C34984206D14FF0FF324FF480619848FEF7BFFC06238DF819304EE4B4F863
:206640004012D4F83C02FEF7C7F90E20FEF7D0FDB4F8400278BB4FF48060FEF707FE28B122
:20666000012813D0D1238DF8193037E44FF480618748FEF7B1F94FF0FF324FF4806184483F
:20668000FEF798FC06238DF8193027E44FF480617F48FEF7A1F94FF0FF32039B198D7C487D
:2066A000FEF788FCD1208DF81900FEF743FC01238DF8193012E4FEF7D9FD70B10128D1D1FF
:2066C000B4F840127248FEF787F94FF0FF32039B198D6F48FEF76EFCE4E7B4F840126C4846
:2066E000FEF77AF94FF0FF32B4F840126848FEF761FCC7E7B4F84012D4F83C02FFF78EF890
:206700000F904FF0FF3204210FA8FEF753FC06238DF81930FFF7E2BBB4F84032032B19D883
:20672000DFE803F0020C10140220FEF76BFE002812DDC0B28DF81900FFF7D0BB0020FEF730
:2067400061FEF4E70120FEF75DFEF0E70320FEF759FEECE70620EDE70620EBE74FF0FF3213
:2067600003214D48FEF726FC06238DF81930FFF7B5BB1220FEF73CFD05460120FEF776FDB8
:2067800005434FF0FF3201214148FEF713FC002DD8BF0625EDB28DF81950FFF79FBB3F4B3C
:2067A0003F4A1A601B68934204D0A2238DF81930FFF794BB3B493C4B93FAA3F2B2FA82F285
:2067C00093FAA3F6B6FA86F693FAA3F5B5FA85F593FAA3F4B4FA84F493FAA3F0B0FA80F095
:2067E00093FAA3F393000F229A404B6823EA0203B6000122B2401343AD000322AA4023EA29
:206800000203A4000222A240134380000422824023EA02034B604FF480534B614FF47A705F
:20682000FEF70AF9BFF34F8F2049CA6802F4E0621F4B1343CB60BFF34F8F00BFFDE77F2040
:20684000FEF7A2FD0028D8BF0620C0B28DF81900FFF744BB66238DF81930FFF73FBB062647
:20686000FFF783BB062536E60627FFF7D8BB4FF0FF3545EA09054FE44FF0FF3545EA090554
:2068800060E500BFC0420020C0220020C82200200F000020E8420020F4FF0008FC4F0020E7
:2068A00078563412000801401000100400ED00E00400FA057047FEE7FEE7FEE7FEE7704785
:2068C00070477047034AD2F850320133C2F85032704700BF582000202DE9F0418349CB68ED
:2068E0001A0402F48022DB4303F0040313430B617F4B5B6913F4804F0AD17D4B4FF48042FC
:206900005A617C4B4FF48072C3F88421BDE8F081794B5B78102B40F08280774B9B78092B3D
:2069200026D07249CB681A0402F40022DB4303F0080313430B61704B03F50052956A9A7849
:20694000092A3ED06D4BD3F85432002B42D16A4B0B229A706A4B9C68C4F34034674B83F8B2
:2069600058420122C3F85422634B2B44DC70C4E700210120FDF7EAFF6149624B93FAA3F27D
:20698000B2FA82F293FAA3F3B3FA83F392000F2090404A6822EA00029B00082000FA03F38D
:2069A00013434B60CB684FF4842292FAA2F2B2FA82F223F48423012000FA02F21343CB602C
:2069C000AFE70A229A704D4B0022C3F8542293F85842C9E74A498C68C4F340349C4047490D
:2069E00091F858020443E4B281F858420133C1F85432072BB8D90C2A03D03F4B0C229A70C3
:206A0000B2E74FF488660127FDF7DFFF01284BD13846FDF7FBFF013EF6D1FF24A4E73A4BC8
:206A2000DF6AD3F82880354BD3F85C62072E19D90022C3F85C22304B9B780A2B10D12E4BF2
:206A40000B229A7000262D4BC3F85C6217F8083013F0010F14BF01200020FEF73FFB07E064
:206A60001646F3E7244B9B780A2BE8D0002EEDD04FF488640125FDF7A8FF012822D128460C
:206A8000FDF7C4FF013CF6D137E7013617F80830334113F0010F14BF01200020FEF71EFBF6
:206AA000164BC3F85C6228E70120FEF717FB00210846FDF74BFF0520FDF7A8FF0E4B0D22D0
:206AC0009A7051E7062EE0D901360C4BC3F85C62072E7FF612AF0120FEF700FB1920FDF7D7
:206AE00095FF054B0D229A7007E700BF000801400004014000E100E00C00002058200020B9
:206B0000000C0140200020040C200020014B024A9A60704700ED00E000480008F0B591B04C
:206B2000A84BD3F8443C13F4804F04D0A54A6FF48041C2F8441C13F4005F04D0A14A6FF4B8
:206B40000051C2F8441C13F4805F0ED09D4AD2F8401C21F00C01C2F8401C6FF48051C2F8D7
:206B6000441C994A002182F8341013F4006F0ED0944A6FF40061C2F8441C9349012081F86D
:206B80003400D2F8401C41F00C01C2F8401C13F4806F4DD113F4007F08D08A4A6FF400712D
:206BA000C2F8441C884A002182F8341013F4807F08D0844A6FF48071C2F8441C824A012102
:206BC00082F8341013F4004F3FD07E4A6FF40041C2F8441C03F00F0101F1805202F5B85244
:206BE0009200106813F0100F00F0718140F68F7303401360002940F0228110F4006F00F03A
:206C0000FF80714C082104F11C00FDF7D7FF237F13F0600240F0C580617F0B2900F2C18071
:206C2000DFE801F02F1CBF20BF1571BF24A9646C654B002283F8322083F83520FDF768FF07
:206C4000604B6FF48062C3F8442C11B0F0BDFEF71FF85D4B9A7F83F86022F6E70020FEF7EF
:206C60003DF8F2E70120FEF739F8EEE7564B40229A6201225A6203F13202DA62FEF710F8AB
:206C8000E3E7514A128C00218DF80010812B20D0822B17D0802B03D08020FDF7FBFED4E745
:206CA000494B93F8303013B102238DF80030464B93F831306BB19DF8003043F001038DF89D
:206CC000003006E0012A01D9032A02D101238DF8003000238DF801303B4B40229A620222DF
:206CE0005A62C3F82CD0FDF7DBFFAEE7364B01225A62364ADA62FDF7D3FFA6E7FDF7B6FEA7
:206D0000FDF7C6FFA1E7304BDB8B1A0A022A1ED0032A08D0012A1DD00020FDF7BBFE802089
:206D2000FDF7B8FE91E7DBB2032B0CD8DFE803F002200508264B04220EE0264B20220BE086
:206D4000254B1A2208E00120FDF7A4FE7DE7234B432201E0224B12221B49488C8242A8BFCC
:206D60000246402088624A62CB62FDF799FF6CE71C4B1022F0E7144BDB8B33B9124B002229
:206D800083F8322083F835205FE7FDF76FFE0E4BDA8B83F83220012283F83520FDF778FFC6
:206DA00053E7202A07D1084B5B7F212B1CD0222B23D0202B03D00020FDF76CFE45E7FDF716
:206DC00067FF42E700500040582000203C700008F4700008D4700008507000086C700008E4
:206DE000C0700008B0700008594B40229A6207225A62DB62FDF754FF27E7FDF749FF24E773
:206E0000534B1B7F13F0600308D0202B14D1504B5B7F202B07D0FDF73BFF16E740216846FB
:206E2000FDF7CCFE11E707214948FDF7C7FEFDF72FFFFDF72DFF08E7FDF72AFF05E70229C5
:206E40007FF403AF434BDF6CC7F30907404B9E68DB68F61A48BF06F58076C6F58076B742E4
:206E600013DA3D4BD3F8805237B3E8B2384A9368134483F8380193680133DBB293602D0A0E
:206E8000BE46364C4FF0010C13E0314B00221A76DBE6E8B29368134483F83801936801336F
:206EA000DBB29360BCF1010C12BF2D0A54F8045B8C46BEF1010EECD1F61B3F2E03DC244BCC
:206EC00000221A76C1E60220FDF712FEBDE6204B93F860329BB920F4E14020F070000004FB
:206EE000000C1060B9B101297FF4AFAE184B5A691B699A4229D1164B00225A76A5E6144CF4
:206F000094F8603243F08003154DC5F84C3C002384F86032DFE70E4B1B7F13F0600F7FF427
:206F200094AE0B4B5B7F062B04D0212B0AD0FDF7AFFE8AE6064B5B6A002B7FF786AEFDF7C4
:206F4000AFFE82E6FDF7A4FE7FE6FDF7F3FE7CE658200020006300400060004084620040D9
:206F6000005000400C480D490D4A002302E0D458C4500433C4188C42F9D30A4A0A4C0023C1
:206F800001E013600432A242FBD3FFF7BFFD00F00FF8FEF7FFFC7047000000203C200020C9
:206FA000147100083C20002010470020FEE7000070B500260C4D0D4C641BA410A64209D17A
:206FC00000F030F800260A4D0A4C641BA410A64205D170BD55F8043B98470136EEE755F8E4
:206FE000043B98470136F2E70C7100080C7100080C7100081071000803460244934200D116
:20700000704703F8011BF9E70A44914200F1FF3300D1704710B511F8014B914203F8014FBE
