:020000040800F2
:20400000FC4F00209D6A00086D5900086F590008715900087359000875590008000000000C
:204020000000000000000000000000007759000879590008000000007B5900087D59000814
:20404000E56A0008E56A0008E56A0008E56A0008E56A0008E56A0008E56A0008E56A0008A8
:20406000E56A0008E56A0008E56A0008E56A0008E56A0008E56A0008E56A0008E56A000888
:20408000E56A0008E56A0008E56A0008E56A00086D610008E56A0008E56A0008E56A0008E9
:2040A000E56A0008E56A0008E56A0008E56A0008E56A0008E56A0008E56A0008E56A000848
:2040C000E56A0008E56A0008E56A0008E56A0008E56A0008E56A0008E56A0008E56A000828
:2040E00085590008E56A0008E56A000800000000000000000000000000000000000000002C
:2041000000000000000000005FF808F110B5054C237833B9044B13B10448AFF3008001230D
:20412000237010BD4020002000000000A86E000808B5034B1BB103490348AFF3008008BD2C
:204140000000000044200020A86E0008012919D0194B9A6822F480429A60DA6842F4804238
:20416000DA60C8B1144B4FF480425A615A691A6842F480421A60114B4FF48072C3F88421C5
:204180005A6070470C4BDA6822F48042DA609A6842F480429A60E4E7074A136823F480439E
:2041A0001360064B4FF48072C3F88420BFF34F8FBFF36F8F704700BF0004014000E100E0EB
:2041C00008B50121FFF7C2FF08BD08B50021FFF7BDFF08BD10B4174C174B93FAA3F1B1FADA
:2041E00081F193FAA3F2B2FA82F293FAA3FCBCFA8CFC93FAA3F389000F2303FA01F1636809
:2042000023EA01039200012101FA02F213434FEA8C0104228A4023EA0203636020B14FF4F5
:204220000052226110BC7047024B4FF400525A61F8E700BF000C01402000200410B4174C33
:20424000174B93FAA3F1B1FA81F193FAA3F2B2FA82F293FAA3FCBCFA8CFC93FAA3F3890066
:204260000F2303FA01F1636823EA01039200012101FA02F213434FEA8C0104228A4023EA85
:204280000203636020B14FF48052226110BC7047024B4FF480525A61F8E700BF000C014062
:2042A00010001004024B9868C0F38030704700BF000C0140024B9868C0F34030704700BF81
:2042C000000C01401249134B93FAA3F2B2FA82F293FAA3F3B3FA83F392000F2090404A680D
:2042E00022EA00029B00082000FA03F313434B60CB684FF4842292FAA2F2B2FA82F223F489
:204300008423012000FA02F21343CB60704700BF000C0140200020040B480C4B93FAA3F293
:20432000B2FA82F293FAA3F3B3FA83F392000F219140426822EA01029B00042101FA03F31A
:2043400013434360704700BF000C0140400040040F49104B93FAA3F2B2FA82F293FAA3F305
:20436000B3FA83F392000F2090404A6822EA00029B00082000FA03F313434B60CB6823F4CB
:2043800088234FF4882292FAA2F2CB60704700BF000C01404000400482B00023019380B1D9
:2043A00091B1431E0139014413F8012F92FAA2F20192019A120E1A708B42F5D1002002B043
:2043C00070474FF0FF30FAE70020F8E798B500AFCB1D03F4FC73ADEB030D89B16A46013AC1
:2043E0000C189446034613F801EB0CF801EFA342F9D1014412F8013F01F8013D8142F9D189
:20440000BD4698BD2DE9F84380460D46214B5C68B2F1FF3F0FD104460544AC4208D001F09F
:204420009DFF0028F9D001F0ADFF04F8010BF4E70020BDE8F883164602F0F6FB164BA3FBF1
:2044400000239B0903FB06F6D6B10DB30027DFF844900BE001F096FF08F807000137BFB261
:2044600008E06BB1AF420ED21E46144601F076FF0028EFD1D9F80420A31A3344B342F0D974
:204480006FF00200D5E714BF6FF00E000020D0E70020CEE7001000E0D34D6210F8B5064698
:2044A0000D46164B5B68B2F1FF3F0CD121B3002401E0AC4220D2305D01F0B0FF0028F8D0F1
:2044C0000134A4B2F5E7144602F0AEFB0C4BA3FB00239B0C04FB03F375B16BB10024074F10
:2044E00002E07B68AC4207D2305D01F097FF0028F7D00134A4B2F4E7F8BD00BF001000E063
:2045000083DE1B4300B583B0244B5A6942F040025A615B6903F040030093009B204B0122DD
:204520009A605FEA910C16D000EB8C0C1A4650F8043B93FAA3F3019313608445F7D1184B2D
:204540001B6893FAA3F3019311F0030115D00CEB0100144903E08446F1E760450CD01CF8C8
:20456000012B5340082213F0010F14BF81EA53035B08013AF7D1F0E70193019BDB4301938C
:20458000064A536923F04003536104210DEB0100FFF71CFF019803B05DF804FB00100240E4
:2045A000003002402083B8ED104BD3F8FC2022F08072C3F8FC20D3F8FC2042F08072C3F85E
:2045C000FC20A3F55D431A6822F001021A601A6842F001021A6000225A6000BF00BF00BF2C
:2045E0005868B0FA80F04009704700BF00ED00E038B50446074B5D6802F016FB064BA3FB15
:2046000000239B0C03FB04F4024A53685B1BA342FBD338BD001000E083DE1B4338B54FF4D6
:204620007A7400FB04F4084B5D6802F0FDFA074BA3FB00239B0C03FB04F4034A53685B1B6A
:20464000A342FBD338BD00BF001000E083DE1B4308B5264A136823F0070343F002031360D4
:20466000136803F00703022BFAD1214A136843F480331360136813F4003FFBD01C4A5368DA
:2046800023F47C1343F4E8135360136843F080731360136813F0007FFBD0154B5A6822F07F
:2046A000F0025A605A6822F4E06242F480625A605A6822F460525A605A6822F0030242F013
:2046C00002025A601A46536803F00C03082BFAD1084802F0A9FB0F2002F006FA044A5368F1
:2046E00023F4404343F40043536008BD002002400010024000A24A0480B58AB002F01AFA15
:20470000FFF7A6FF5B4BDA6942F40002DA61DA6902F400020092009A0025089509959A69D8
:2047200042F010029A619A6902F010020192019A9A6942F020029A619A6902F02002029208
:20474000029A9A6942F004029A619A6902F004020392039A9A6942F008029A619B6903F029
:2047600008030493049B44484FF400534361DFF80C910C23C9F81430414F4FF440537B6148
:20478000DFF80081CDF81480012406940223079305A902F0B9FA40F60C43059306940326B7
:2047A0000796089505A9484602F0AEFA364B059306940796089505A9384602F0A5FACDF87A
:2047C0001480069407960895099405A9384602F09BFA2E4B05930423069305A9384602F032
:2047E00093FAFFF7E1FE0695DFF8A480D8F814304FF4706696FAA6F2B2FA82F223F4706362
:2048000004FA02F21343C8F814304FF4804305938DF81A4005A802F00DFA1E4BDB681E4B14
:2048200083F82853FB6823F488234FF4882292FAA2F2FB60D8F8142096FAA6F3B3FA83F3A5
:2048400022F470629C401443C8F8144001F038FD4FF0FF360125662404E0324629462046AE
:20486000FFF71CFE01F026FE0028F6DB01F0A2FEF8E700BF001002400010014000080140FF
:20488000000C01402000200410001004400040040000014000ED00E000E100E070B50546A0
:2048A00000240126FFF7FEFC40B93046FFF7A0FE0134AC42F6D34FF0FF3000E0002070BD33
:2048C00070B500210846FFF741FC0020FFF7B6FC0020FFF77FFC6420FFF7A0FE444B1B787E
:2048E000012B1CD0FFF734FD0120FFF7A7FC404B1B78012B16D04FF42A70FFF7CFFF0028C6
:2049000074DB4FF488640125FFF7CCFC012827D12846FFF76DFE013CF6D1902065E0FFF756
:20492000FBFCE1E74FF4FA70FFF762FE0120FFF751FCC820FFF75CFEFFF7B4FC012801D079
:20494000902052E04FF488640125FFF7ABFC012806D12846FFF74CFE013CF6D1912044E0FC
:20496000234B1B78012B30D00220FFF741FE0120FFF730FC3220FFF73BFE0020FFF72AFCB3
:204980001C4C0923A370102363700120FFF718FC1949CB681A0402F40022DB4303F0080358
:2049A00013430B610A20FFF723FEA3780D2B16D0124C01260F4D3046FFF71AFEAB780D2BFB
:2049C0000DD0013CF7D192200FE00020FFF702FC0820FFF70DFE0120FFF7FCFBCAE7054B08
:2049E000DB78552B0CBF0020932070BD9020FCE7F446002004000020000801403F0D030070
:204A00002DE9F0478946254B03F50052D0625B78102B09D0B9F1000F10D000271F4DDFF8A4
:204A2000808005F5005A19E04FF4FA70FFF7E0FDF0E700201B4B9862BDE8F0870020FBE734
:204A4000D8F80030BB4201D8C8F800700020FFF7B7FB0137CAF828704F45EAD00120FFF791
:204A6000AFFB20236B700A23AB700020FFF7B2FBAB780D2BE4D00C4C01263046FFF7B8FDB4
:204A8000AB780D2BDCD0013CF7D10020FFF798FB0120FFF79FFB4FF0FF30CDE7040000206A
:204AA00000000020042000203F420F0070B51B4BD87003F50052D91CD1625B78102B21D0BE
:204AC0000120FFF77DFB154C202363700A23A3700020FFF77FFBA3780D2B18D0104C012642
:204AE0000E4D3046FFF784FDAB780D2B0FD0013CF7D10020FFF764FB0120FFF76BFB4FF0FE
:204B0000FF300AE04FF4FA70FFF772FDD8E70020FFF756FB0020034B986270BD040000208B
:204B20003F420F00042000202DE9F04780461E4B5B78202B09D0B8F1000F10D000271A4D08
:204B40004FF0100A4FF0090911E04FF4FA70FFF74FFDF0E70020154B9862BDE8F08700203E
:204B6000FBE7013705F500539F624745F2D085F801A085F802900020FFF72CFB0120FFF7FE
:204B80001FFBAB780D2BECD0094C01263046FFF72FFDAB780D2BE4D0013CF7D1002F14BFBA
:204BA00001200420D9E700BF04000020042000203F420F00F8B5614B1B784BB16049CB6875
:204BC0001A0402F40022DB4303F0080313430B615C4B5B78102B55D15A4B9B78092B33D0F7
:204BE0005749CB681A0402F40022DB4303F0080313430B61534B03F50052946A9B78092BA1
:204C000028D0514B1B682BB94E4B0B229A704F4B00221A70FFF74EFB4B4A13684B499840C8
:204C20000D782843087001331360072B06D9454B9B780C2B18D0434B0C229A70434B1A78AC
:204C4000404B2344DA70F8BD0120FFF7BEFAFFF739FBC5E7A2F500530A229A703A4B0022F7
:204C60001A603A4B1A78EBE74FF488650126FFF719FB012836D13046FFF7BAFC013DF6D119
:204C8000FF22DDE7324BDE6A9F6A324B1B68072B15D9304B00221A602A4B9B780A2B05D197
:204CA000284B0B229A702B4B00221A60F35D13F0010F14BF01200020FFF78CFA05E0214AF5
:204CC00092780A2AECD0002BF0D04FF488640125FFF7E8FA012812D12846FFF789FC013C90
:204CE000F6D1B0E70120FFF775FA0020FFF76DFA0520FFF77DFC134B0D229A709EE7154B43
:204D00001B68062B0AD8F25D013342FA03F313F0010F14BF01200020FFF75CFA0D4A136803
:204D200001331360072B8ED90120FFF753FA1920FFF75EFC034B0D229A7084E765200020AF
:204D400000080140040000205C20002064200020042000206020002038B5214DEB681A04F6
:204D600002F40022DB4303F0080313432B610820FFF79CFE0446EB681A0402F40022DB4374
:204D800003F0080313432B610120FFF7CDFE0443144BDB78882B20D1124D134B18685968B6
:204DA0009A68DB68C5F80300C5F80710C5F80B20C5F80F301021E81CFFF722FE0443642020
:204DC000FFF72CFC0120FFF7AFFE2043EB7813F0C00F18BF4FF0FF3038BD4FF0FF30FBE7CF
:204DE0000008014004000020C06E000870B5FFF767FD064608B1304670BDFFF7E1F92949A7
:204E0000CB681A0402F40022DB4303F0080313430B610520FFF7ECFB234B5B88012B1CD0E0
:204E20000220FFF743FE064640F291140125FFF739FAA8B92846FFF7DBFB013CA4B2002C4D
:204E4000F5D11849CB681A0402F40022DB4303F0080313430B619126CDE7FFF77DFFCAE756
:204E600033240125FFF71EFA012812D12846FFF7BFFB013CA4B2002CF4D10A49CB681A0455
:204E800002F40022DB4303F0080313430B619126B1E70220FFF748FE06430020FFF790F987
:204EA000A9E700BF00080140F8460020F8B51F4B5F6897B35B889BBB1C4B1E89B6F5005F83
:204EC00031D81B4D4FF400520021284601F0E4FFA5F1080425F8046C002325F8083C04F5BD
:204EE0000054124BDB68C4F8483432463946284601F0C4FFD4F848340BB90020F8BD314615
:204F00002846FFF7FFFA05F5FF531833D3F84834181A18BF4FF0FF30F0E74FF0FF30EDE7C6
:204F20004FF0FF30EAE74FF0FF30E7E7F8460020AC2200202DE9F84F274A1388C3F3870AFA
:204F4000B2F804904B44B3F5005F3CDCB9F11F0F8CBF4FEA59194FF00109204B03EB4A1893
:204F6000002637461E4CA4F1050B45460FCD20606160A260E3600FCD20616161A261E3612C
:204F80000920FFF793FD05460AEB0600C0B2FFF78DFD054320212046FFF732FD05430520A9
:204FA000FFF73CFB0120FFF7BFFD05432F430FD49BF8033013F0C00F08D1013608F120088B
:204FC0004E45D2D304E04FF0FF3701E04FF0FF373846BDE8F88F00BFA4220020AC220020AD
:204FE000090000202DE9F84F2A4A1388C3F3870897883B44B3F5005F44DC3F2F8CBFBF0991
:205000000127254C04EB881400252E46DFF88C90A246DFF88CE004F1400BD446BCE80F00A8
:20502000CEF80000CEF80410CEF80820CEF80C30E2460EF1100EDC45EFD11820FFF736FD59
:20504000824608EB0500C0B2FFF730FD4AEA000A40211348FFF7D4FC4AEA000A0520FFF7E2
:20506000DDFA0120FFF760FD4AEA000006430ED499F8033013F0C00F07D101354034BD426F
:20508000C6D304E04FF0FF3601E04FF0FF363046BDE8F88FA4220020AC2200200400002030
:2050A000090000201A4B5B885BBB70B5184B1D89B5F5806F28D8174E4FF480620021304681
:2050C00001F0EAFE144CE5800022628004F500540F4BDA68C4F84C242A465968304601F081
:2050E000CDFED4F84C340BB9002070BD29463046FFF708FAD4F84C34181A18BF4FF0FF30E8
:20510000F3E74FF0FF3070474FF0FF30EDE700BFF8460020CC420020A42200207F282FD176
:2051200010B582B0184B1B786B2B1ED0174B93F826228DF8042093F827328DF8053014204E
:20514000FFF7B4FC0446022101A8FFF759FC04430120FFF7E9FC20430FD10D4BDB7813F014
:20516000C00F18BF022002B010BD074B9A788DF80420DB788DF80530E1E740F00800F2E7F5
:205180004FF0FF30704700BFF8460020A4420020040000202DE9B04783B04B4B5B8853BBDC
:2051A0004A4B5B88C3F387038DF80730464B1B8933BB464BDB889B08ADF80430434A538880
:2051C000D2881344B3F5806F74DCBDF804309BB2D3B1BDF804309BB2ADF80430BDF8043085
:2051E0009BB2002B69D00024A2464FF00A08384FA7F105093BE0C3F387038DF80730D5E7A1
:205200009B08ADF80430D9E70123E5E72CB19DF80730234457F823303B604046FFF746FC57
:2052200005469DF807002044C0B2FFF73FFC054345EA0A0504213846FFF7E2FB0543052017
:20524000FFF7ECF90120FFF76FFC45EA000A3AF0080334D199F8033013F0C00F18BF4AF0D7
:20526000020A0134BDF804309BB2A34227D99DF80730E34209D09DF8073023447C2BC5D990
:205280009DF8073023447F2BC0D89DF8073023447F2BE6D19DF807002044C0B2FFF73EFF60
:2052A0004AEA000A1AF0080FDBD0FFF79FFD4FF0080AD6E74FF0FF3A01E04FF0000A50460C
:2052C00003B0BDE8B08700BFF8460020A4220020090000202DE9B04783B0414B5B8853BB56
:2052E000404B5B88C3F387038DF807303C4B1B8933BB3C4BDB889B08ADF80430394A538867
:20530000D2881344B3F5806F60DCBDF804309BB2D3B1BDF804309BB2ADF80430BDF8043057
:205320009BB2002B55D00024A2464FF00A082E4FA7F105093BE0C3F387038DF80730D5E77D
:205340009B08ADF80430D9E70123E5E72CB19DF80730234457F823303B604046FFF7A6FBB7
:2053600005469DF807002044C0B2FFF79FFB054345EA0A0504213846FFF742FB0543052017
:20538000FFF74CF90120FFF7CFFB45EA000A3AF0080320D199F8033013F0C00F18BF4AF0EB
:2053A000020A0134BDF804309BB2A34213D99DF80730E342F5D09DF8073023447C2BC5D977
:2053C0009DF8073023447F2BC0D8EAE74FF0FF3A01E04FF0000A504603B0BDE8B08700BF01
:2053E000F8460020A4220020090000202DE9F84F274A5388C3F38701D2881344B3F5806F11
:2054000039DC4FEA9209B9F1000F37D00E46214B03EB810800252F464FF00A0BA3F1050A1B
:2054200020E05846FFF742FB0446F0B2FFF73EFB0443274304211748FFF7E2FA074305200A
:20544000FFF7ECF80120FFF76FFB074318D49AF8033013F0C00F18D10135013608F10408C9
:205460004D450FD0002EF7D0002DDAD0D8F80030CAF80530D5E74FF0FF3703E0002701E0DC
:205480004FF0FF373846BDE8F88F4FF0FF37F9E7A42200200900002010B50E4BD3F84C3420
:2054A0005BB10D4CA18804F10800FFF72BF804F50054D4F84834834208D14FF0FF324FF462
:2054C00000510648FEF7EAFF002010BD4FF0FF30FBE700BFA4420020A4220020AC22002079
:2054E00010B50F20FFF7E2FA4FF40050FFF71CFB044608B1204610BD4FF0FF324FF400510C
:205500000148FEF7CBFFF5E70700002010B50D4BD3F84C3453B10C4CE1880C48FEF7F2FF19
:2055200004F50054D4F84C34834208D14FF0FF324FF480610548FEF7B1FF002010BD4FF082
:20554000FF30FBE7A4420020A4220020CC42002070B50E20FFF7AAFA264B188938BB4FF4EB
:205560008060FFF7E1FA044618B101280FD0204670BD214D4FF480612846FEF70DFF4FF08C
:20558000FF324FF480612846FEF788FFEFE71A4D4FF480612846FEF7FFFE05F5FF534FF080
:2055A000FF32B3F845102846FEF778FFDFE7FFF7BBFA044688B10128D9D10F4D0D4B1989C3
:2055C0002846FEF7E9FE05F5FF534FF0FF32B3F845102846FEF762FFC9E7064E064D3189F0
:2055E0002846FEF7D9FE4FF0FF3231892846FEF755FFBCE7F8460020070000200D4B5B684D
:20560000A3B110B55C789878000440EA04201C782043DC7840EA0464074881880830FEF7D9
:2056200071FF201A18BF4FF0FF3010BD4FF0FF30704700BFF8460020A422002038B5184B36
:205640001B89B3F5005F21D80F20FFF72FFA04464FF40050FFF768FA20431AD4104BB3F8CC
:2056600008C00CF1FF3CBCF1000F17DD00231A460C4D0D4CA9182244097AD27891420BD1A2
:2056800001339BB21A466345F4DB07E04FF0FF3004E04FF0FF3001E04FF0FF3038BD00BF08
:2056A000F8460020A4220020040000200A4BD3F848340BB90020704710B5084CA18804F114
:2056C0000800FEF71FFF04F50054D4F84834181A18BF4FF0FF3010BDA4420020A4220020EA
:2056E0000A4BD3F84C340BB90020704710B5084CE1880848FEF706FF04F50054D4F84C340A
:20570000181A18BF4FF0FF3010BD00BFA4420020A4220020CC4200200D4B5B68A3B110B538
:205720005C789878000440EA04201C782043DC7840EA0464074BD9880748FEF7E3FE201A44
:2057400018BF4FF0FF3010BD4FF0FF30704700BFF8460020A4220020CC42002038B5194B90
:205760001B89B3F5806F26D80E20FFF79FF904464FF48060FFF7D8F920431FD4114B1D89A8
:20578000C5B1114C1149002202E0013401311A46531C9BB2AB420DD0032BF6D9A2F2F312F5
:2057A00092B20B2AF1D994F800C00A789445ECD04FF0FF3038BD4FF0FF30FBE74FF0FF3022
:2057C000F8E700BFF8460020AD2200200800002010B582B00A4C21896068FEF793FE0190E0
:2057E0004FF0FF3204210DEB0100FEF757FEE3680198C01A18BF4FF0FF3002B010BD00BF90
:20580000F846002010B5052825D8DFE800F01B2C03353E4B1D20FFF749F904460120FFF7A6
:2058200083F9294BDB78882B49D154EA000348D110212648FFF7E4F804460320FFF774F9BD
:20584000204307E00D20FFF731F904460320FFF76BF9204330B94FF0FF3203211C48FEF7B1
:205860001DFE002010BD1120FFF720F904460320FFF75AF92043EDE70C20FFF717F9044677
:205880000320FFF751F92043E4E71E20FFF70EF904462020FFF70AF904430320FFF744F91C
:2058A0002043D7E71E20FFF701F904460020FFF7FDF804430320FFF737F92043CAE7102070
:2058C000D0E71020CEE700BF04000020C06E00080700002008B54FF0FF3203210248FEF75C
:2058E000DDFD002008BD00BFF4FF000810B51220FFF7DCF804460120FFF716F904434FF078
:20590000FF3201210248FEF7C9FD204610BD00BF0700002008B50120FFF7C8F808BD08B500
:205920000620FFF7C3F808BD82B00E4B9A6942F001029A619A6902F001020092009ADA69A6
:2059400042F08052DA61DB6903F080530193019B054A536823F0E06343F00073536002B063
:20596000704700BF00100240000001407047FEE7FEE7FEE7FEE770477047704708B501F000
:20598000EBF808BD08B50E49CB681A0402F48022DB4303F0040313430B610A4B5B6913F468
:2059A000804F09D1074B4FF480425A61064B4FF48072C3F8842108BDFFF7FCF8F2E700BFFF
:2059C000000801400004014000E100E0014B024A9A60704700ED00E0004000080C4A4FF481
:2059E0001653136000231371537108219171094A1380094A1360094A1360094A1360094AAA
:205A00001360094A01211170084A1370704700BF84200020822000209422002090220020A4
:205A2000A02200209C2200208D2200209922002000F00F0330F00F024BF68F7248F6BF7119
:205A40001ABF11464FF48052102203F1805303F5B8539B00186842400A401A60704700F0FD
:205A60000F0330F00F024BF68F7248F6BF711ABF11464FF44052202203F1805303F5B85322
:205A80009B00186842400A401A60704710B50446FFF7CEFF44F08000FFF7CAFF10BD10B517
:205AA0000446FFF7DCFF44F08000FFF7D8FF10BD00F1805000F5B8508000036883F44053CA
:205AC00023F4804323F070031B041B0C0360704700F1805000F5B8508000036883F03003B7
:205AE00023F4E04323F040031B041B0C0360704730B427490123C1F8403C264B00229A7567
:205B00009A60DA601A61C1F8402C234B1A70234B1A70234B1A70234B1A625A6240209862C9
:205B20004FF40440D86280241C635A63C0259D63D8634FF480751D6458644FF4A0759D64D6
:205B4000D8644FF4C07018654FF4805058654FF492759D65D8654FF4C873C1F8503C43F2C8
:205B60002023C1F8003C2123C1F8043C43F20203C1F8083C43F22363C1F80C3CC1F8442C94
:205B80004FF41F43C1F8403CC1F84C4C30BC70470050004068200020982200208C22002057
:205BA0009922002000630040034610B100BF013BFCD1704738B5144BDD6AC5F309058D42B6
:205BC000A8BF0D46DDB1A3F54073D3F88040002D15DD0470240A8446013800EB050E0B4A90
:205BE000012300E0240AE64509D00CF8014F013BF8D1134653F8044B1A460223F3E70020A4
:205C0000FFF756FF284638BD006300408460004038B5402907DD4025154B5D6200239C464C
:205C2000144C194608E0124B596299B90D4619E00CF1010CAC4513DA10F8012B9A401143BD
:205C40000833082BF4DD234643F8041B1C4600210B46EDE7002901DD0D46DFE70D4601E046
:205C600003B121600020FFF733FF284638BD00BF006300400060004008B500210148FFF725
:205C8000C7FF08BD786F0008034B1B7813F0600F0CBF01200020704768200020044B1878ED
:205CA00000F06000202814BF00200120704700BF6820002038B50D4B93F90030002B00DB13
:205CC00038BD0A4CA1682569E3689942A8BF19462846FFF79DFF05442561A368181A01D415
:205CE000A060EDE7014B00229A60E9E76820002008B50F4B5A881B78012B05D0022B09D05D
:205D00001BB10120FFF794FE08BD012AFCD1084B1875F9E7002AF7D1054B9B8818B91846FD
:205D2000FFF7B4FEF0E71846FFF7B9FEECE700BF6820002000B583B01A4A1378918800228D
:205D40008DF80420812B1ED0822B15D0802B03D08020FFF76DFE22E0124B1B7D13B102230F
:205D60008DF804300F4B5B7D6BB19DF8043043F001038DF8043006E0012901D9032902D17A
:205D800001238DF8043000238DF80530054B4022DA6002229A6001AA1A61FFF78BFF03B0E6
:205DA0005DF804FB6820002008B51A4B5A88130A022B1BD0032B05D0012B1AD00020FFF77F
:205DC00065FE23E0D2B2032A0CD8DFE802F002200508114904200EE0104920200BE0104997
:205DE0001A2008E00120FFF723FE0FE00D49432001E00D491220074BDA888242A8BF024611
:205E00004020D8609A601961FFF754FF08BD07491020F0E768200020486F0008286F00080B
:205E20004C6F0008D06E0008146F0008686F000808B5FFF721FF024B9A78024B1A7008BD21
:205E4000682000208020002008B5094B5B8823B9074A9375074A137008BDFFF7BFFD044B17
:205E60005A889A75034B01221A70FFF705FFF3E7682000208C22002008B507210248FFF7C7
:205E800099FEFFF7F9FE08BD8420002008B5044B5B881B0A034A1380FFF7EEFE08BD00BF9B
:205EA000682000208220002008B5054B4022DA6007229A60034A1A61FFF7FCFE08BD00BF70
:205EC000682000208420002008B508212B48FFF771FEFFF7D9FE002837D0284B5B780B2B20
:205EE00033D8DFE803F01C09320D32062C32112F1F27FFF79DFF36E00020FFF7F9FE32E096
:205F00000120FFF7F5FE2EE01C4B4022DA6001229A6003F116021A61FFF7CCFE23E0FFF709
:205F200009FF20E0154B01229A60154A1A61FFF7C1FE18E0FFF752FDFFF79EFE13E0FFF795
:205F400033FF10E0FFF780FF0DE0FFF7A7FE38B10A4B5B78212B0AD0222B0BD0202B03D0A5
:205F60000020FFF765FD08BDFFF786FEFBE7FFF79BFFF8E7FFF78AFFF5E700BF6820002057
:205F8000786F000800B591B0FFF77EFE58B9FFF785FE90B10A4B5B78202B09D0FFF76CFE33
:205FA00011B05DF804FB40216846FFF703FEF7E7FFF762FFFFF760FEF2E7FFF75DFEEFE73D
:205FC0006820002008B5FFF75FFE00B908BD094B5B78062B04D0212B09D0FFF74DFEF5E71D
:205FE000044B9B68002BF1DDFFF764FEEEE7FFF743FEEBE76820002070B5204B1B68204AFB
:2060000012689B1A48BF03F580739C46402BA8BF4FF0400CCCF3090242F4044219494A63CB
:20602000194A0121117023B3154A13681749C85CC0B213680133DBB21360154C0821154620
:20604000124EBCF1010C12D02B68F35CDBB22A680132D2B22A608B40184308310829F0DDA5
:20606000234643F8040B1C4600200146E9E701B120600120FFF72CFD70BD00BFA022002094
:206080009C22002000630040992200208C2100200061004008B5064B1A68064B1B689A42F6
:2060A00003D1054B00221A7008BDFFF7A5FFFBE79C220020A022002099220020F8B5244B18
:2060C000DE6CC6F30906234B1B68234A1268B3EB020C48BF0CF5807CCCF5807C664514DAD0
:2060E0001E4BD3F8805236B3E8B21A4A13681C49C85413680133DBB213602D0A3046DFF884
:2061000064E00122134C0F4604E0174B00221A7018E02D0A01380ED0EBB221687B542368AC
:206120000133DBB22360013AF3D1734653F8045B9E460222EEE7ACEB06063F2E03DC0A4B98
:2061400000221A70F8BD0220FFF7B2FCFAE700BF006300409422002090220020006000408D
:206160008C200020846200408D22002070B54F4BD3F8443C13F4804F04D04C4A6FF48041F0
:20618000C2F8441C13F4005F04D0484A6FF40051C2F8441C13F4805F0DD0444AD2F8401CD4
:2061A00021F00C01C2F8401C6FF48051C2F8441C3F4A0021117013F4006F0DD03B4A6FF4F7
:2061C0000061C2F8441C3A4901200870D2F8401C41F00C01C2F8401C13F4806F34D113F4AC
:2061E000007F07D0314A6FF40071C2F8441C304A0021117013F4807F07D02C4A6FF480711D
:20620000C2F8441C2A4A0121117013F4004F27D0264A6FF40041C2F8441C03F00F0404F1D7
:20622000805202F5B8529200116888B213F0100F1FD040F68F730B401360ACB911F4006F66
:206240000FD0FFF741FE0BE000231A4A93751A4A1370FFF74DFC154B6FF48062C3F8442CBA
:2062600070BDFFF78FFEFBE7022CF9D1FFF726FFF6E7124B1B7863B921F4E14121F07001D7
:206280000904090C116074B1012CE9D1FFF702FFE6E70A4D2B7843F08003044EC6F84C3C53
:2062A00000232B70E8E7FFF78DFED9E70050004098220020682000208C2200208020002070
:2062C00038B5174AD36943F40003D361154B002015491A46043310608B42FAD10024134BC7
:2062E0009C75134B1C70134B1C70FFF777FB124D0323C5F8403C6420FFF756FC0123C5F8E6
:20630000403CC5F8444C4FF47A70FFF74DFC0B4B4FF480121A60FFF7EBFB204638BD00BFAD
:20632000001002400060004000640040682000208C220020982200200050004000E100E026
:20634000054B0122C3F8402C0022C3F8442C0322C3F8402C704700BF00500040064B4FF470
:206360008012C3F8802005490868054909681A60401A18BF0120704700E100E0902200209D
:206380009422002010B51E4B4FF48012C3F880201C4B1B7833B31C4B1B781BBB1B4B1A6831
:2063A0001B4B1B689A4223D0184A13681949CC5CE4B213680133DBB21360174B1B78C3B908
:2063C000134B1B6812689B1A48BF03F58073C3F58073402B0DDD104B01221A700220FFF79B
:2063E00067FB06E0064B4FF480121A60FF2404E00024034B4FF480121A60204610BD00BFFB
:2064000000E100E08C2200209822002090220020942200208C2000208D220020F8B51E4BBA
:206420004FF48012C3F880201C4B1B78C3B1864603F0FF051A4E1B481B4F1749DFF85CC073
:2064400033786BB903683C680133DBB2A3420ED10A6030BFC1F880209CF80030002BEFD178
:206460000D4B4FF480121A6000252846F8BD0D4A13680133DBB211680C4800F801E0136081
:206480000B4B1B7823B1044B4FF480121A60ECE7FFF7B2FDF7E700BF00E100E08C220020FD
:2064A00098220020A02200209C2200208C2100209922002010B582B000238DF807303B4C3D
:2064C0003B4B63604FF0FF3201212046FDF79AFF8DF80700642202216018FDF793FF8DF836
:2064E00007009DF807305BB213F1030F48D06422022104F10800FDF785FF8DF807009DF84F
:2065000007305BB213F1030F3DD0218900293DD042F2200399423CD8237803F0EF024D2AF8
:206520003AD0092B3AD02B2A01D000202FE04FF47A726068FDF766FF8DF807009DF8073016
:206540005BB213F1030F2BD06422042104F10C00FDF758FF8DF807009DF807305BB213F1BD
:20656000030F20D0E3680BB9002010E021896068FDF7C8FFE368181A18BF4FF0FF3006E025
:206580004FF0FF3003E04FF0FF3000E0002002B010BD4FF0FF30FAE70020F8E70020F6E772
:2065A0004FF0FF30F3E74FF0FF30F0E7F84600200900002030B583B09D4B1B788DF8073078
:2065C00006238DF806309DF80730093B722B00F24E82DFE813F0730086009F0035016D0162
:2065E0004C024C024C024C024C024C024C024C024C024C024C024C02D401C60047017F0190
:206600004C024C024C024C024C024C024C024C024C024C024C024C02EF01960023016401C3
:206620004C024C024C024C024C024C024C024C024C024C024C024C02DD01BD003E01760161
:206640004C024C024C024C024C024C024C024C024C024C024C024C02E601AE004C02980116
:206660004C024C024C024C024C024C024C024C024C024C024C024C024C02E6004C02A1014E
:206680004C024C024C024C024C024C024C024C024C024C024C024C024C0242024C02CB01A6
:2066A0004C024C024C024C024C024C024C024C024C024C024C024C024C0203015C4B1B8995
:2066C000012B14BF002301235A4A1370FEF78EFB18B906238DF806300BE0C3B28DF80630FF
:2066E00007E0FEF739FB0028D8BF0620C0B28DF806009DF80600FFF791FE9DF8060003B03A
:2067000030BDFEF7D3FB0028D8BF0620C0B28DF80600EEE7FEF7CAFF034630B1002BD8BF68
:206720000623DBB28DF80630E3E7FEF703FC0346F4E7FEF7BBFF034630B1002BD8BF062342
:20674000DBB28DF80630D4E7FEF74CFC0346F4E7FEF7A8FC0028D8BF0620C0B28DF806005A
:20676000C7E7FEF7BDFF044630B1B120FFF756FEE4B28DF80640BCE72F4C4FF480652A465D
:206780002E49204600F07AFB29462046FDF704FE0446FEF7FFFC0443E7D106238DF80630CF
:2067A000A7E7FEF79DFF034630B1002BD8BF0623DBB28DF806309CE71F4C4FF480652A46D7
:2067C0001E49204600F05AFB29462046FDF7E4FD0446FEF70BFE44EA0003E6E7FEF780FF43
:2067E000044630B1B120FFF719FEE4B28DF806407FE7114C4FF480652A461049204600F025
:206800003DFB29462046FDF7C7FD0446FEF762FD0443E7D106238DF806306AE7FEF7EEFE00
:206820000028D8BF0620C0B28DF8060061E700BFF8460020F446002009000020CC42002060
:20684000FEF7FCFE0028D8BF0620C0B28DF806004FE7FEF761FF0028D8BF0620C0B28DF800
:20686000060046E7FEF758FF034630B1002BD8BF0623DBB28DF806303BE77F4C4FF4806527
:206880002A467E49204600F0F9FA29462046FDF783FD0446FEF762FF44EA0003E6E7FEF79C
:2068A000FBFD0028D8BF0620C0B28DF8060020E7FEF716FE0028D8BF0620C0B28DF806000C
:2068C00017E7FEF723FE0028CCBFD32306238DF806300EE76A4B19895868FDF75DFDFEF7C8
:2068E00037FE18B906238DF8063002E7D1228DF8062001287FF4FDAE1046FFF78FFD0123E4
:206900008DF80630F5E6FEF763FF0028D8BF0620C0B28DF80600ECE6594B1B89052B21D865
:20692000DFE803F0030C1014181C0220FEF76AFF002819DDC0B28DF80600DAE60020FEF7C6
:2069400061FFF5E70120FEF75DFFF1E70320FEF759FFEDE70420FEF755FFE9E70520FEF716
:2069600051FFE5E70620E6E70620E4E7FEF7B2FF0028D8BF0620C0B28DF80600B9E6FEF7FB
:20698000B5FF0028D8BF0620C0B28DF80600B0E6FEF7C0FF0028D8BF0620C0B28DF8060035
:2069A000A7E6FEF7BCFF0028D8BF0620C0B28DF806009EE6334A344B136012689A4203D09C
:2069C000A2238DF8063094E6FFF7BAFC2F49304B93FAA3F2B2FA82F293FAA3FCBCFA8CFC72
:2069E00093FAA3F5B5FA85F593FAA3F4B4FA84F493FAA3F0B0FA80F093FAA3F393000F22DE
:206A00009A404B6823EA02034FEA8C0C012202FA0CF21343AD000322AA4023EA0203A40021
:206A20000222A240134380000422824023EA02034B604FF480534B614FF47A70FDF7EEFD07
:206A4000BFF34F8F1349CA6802F4E062124B1343CB60BFF34F8F00BFFDE77F20FEF75EFBE2
:206A60000028D8BF0620C0B28DF8060041E666238DF806303DE600BF09000020CC42002090
:206A8000F8460020FC4F002078563412000801401000100400ED00E00400FA050C480D4932
:206AA0000D4A002302E0D458C4500433C4188C42F9D30A4A0A4C002301E013600432A24252
:206AC000FBD3FEF783FF00F0B5F9FDF715FE70470000002040200020846F000840200020FA
:206AE00010470020FEE7000010B504460E4B18784FF47A73B3FBF0F30C4A1068B0FBF3F025
:206B000000F07EF868B90F2C01D901200AE0002221464FF0FF3000F03DF8054B1C600020C6
:206B200000E0012010BD00BF38200020342000203C20002008B5074A136843F0100313601E
:206B4000032000F015F80F20FFF7CEFFFEF7ECFE002008BD00200240034A1168034B1B7856
:206B60000B441360704700BF0C470020382000200749CA68030203F4E06322F4E0621204C3
:206B8000120C134343F0BF6343F40033CB60704700ED00E000B5184BDB68C3F30223C3F129
:206BA000070CBCF1040F28BF4FF0040C03F1040EBEF1060F8CBF033B00234FF0FF3E0EFAD2
:206BC0000CFC21EA0C0199400EFA03F322EA03021143002809DB0901C9B200F1604000F542
:206BE000614080F800135DF804FB00F00F000901C9B2024B1954F6E700ED00E014ED00E04C
:206C00000138B0F1807F0BD24FF0E0235861054AF02182F823100020986107221A61704742
:206C20000120704700ED00E0014B1868704700BF3420002010B403460079002853D01A68A6
:206C4000002A5DD05879012818D0022821D058B101209A79002A51D0022A2FD0032A38D0F8
:206C6000012A20D0012049E026494C6824EA02024A600A681C6822430A60EAE72149086860
:206C800020EA02020A604A68186802434A600020DFE71C49086802430A604A68186802437A
:206CA0004A600020D5E7174AD1681C6821EA0401D16091681B680B4393601FE0114A9168DF
:206CC0001C6821EA04019160D1681B680B43D36014E00C4A91681C6821439160D1681B681A
:206CE0000B43D3600AE0074A11681C6821EA0401116051681B6821EA0303536010BC7047D7
:206D00000020FBE7000401400B68C3F30F2C9CFAACF2B2FA82F23CFA02F300F083802DE940
:206D2000F04F4FF0010E0F244FF003084FF0011540F20117E14631E093FAA3FABAFA8AFA10
:206D400093FAA3FBBBFA8BFB4FEA8A0A08FA0AFA26EA0A0A4FEA8B0B8E6806FA0BF64AEADC
:206D6000060640F80C6093FAA3FABAFA8AFA93FAA3F3B3FA83F34FEA8A0A4FF0040B0BFA9B
:206D80000AFA26EA0A0A9B00CE689E404AEA060640F80C60013239FA02F340D00EFA02F3D0
:206DA00013EA090FF6D0072A91BF07FA02F3A2F1080305FA03F343F08063C6684FEA132C32
:206DC0009CFAACFABAFA8AFA26EA0C0C0E6906FA0AF64CEA0606C6604FEA136C93FAA3FA56
:206DE000BAFA8AFA93FAA3FBBBFA8BFB4FEA8A0A04FA0AFA50F80C6026EA0A0A4FEA8B0B7F
:206E00004E6806FA0BF64AEA060640F80C60D1F804A02AF0080ABAF1010FBBD18CE7002064
:206E2000BDE8F08F00207047014B1860704700BF3420002070B500260C4D0D4C641BA41079
:206E4000A64209D100F030F800260A4D0A4C641BA410A64205D170BD55F8043B98470136C5
:206E6000EEE755F8043B98470136F2E77C6F00087C6F00087C6F0008806F00080A449142D1
:206E800000F1FF3300D1704710B511F8014B914203F8014FF9D110BD03460244934200D143
:206EA000704703F8011BF9E7F8B500BFF8BC08BC9E467047F8B500BFF8BC08BC9E46704726
:206EC0005545E892D6B16259FC8AC8F2D6E14A3509024300020100C0320904000001020291
:206EE000010005240010010524010001042402000524060001070583030800010904010029
:206F0000020A00000007058102400000070502024000000012010002020000401604115074
:206F20000001010203010000200355005300420020005600690072007400750061006C0035
:206F4000200043004F004D00040309041A034E005400320030003000390031003000310002
:206F6000340030003000000010034E00750076006F0074006F006E000000000031410008F7
:206F80000D410008FFFFFFFF00100A00000000000000000000000000000000000000000085
:206FA0000000000000000000000000000000000000000000000000000000000000000000D1
:206FC0000000000000000000000000000000000000000000000000000000000000000000B1
:206FE000000000000000000000000000000000000000000000000000000000000000000091
:20700000000000000000000000000000000000000000000000000000000000000000000070
:208FA0000000000000000000000000000000000000000000000000000024F4000100000098
:208FC00010000000FFFFFFFFFFFFFFFFFFFFFFFFFFFFFFFFFFFFFFFFFFFFFFFFFFFFFFFF9D
:208FE000FFFFFFFFFFFFFFFFFFFFFFFFFFFFFFFFFFFFFFFFFFFFFFFFFFFFFFFFFFFFFFFF91
:20900000FFFFFFFFFFFFFFFFFFFFFFFFFFFFFFFFFFFFFFFFFFFFFFFFFFFFFFFFFFFFFFFF70
:20902000FFFFFFFFFFFFFFFFFFFFFFFFFFFFFFFFFFFFFFFFFFFFFFFFFFFFFFFFFFFFFFFF50
:20904000FFFFFFFFFFFFFFFFFFFFFFFFFFFFFFFFFFFFFFFFFFFFFFFFFFFFFFFFFFFFFFFF30
:20FFE000FFFFFFFFFFFFFFFFFFFFFFFFFFFFFFFFFFFFFFFF010200FFFFFFFFFFD50D0F6ABC
:0400000508006A9DE8
:00000001FF
